{
  "contractName": "DebtStatusTokens",
  "abi": [
    {
      "inputs": [],
      "stateMutability": "nonpayable",
      "type": "constructor"
    },
    {
      "anonymous": false,
      "inputs": [
        {
          "indexed": true,
          "internalType": "address",
          "name": "owner",
          "type": "address"
        },
        {
          "indexed": true,
          "internalType": "address",
          "name": "approved",
          "type": "address"
        },
        {
          "indexed": true,
          "internalType": "uint256",
          "name": "tokenId",
          "type": "uint256"
        }
      ],
      "name": "Approval",
      "type": "event"
    },
    {
      "anonymous": false,
      "inputs": [
        {
          "indexed": true,
          "internalType": "address",
          "name": "owner",
          "type": "address"
        },
        {
          "indexed": true,
          "internalType": "address",
          "name": "operator",
          "type": "address"
        },
        {
          "indexed": false,
          "internalType": "bool",
          "name": "approved",
          "type": "bool"
        }
      ],
      "name": "ApprovalForAll",
      "type": "event"
    },
    {
      "anonymous": false,
      "inputs": [
        {
          "indexed": false,
          "internalType": "uint256",
          "name": "_fromTokenId",
          "type": "uint256"
        },
        {
          "indexed": false,
          "internalType": "uint256",
          "name": "_toTokenId",
          "type": "uint256"
        }
      ],
      "name": "BatchMetadataUpdate",
      "type": "event"
    },
    {
      "anonymous": false,
      "inputs": [
        {
          "indexed": false,
          "internalType": "uint256",
          "name": "_tokenId",
          "type": "uint256"
        }
      ],
      "name": "MetadataUpdate",
      "type": "event"
    },
    {
      "anonymous": false,
      "inputs": [
        {
          "indexed": true,
          "internalType": "address",
          "name": "recipient",
          "type": "address"
        },
        {
          "indexed": false,
          "internalType": "uint256",
          "name": "tokenId",
          "type": "uint256"
        },
        {
          "indexed": false,
          "internalType": "string",
          "name": "tokenType",
          "type": "string"
        }
      ],
      "name": "TokenMinted",
      "type": "event"
    },
    {
      "anonymous": false,
      "inputs": [
        {
          "indexed": true,
          "internalType": "address",
          "name": "from",
          "type": "address"
        },
        {
          "indexed": true,
          "internalType": "address",
          "name": "to",
          "type": "address"
        },
        {
          "indexed": true,
          "internalType": "uint256",
          "name": "tokenId",
          "type": "uint256"
        }
      ],
      "name": "Transfer",
      "type": "event"
    },
    {
      "inputs": [
        {
          "internalType": "address",
          "name": "to",
          "type": "address"
        },
        {
          "internalType": "uint256",
          "name": "tokenId",
          "type": "uint256"
        }
      ],
      "name": "approve",
      "outputs": [],
      "stateMutability": "nonpayable",
      "type": "function"
    },
    {
      "inputs": [
        {
          "internalType": "address",
          "name": "owner",
          "type": "address"
        }
      ],
      "name": "balanceOf",
      "outputs": [
        {
          "internalType": "uint256",
          "name": "",
          "type": "uint256"
        }
      ],
      "stateMutability": "view",
      "type": "function",
      "constant": true
    },
    {
      "inputs": [
        {
          "internalType": "uint256",
          "name": "tokenId",
          "type": "uint256"
        }
      ],
      "name": "getApproved",
      "outputs": [
        {
          "internalType": "address",
          "name": "",
          "type": "address"
        }
      ],
      "stateMutability": "view",
      "type": "function",
      "constant": true
    },
    {
      "inputs": [
        {
          "internalType": "address",
          "name": "owner",
          "type": "address"
        },
        {
          "internalType": "address",
          "name": "operator",
          "type": "address"
        }
      ],
      "name": "isApprovedForAll",
      "outputs": [
        {
          "internalType": "bool",
          "name": "",
          "type": "bool"
        }
      ],
      "stateMutability": "view",
      "type": "function",
      "constant": true
    },
    {
      "inputs": [],
      "name": "name",
      "outputs": [
        {
          "internalType": "string",
          "name": "",
          "type": "string"
        }
      ],
      "stateMutability": "view",
      "type": "function",
      "constant": true
    },
    {
      "inputs": [
        {
          "internalType": "uint256",
          "name": "tokenId",
          "type": "uint256"
        }
      ],
      "name": "ownerOf",
      "outputs": [
        {
          "internalType": "address",
          "name": "",
          "type": "address"
        }
      ],
      "stateMutability": "view",
      "type": "function",
      "constant": true
    },
    {
      "inputs": [
        {
          "internalType": "address",
          "name": "from",
          "type": "address"
        },
        {
          "internalType": "address",
          "name": "to",
          "type": "address"
        },
        {
          "internalType": "uint256",
          "name": "tokenId",
          "type": "uint256"
        }
      ],
      "name": "safeTransferFrom",
      "outputs": [],
      "stateMutability": "nonpayable",
      "type": "function"
    },
    {
      "inputs": [
        {
          "internalType": "address",
          "name": "from",
          "type": "address"
        },
        {
          "internalType": "address",
          "name": "to",
          "type": "address"
        },
        {
          "internalType": "uint256",
          "name": "tokenId",
          "type": "uint256"
        },
        {
          "internalType": "bytes",
          "name": "data",
          "type": "bytes"
        }
      ],
      "name": "safeTransferFrom",
      "outputs": [],
      "stateMutability": "nonpayable",
      "type": "function"
    },
    {
      "inputs": [
        {
          "internalType": "address",
          "name": "operator",
          "type": "address"
        },
        {
          "internalType": "bool",
          "name": "approved",
          "type": "bool"
        }
      ],
      "name": "setApprovalForAll",
      "outputs": [],
      "stateMutability": "nonpayable",
      "type": "function"
    },
    {
      "inputs": [
        {
          "internalType": "bytes4",
          "name": "interfaceId",
          "type": "bytes4"
        }
      ],
      "name": "supportsInterface",
      "outputs": [
        {
          "internalType": "bool",
          "name": "",
          "type": "bool"
        }
      ],
      "stateMutability": "view",
      "type": "function",
      "constant": true
    },
    {
      "inputs": [],
      "name": "symbol",
      "outputs": [
        {
          "internalType": "string",
          "name": "",
          "type": "string"
        }
      ],
      "stateMutability": "view",
      "type": "function",
      "constant": true
    },
    {
      "inputs": [
        {
          "internalType": "uint256",
          "name": "tokenId",
          "type": "uint256"
        }
      ],
      "name": "tokenURI",
      "outputs": [
        {
          "internalType": "string",
          "name": "",
          "type": "string"
        }
      ],
      "stateMutability": "view",
      "type": "function",
      "constant": true
    },
    {
      "inputs": [
        {
          "internalType": "address",
          "name": "from",
          "type": "address"
        },
        {
          "internalType": "address",
          "name": "to",
          "type": "address"
        },
        {
          "internalType": "uint256",
          "name": "tokenId",
          "type": "uint256"
        }
      ],
      "name": "transferFrom",
      "outputs": [],
      "stateMutability": "nonpayable",
      "type": "function"
    },
    {
      "inputs": [
        {
          "internalType": "address",
          "name": "recipient",
          "type": "address"
        },
        {
          "internalType": "address",
          "name": "erc1155ContractAddress",
          "type": "address"
        },
        {
          "internalType": "uint256",
          "name": "amountCleared",
          "type": "uint256"
        }
      ],
      "name": "_issueDebtClearedToken",
      "outputs": [
        {
          "internalType": "uint256",
          "name": "",
          "type": "uint256"
        }
      ],
      "stateMutability": "nonpayable",
      "type": "function"
    },
    {
      "inputs": [
        {
          "internalType": "uint256",
          "name": "tokenId",
          "type": "uint256"
        }
      ],
      "name": "getDebtClearedDetails",
      "outputs": [
        {
          "internalType": "string",
          "name": "",
          "type": "string"
        }
      ],
      "stateMutability": "view",
      "type": "function",
      "constant": true
    }
  ],
  "bytecode": "0x60806040523480156200001157600080fd5b506040518060400160405280601281526020017f446562742053746174757320546f6b656e7300000000000000000000000000008152506040518060400160405280600381526020017f4453540000000000000000000000000000000000000000000000000000000000815250816000908051906020019062000096929190620000b8565b508060019080519060200190620000af929190620000b8565b505050620001cd565b828054620000c69062000168565b90600052602060002090601f016020900481019282620000ea576000855562000136565b82601f106200010557805160ff191683800117855562000136565b8280016001018555821562000136579182015b828111156200013557825182559160200191906001019062000118565b5b50905062000145919062000149565b5090565b5b80821115620001645760008160009055506001016200014a565b5090565b600060028204905060018216806200018157607f821691505b602082108114156200019857620001976200019e565b5b50919050565b7f4e487b7100000000000000000000000000000000000000000000000000000000600052602260045260246000fd5b612e9980620001dd6000396000f3fe608060405234801561001057600080fd5b50600436106100f55760003560e01c806370a0823111610097578063b88d4fde11610066578063b88d4fde14610296578063c87b56dd146102b2578063d0508d8c146102e2578063e985e9c514610312576100f5565b806370a08231146101fc57806395d89b411461022c578063a22cb4651461024a578063adf2996c14610266576100f5565b8063095ea7b3116100d3578063095ea7b31461017857806323b872dd1461019457806342842e0e146101b05780636352211e146101cc576100f5565b806301ffc9a7146100fa57806306fdde031461012a578063081812fc14610148575b600080fd5b610114600480360381019061010f919061215c565b610342565b60405161012191906125d7565b60405180910390f35b6101326103a3565b60405161013f91906125f2565b60405180910390f35b610162600480360381019061015d91906121ae565b610435565b60405161016f9190612570565b60405180910390f35b610192600480360381019061018d9190612120565b61047b565b005b6101ae60048036038101906101a9919061201a565b610593565b005b6101ca60048036038101906101c5919061201a565b6105f3565b005b6101e660048036038101906101e191906121ae565b610613565b6040516101f39190612570565b60405180910390f35b61021660048036038101906102119190611f8c565b61069a565b60405161022391906127b4565b60405180910390f35b610234610752565b60405161024191906125f2565b60405180910390f35b610264600480360381019061025f91906120e4565b6107e4565b005b610280600480360381019061027b919061201a565b6107fa565b60405161028d91906127b4565b60405180910390f35b6102b060048036038101906102ab9190612069565b6109a9565b005b6102cc60048036038101906102c791906121ae565b610a0b565b6040516102d991906125f2565b60405180910390f35b6102fc60048036038101906102f791906121ae565b610b1e565b60405161030991906125f2565b60405180910390f35b61032c60048036038101906103279190611fde565b610bf2565b60405161033991906125d7565b60405180910390f35b6000634906490660e01b7bffffffffffffffffffffffffffffffffffffffffffffffffffffffff1916827bffffffffffffffffffffffffffffffffffffffffffffffffffffffff1916148061039c575061039b82610c86565b5b9050919050565b6060600080546103b29061294c565b80601f01602080910402602001604051908101604052809291908181526020018280546103de9061294c565b801561042b5780601f106104005761010080835404028352916020019161042b565b820191906000526020600020905b81548152906001019060200180831161040e57829003601f168201915b5050505050905090565b600061044082610d68565b6004600083815260200190815260200160002060009054906101000a900473ffffffffffffffffffffffffffffffffffffffff169050919050565b600061048682610613565b90508073ffffffffffffffffffffffffffffffffffffffff168373ffffffffffffffffffffffffffffffffffffffff1614156104f7576040517f08c379a00000000000000000000000000000000000000000000000000000000081526004016104ee90612774565b60405180910390fd5b8073ffffffffffffffffffffffffffffffffffffffff16610516610db3565b73ffffffffffffffffffffffffffffffffffffffff16148061054557506105448161053f610db3565b610bf2565b5b610584576040517f08c379a000000000000000000000000000000000000000000000000000000000815260040161057b90612794565b60405180910390fd5b61058e8383610dbb565b505050565b6105a461059e610db3565b82610e74565b6105e3576040517f08c379a00000000000000000000000000000000000000000000000000000000081526004016105da90612614565b60405180910390fd5b6105ee838383610f09565b505050565b61060e838383604051806020016040528060008152506109a9565b505050565b60008061061f83611203565b9050600073ffffffffffffffffffffffffffffffffffffffff168173ffffffffffffffffffffffffffffffffffffffff161415610691576040517f08c379a000000000000000000000000000000000000000000000000000000000815260040161068890612754565b60405180910390fd5b80915050919050565b60008073ffffffffffffffffffffffffffffffffffffffff168273ffffffffffffffffffffffffffffffffffffffff16141561070b576040517f08c379a0000000000000000000000000000000000000000000000000000000008152600401610702906126f4565b60405180910390fd5b600360008373ffffffffffffffffffffffffffffffffffffffff1673ffffffffffffffffffffffffffffffffffffffff168152602001908152602001600020549050919050565b6060600180546107619061294c565b80601f016020809104026020016040519081016040528092919081815260200182805461078d9061294c565b80156107da5780601f106107af576101008083540402835291602001916107da565b820191906000526020600020905b8154815290600101906020018083116107bd57829003601f168201915b5050505050905090565b6107f66107ef610db3565b8383611240565b5050565b60008060405180608001604052808673ffffffffffffffffffffffffffffffffffffffff1681526020018481526020014281526020016040518060400160405280600e81526020017f416c6c20536574746c6564205570000000000000000000000000000000000000815250815250905061087560076113ad565b600061088160076113c3565b905061088d86826113d1565b6000610898836113ef565b90506108a48282611438565b826008600084815260200190815260200160002060008201518160000160006101000a81548173ffffffffffffffffffffffffffffffffffffffff021916908373ffffffffffffffffffffffffffffffffffffffff1602179055506020820151816001015560408201518160020155606082015181600301908051906020019061092f929190611e03565b509050508673ffffffffffffffffffffffffffffffffffffffff167fdf92894dc4675a7333caa5903b69cf5d8e8ec0d3f361c88207b6688e525703bb8360405161097991906127cf565b60405180910390a261098b8787610bf2565b61099c5761099b87876001611240565b5b8193505050509392505050565b6109ba6109b4610db3565b83610e74565b6109f9576040517f08c379a00000000000000000000000000000000000000000000000000000000081526004016109f090612614565b60405180910390fd5b610a05848484846114e3565b50505050565b6060610a1682610d68565b6000600660008481526020019081526020016000208054610a369061294c565b80601f0160208091040260200160405190810160405280929190818152602001828054610a629061294c565b8015610aaf5780601f10610a8457610100808354040283529160200191610aaf565b820191906000526020600020905b815481529060010190602001808311610a9257829003601f168201915b505050505090506000610ac061153f565b9050600081511415610ad6578192505050610b19565b600082511115610b0b578082604051602001610af39291906124fa565b60405160208183030381529060405292505050610b19565b610b1484611556565b925050505b919050565b60603073ffffffffffffffffffffffffffffffffffffffff16636352211e836040518263ffffffff1660e01b8152600401610b5991906127b4565b60206040518083038186803b158015610b7157600080fd5b505afa925050508015610ba257506040513d601f19601f82011682018060405250810190610b9f9190611fb5565b60015b610be1576040517f08c379a0000000000000000000000000000000000000000000000000000000008152600401610bd890612634565b60405180910390fd5b610bea83610a0b565b915050919050565b6000600560008473ffffffffffffffffffffffffffffffffffffffff1673ffffffffffffffffffffffffffffffffffffffff16815260200190815260200160002060008373ffffffffffffffffffffffffffffffffffffffff1673ffffffffffffffffffffffffffffffffffffffff16815260200190815260200160002060009054906101000a900460ff16905092915050565b60007f80ac58cd000000000000000000000000000000000000000000000000000000007bffffffffffffffffffffffffffffffffffffffffffffffffffffffff1916827bffffffffffffffffffffffffffffffffffffffffffffffffffffffff19161480610d5157507f5b5e139f000000000000000000000000000000000000000000000000000000007bffffffffffffffffffffffffffffffffffffffffffffffffffffffff1916827bffffffffffffffffffffffffffffffffffffffffffffffffffffffff1916145b80610d615750610d60826115be565b5b9050919050565b610d7181611628565b610db0576040517f08c379a0000000000000000000000000000000000000000000000000000000008152600401610da790612754565b60405180910390fd5b50565b600033905090565b816004600083815260200190815260200160002060006101000a81548173ffffffffffffffffffffffffffffffffffffffff021916908373ffffffffffffffffffffffffffffffffffffffff160217905550808273ffffffffffffffffffffffffffffffffffffffff16610e2e83610613565b73ffffffffffffffffffffffffffffffffffffffff167f8c5be1e5ebec7d5bd14f71427d1e84f3dd0314c0f7b2291e5b200ac8c7c3b92560405160405180910390a45050565b600080610e8083610613565b90508073ffffffffffffffffffffffffffffffffffffffff168473ffffffffffffffffffffffffffffffffffffffff161480610ec25750610ec18185610bf2565b5b80610f0057508373ffffffffffffffffffffffffffffffffffffffff16610ee884610435565b73ffffffffffffffffffffffffffffffffffffffff16145b91505092915050565b8273ffffffffffffffffffffffffffffffffffffffff16610f2982610613565b73ffffffffffffffffffffffffffffffffffffffff1614610f7f576040517f08c379a0000000000000000000000000000000000000000000000000000000008152600401610f7690612674565b60405180910390fd5b600073ffffffffffffffffffffffffffffffffffffffff168273ffffffffffffffffffffffffffffffffffffffff161415610fef576040517f08c379a0000000000000000000000000000000000000000000000000000000008152600401610fe6906126b4565b60405180910390fd5b610ffc8383836001611669565b8273ffffffffffffffffffffffffffffffffffffffff1661101c82610613565b73ffffffffffffffffffffffffffffffffffffffff1614611072576040517f08c379a000000000000000000000000000000000000000000000000000000000815260040161106990612674565b60405180910390fd5b6004600082815260200190815260200160002060006101000a81549073ffffffffffffffffffffffffffffffffffffffff02191690556001600360008573ffffffffffffffffffffffffffffffffffffffff1673ffffffffffffffffffffffffffffffffffffffff168152602001908152602001600020600082825403925050819055506001600360008473ffffffffffffffffffffffffffffffffffffffff1673ffffffffffffffffffffffffffffffffffffffff16815260200190815260200160002060008282540192505081905550816002600083815260200190815260200160002060006101000a81548173ffffffffffffffffffffffffffffffffffffffff021916908373ffffffffffffffffffffffffffffffffffffffff160217905550808273ffffffffffffffffffffffffffffffffffffffff168473ffffffffffffffffffffffffffffffffffffffff167fddf252ad1be2c89b69c2b068fc378daa952ba7f163c4a11628f55a4df523b3ef60405160405180910390a46111fe838383600161166f565b505050565b60006002600083815260200190815260200160002060009054906101000a900473ffffffffffffffffffffffffffffffffffffffff169050919050565b8173ffffffffffffffffffffffffffffffffffffffff168373ffffffffffffffffffffffffffffffffffffffff1614156112af576040517f08c379a00000000000000000000000000000000000000000000000000000000081526004016112a6906126d4565b60405180910390fd5b80600560008573ffffffffffffffffffffffffffffffffffffffff1673ffffffffffffffffffffffffffffffffffffffff16815260200190815260200160002060008473ffffffffffffffffffffffffffffffffffffffff1673ffffffffffffffffffffffffffffffffffffffff16815260200190815260200160002060006101000a81548160ff0219169083151502179055508173ffffffffffffffffffffffffffffffffffffffff168373ffffffffffffffffffffffffffffffffffffffff167f17307eab39ab6107e8899845ad3d59bd9653f200f220920489ca2b5937696c31836040516113a091906125d7565b60405180910390a3505050565b6001816000016000828254019250508190555050565b600081600001549050919050565b6113eb828260405180602001604052806000815250611675565b5050565b60606113fe82602001516116d0565b61140b83604001516116d0565b83606001516040516020016114229392919061251e565b6040516020818303038152906040529050919050565b61144182611628565b611480576040517f08c379a000000000000000000000000000000000000000000000000000000000815260040161147790612714565b60405180910390fd5b806006600084815260200190815260200160002090805190602001906114a7929190611e03565b507ff8e1a15aba9398e019f0b49df1a4fde98ee17ae345cb5f6b5e2c27f5033e8ce7826040516114d791906127b4565b60405180910390a15050565b6114ee848484610f09565b6114fa848484846117f4565b611539576040517f08c379a000000000000000000000000000000000000000000000000000000000815260040161153090612654565b60405180910390fd5b50505050565b606060405180602001604052806000815250905090565b606061156182610d68565b600061156b61153f565b9050600081511161158b57604051806020016040528060008152506115b6565b80611595846116d0565b6040516020016115a69291906124fa565b6040516020818303038152906040525b915050919050565b60007f01ffc9a7000000000000000000000000000000000000000000000000000000007bffffffffffffffffffffffffffffffffffffffffffffffffffffffff1916827bffffffffffffffffffffffffffffffffffffffffffffffffffffffff1916149050919050565b60008073ffffffffffffffffffffffffffffffffffffffff1661164a83611203565b73ffffffffffffffffffffffffffffffffffffffff1614159050919050565b50505050565b50505050565b61167f838361198b565b61168c60008484846117f4565b6116cb576040517f08c379a00000000000000000000000000000000000000000000000000000000081526004016116c290612654565b60405180910390fd5b505050565b6060600060016116df84611ba9565b01905060008167ffffffffffffffff811115611724577f4e487b7100000000000000000000000000000000000000000000000000000000600052604160045260246000fd5b6040519080825280601f01601f1916602001820160405280156117565781602001600182028036833780820191505090505b509050600082602001820190505b6001156117e9578080600190039150507f3031323334353637383961626364656600000000000000000000000000000000600a86061a8153600a85816117d3577f4e487b7100000000000000000000000000000000000000000000000000000000600052601260045260246000fd5b04945060008514156117e4576117e9565b611764565b819350505050919050565b60006118158473ffffffffffffffffffffffffffffffffffffffff16611de0565b1561197e578373ffffffffffffffffffffffffffffffffffffffff1663150b7a0261183e610db3565b8786866040518563ffffffff1660e01b8152600401611860949392919061258b565b602060405180830381600087803b15801561187a57600080fd5b505af19250505080156118ab57506040513d601f19601f820116820180604052508101906118a89190612185565b60015b61192e573d80600081146118db576040519150601f19603f3d011682016040523d82523d6000602084013e6118e0565b606091505b50600081511415611926576040517f08c379a000000000000000000000000000000000000000000000000000000000815260040161191d90612654565b60405180910390fd5b805181602001fd5b63150b7a0260e01b7bffffffffffffffffffffffffffffffffffffffffffffffffffffffff1916817bffffffffffffffffffffffffffffffffffffffffffffffffffffffff191614915050611983565b600190505b949350505050565b600073ffffffffffffffffffffffffffffffffffffffff168273ffffffffffffffffffffffffffffffffffffffff1614156119fb576040517f08c379a00000000000000000000000000000000000000000000000000000000081526004016119f290612734565b60405180910390fd5b611a0481611628565b15611a44576040517f08c379a0000000000000000000000000000000000000000000000000000000008152600401611a3b90612694565b60405180910390fd5b611a52600083836001611669565b611a5b81611628565b15611a9b576040517f08c379a0000000000000000000000000000000000000000000000000000000008152600401611a9290612694565b60405180910390fd5b6001600360008473ffffffffffffffffffffffffffffffffffffffff1673ffffffffffffffffffffffffffffffffffffffff16815260200190815260200160002060008282540192505081905550816002600083815260200190815260200160002060006101000a81548173ffffffffffffffffffffffffffffffffffffffff021916908373ffffffffffffffffffffffffffffffffffffffff160217905550808273ffffffffffffffffffffffffffffffffffffffff16600073ffffffffffffffffffffffffffffffffffffffff167fddf252ad1be2c89b69c2b068fc378daa952ba7f163c4a11628f55a4df523b3ef60405160405180910390a4611ba560008383600161166f565b5050565b600080600090507a184f03e93ff9f4daa797ed6e38ed64bf6a1f0100000000000000008310611c2d577a184f03e93ff9f4daa797ed6e38ed64bf6a1f0100000000000000008381611c23577f4e487b7100000000000000000000000000000000000000000000000000000000600052601260045260246000fd5b0492506040810190505b6d04ee2d6d415b85acef81000000008310611c90576d04ee2d6d415b85acef81000000008381611c86577f4e487b7100000000000000000000000000000000000000000000000000000000600052601260045260246000fd5b0492506020810190505b662386f26fc100008310611ce557662386f26fc100008381611cdb577f4e487b7100000000000000000000000000000000000000000000000000000000600052601260045260246000fd5b0492506010810190505b6305f5e1008310611d34576305f5e1008381611d2a577f4e487b7100000000000000000000000000000000000000000000000000000000600052601260045260246000fd5b0492506008810190505b6127108310611d7f576127108381611d75577f4e487b7100000000000000000000000000000000000000000000000000000000600052601260045260246000fd5b0492506004810190505b60648310611dc85760648381611dbe577f4e487b7100000000000000000000000000000000000000000000000000000000600052601260045260246000fd5b0492506002810190505b600a8310611dd7576001810190505b80915050919050565b6000808273ffffffffffffffffffffffffffffffffffffffff163b119050919050565b828054611e0f9061294c565b90600052602060002090601f016020900481019282611e315760008555611e78565b82601f10611e4a57805160ff1916838001178555611e78565b82800160010185558215611e78579182015b82811115611e77578251825591602001919060010190611e5c565b5b509050611e859190611e89565b5090565b5b80821115611ea2576000816000905550600101611e8a565b5090565b6000611eb9611eb484612822565b6127fd565b905082815260208101848484011115611ed157600080fd5b611edc84828561290a565b509392505050565b600081359050611ef381612e07565b92915050565b600081519050611f0881612e07565b92915050565b600081359050611f1d81612e1e565b92915050565b600081359050611f3281612e35565b92915050565b600081519050611f4781612e35565b92915050565b600082601f830112611f5e57600080fd5b8135611f6e848260208601611ea6565b91505092915050565b600081359050611f8681612e4c565b92915050565b600060208284031215611f9e57600080fd5b6000611fac84828501611ee4565b91505092915050565b600060208284031215611fc757600080fd5b6000611fd584828501611ef9565b91505092915050565b60008060408385031215611ff157600080fd5b6000611fff85828601611ee4565b925050602061201085828601611ee4565b9150509250929050565b60008060006060848603121561202f57600080fd5b600061203d86828701611ee4565b935050602061204e86828701611ee4565b925050604061205f86828701611f77565b9150509250925092565b6000806000806080858703121561207f57600080fd5b600061208d87828801611ee4565b945050602061209e87828801611ee4565b93505060406120af87828801611f77565b925050606085013567ffffffffffffffff8111156120cc57600080fd5b6120d887828801611f4d565b91505092959194509250565b600080604083850312156120f757600080fd5b600061210585828601611ee4565b925050602061211685828601611f0e565b9150509250929050565b6000806040838503121561213357600080fd5b600061214185828601611ee4565b925050602061215285828601611f77565b9150509250929050565b60006020828403121561216e57600080fd5b600061217c84828501611f23565b91505092915050565b60006020828403121561219757600080fd5b60006121a584828501611f38565b91505092915050565b6000602082840312156121c057600080fd5b60006121ce84828501611f77565b91505092915050565b6121e081612896565b82525050565b6121ef816128a8565b82525050565b600061220082612853565b61220a8185612869565b935061221a818560208601612919565b61222381612a0d565b840191505092915050565b60006122398261285e565b612243818561287a565b9350612253818560208601612919565b61225c81612a0d565b840191505092915050565b60006122728261285e565b61227c818561288b565b935061228c818560208601612919565b80840191505092915050565b60006122a560098361288b565b91506122b082612a1e565b600982019050919050565b60006122c8602d8361287a565b91506122d382612a47565b604082019050919050565b60006122eb601b8361287a565b91506122f682612a96565b602082019050919050565b600061230e60328361287a565b915061231982612abf565b604082019050919050565b600061233160258361287a565b915061233c82612b0e565b604082019050919050565b6000612354601c8361287a565b915061235f82612b5d565b602082019050919050565b600061237760248361287a565b915061238282612b86565b604082019050919050565b600061239a60198361287a565b91506123a582612bd5565b602082019050919050565b60006123bd60298361287a565b91506123c882612bfe565b604082019050919050565b60006123e0602e8361287a565b91506123eb82612c4d565b604082019050919050565b600061240360108361288b565b915061240e82612c9c565b601082019050919050565b600061242660208361287a565b915061243182612cc5565b602082019050919050565b6000612449600e8361288b565b915061245482612cee565b600e82019050919050565b600061246c60188361287a565b915061247782612d17565b602082019050919050565b600061248f60218361287a565b915061249a82612d40565b604082019050919050565b60006124b2603d8361287a565b91506124bd82612d8f565b604082019050919050565b60006124d5600e8361287a565b91506124e082612dde565b602082019050919050565b6124f481612900565b82525050565b60006125068285612267565b91506125128284612267565b91508190509392505050565b6000612529826123f6565b91506125358286612267565b91506125408261243c565b915061254c8285612267565b915061255782612298565b91506125638284612267565b9150819050949350505050565b600060208201905061258560008301846121d7565b92915050565b60006080820190506125a060008301876121d7565b6125ad60208301866121d7565b6125ba60408301856124eb565b81810360608301526125cc81846121f5565b905095945050505050565b60006020820190506125ec60008301846121e6565b92915050565b6000602082019050818103600083015261260c818461222e565b905092915050565b6000602082019050818103600083015261262d816122bb565b9050919050565b6000602082019050818103600083015261264d816122de565b9050919050565b6000602082019050818103600083015261266d81612301565b9050919050565b6000602082019050818103600083015261268d81612324565b9050919050565b600060208201905081810360008301526126ad81612347565b9050919050565b600060208201905081810360008301526126cd8161236a565b9050919050565b600060208201905081810360008301526126ed8161238d565b9050919050565b6000602082019050818103600083015261270d816123b0565b9050919050565b6000602082019050818103600083015261272d816123d3565b9050919050565b6000602082019050818103600083015261274d81612419565b9050919050565b6000602082019050818103600083015261276d8161245f565b9050919050565b6000602082019050818103600083015261278d81612482565b9050919050565b600060208201905081810360008301526127ad816124a5565b9050919050565b60006020820190506127c960008301846124eb565b92915050565b60006040820190506127e460008301846124eb565b81810360208301526127f5816124c8565b905092915050565b6000612807612818565b9050612813828261297e565b919050565b6000604051905090565b600067ffffffffffffffff82111561283d5761283c6129de565b5b61284682612a0d565b9050602081019050919050565b600081519050919050565b600081519050919050565b600082825260208201905092915050565b600082825260208201905092915050565b600081905092915050565b60006128a1826128e0565b9050919050565b60008115159050919050565b60007fffffffff0000000000000000000000000000000000000000000000000000000082169050919050565b600073ffffffffffffffffffffffffffffffffffffffff82169050919050565b6000819050919050565b82818337600083830152505050565b60005b8381101561293757808201518184015260208101905061291c565b83811115612946576000848401525b50505050565b6000600282049050600182168061296457607f821691505b60208210811415612978576129776129af565b5b50919050565b61298782612a0d565b810181811067ffffffffffffffff821117156129a6576129a56129de565b5b80604052505050565b7f4e487b7100000000000000000000000000000000000000000000000000000000600052602260045260246000fd5b7f4e487b7100000000000000000000000000000000000000000000000000000000600052604160045260246000fd5b6000601f19601f8301169050919050565b7f6d657373616765203a0000000000000000000000000000000000000000000000600082015250565b7f4552433732313a2063616c6c6572206973206e6f7420746f6b656e206f776e6560008201527f72206f7220617070726f76656400000000000000000000000000000000000000602082015250565b7f517565727920666f72206e6f6e6578697374656e7420746f6b656e0000000000600082015250565b7f4552433732313a207472616e7366657220746f206e6f6e20455243373231526560008201527f63656976657220696d706c656d656e7465720000000000000000000000000000602082015250565b7f4552433732313a207472616e736665722066726f6d20696e636f72726563742060008201527f6f776e6572000000000000000000000000000000000000000000000000000000602082015250565b7f4552433732313a20746f6b656e20616c7265616479206d696e74656400000000600082015250565b7f4552433732313a207472616e7366657220746f20746865207a65726f2061646460008201527f7265737300000000000000000000000000000000000000000000000000000000602082015250565b7f4552433732313a20617070726f766520746f2063616c6c657200000000000000600082015250565b7f4552433732313a2061646472657373207a65726f206973206e6f74206120766160008201527f6c6964206f776e65720000000000000000000000000000000000000000000000602082015250565b7f45524337323155524953746f726167653a2055524920736574206f66206e6f6e60008201527f6578697374656e7420746f6b656e000000000000000000000000000000000000602082015250565b7f416d6f756e7420436c65617265643a2000000000000000000000000000000000600082015250565b7f4552433732313a206d696e7420746f20746865207a65726f2061646472657373600082015250565b7f2c20436c6561726564204f6e3a20000000000000000000000000000000000000600082015250565b7f4552433732313a20696e76616c696420746f6b656e2049440000000000000000600082015250565b7f4552433732313a20617070726f76616c20746f2063757272656e74206f776e6560008201527f7200000000000000000000000000000000000000000000000000000000000000602082015250565b7f4552433732313a20617070726f76652063616c6c6572206973206e6f7420746f60008201527f6b656e206f776e6572206f7220617070726f76656420666f7220616c6c000000602082015250565b7f416c6c20736574746c6564207570000000000000000000000000000000000000600082015250565b612e1081612896565b8114612e1b57600080fd5b50565b612e27816128a8565b8114612e3257600080fd5b50565b612e3e816128b4565b8114612e4957600080fd5b50565b612e5581612900565b8114612e6057600080fd5b5056fea26469706673582212204900112158eecfeca7f4fb16f196e434d00201556891f4e8a80b9447cdb250df64736f6c63430008010033",
  "immutableReferences": {},
  "source": "// SPDX-License-Identifier: MIT\npragma solidity ^0.8.0;\n\nimport \"@openzeppelin/contracts/token/ERC721/extensions/ERC721URIStorage.sol\";\nimport \"@openzeppelin/contracts/utils/Counters.sol\";\nimport \"@openzeppelin/contracts/utils/Strings.sol\";\n\ncontract DebtStatusTokens is ERC721URIStorage {\n    using Counters for Counters.Counter;\n    Counters.Counter private _tokenIds;\n\n    struct DebtClearance {\n        address contributor;\n        uint256 amountCleared;\n        uint256 clearedOn;\n        string  message;\n    }\n\n    // Define events\n    event TokenMinted(address indexed recipient, uint256 tokenId, string tokenType);\n    mapping(uint256 => DebtClearance) private _debtClearanceDetails;\n\n    constructor() ERC721(\"Debt Status Tokens\", \"DST\") {}\n\n    // Function to construct a token URI from debt clearance details\n    function constructTokenURI(DebtClearance memory debtDetails) private pure returns (string memory) {\n        return string(abi.encodePacked(\n            \"Amount Cleared: \", Strings.toString(debtDetails.amountCleared),\n            \", Cleared On: \", Strings.toString(debtDetails.clearedOn),\n            \"message :\",debtDetails.message\n        ));\n    }\n\n\n    // Internal function to issue a new NFT token\n    function _issueDebtClearedToken(address recipient, address erc1155ContractAddress, uint256 amountCleared) external returns (uint256) {\n           DebtClearance memory debtDetails = DebtClearance({\n            contributor: recipient,\n            amountCleared: amountCleared,\n            clearedOn: block.timestamp,\n            message:\"All Settled Up\"\n        });\n        \n        _tokenIds.increment();\n        uint256 newTokenId = _tokenIds.current();\n        _safeMint(recipient, newTokenId);\n        string memory debtDetailsURI = constructTokenURI(debtDetails);\n        _setTokenURI(newTokenId, debtDetailsURI);\n        _debtClearanceDetails[newTokenId]=debtDetails;\n        emit TokenMinted(recipient, newTokenId, \"All settled up\");\n         if (!isApprovedForAll(recipient, erc1155ContractAddress)) {\n            _setApprovalForAll(recipient, erc1155ContractAddress, true);\n        }\n        return newTokenId;\n    }\n\n    function getDebtClearedDetails(uint256 tokenId) external view returns (string memory) {\n        try this.ownerOf(tokenId) returns (address) {\n            return tokenURI(tokenId);\n        } catch {\n            revert(\"Query for nonexistent token\");\n        }\n    }\n}\n\n/*\n0x5B38Da6a701c568545dCfcB03FcB875f56beddC4\n0xAb8483F64d9C6d1EcF9b849Ae677dD3315835cb2\n0x4B20993Bc481177ec7E8f571ceCaE8A9e22C02db\n*/",
  "sourcePath": "/Users/srivenkat/Documents/Block Chain/splitwise_app_deployment/contracts/DebtStatusTokens.sol",
  "compiler": {
    "name": "solc",
    "version": "0.8.1+commit.df193b15.Emscripten.clang"
  },
  "schemaVersion": "3.4.16",
  "updatedAt": "2023-12-04T02:47:32.946Z",
  "networkType": "ethereum",
  "devdoc": {
    "kind": "dev",
    "methods": {
      "approve(address,uint256)": {
        "details": "See {IERC721-approve}."
      },
      "balanceOf(address)": {
        "details": "See {IERC721-balanceOf}."
      },
      "getApproved(uint256)": {
        "details": "See {IERC721-getApproved}."
      },
      "isApprovedForAll(address,address)": {
        "details": "See {IERC721-isApprovedForAll}."
      },
      "name()": {
        "details": "See {IERC721Metadata-name}."
      },
      "ownerOf(uint256)": {
        "details": "See {IERC721-ownerOf}."
      },
      "safeTransferFrom(address,address,uint256)": {
        "details": "See {IERC721-safeTransferFrom}."
      },
      "safeTransferFrom(address,address,uint256,bytes)": {
        "details": "See {IERC721-safeTransferFrom}."
      },
      "setApprovalForAll(address,bool)": {
        "details": "See {IERC721-setApprovalForAll}."
      },
      "supportsInterface(bytes4)": {
        "details": "See {IERC165-supportsInterface}"
      },
      "symbol()": {
        "details": "See {IERC721Metadata-symbol}."
      },
      "tokenURI(uint256)": {
        "details": "See {IERC721Metadata-tokenURI}."
      },
      "transferFrom(address,address,uint256)": {
        "details": "See {IERC721-transferFrom}."
      }
    },
    "version": 1
  },
  "userdoc": {
    "kind": "user",
    "methods": {},
    "version": 1
  }
}