{
  "contractName": "ExpenseSplit",
  "abi": [
    {
      "inputs": [
        {
          "internalType": "address",
          "name": "_debtStatusTokensAddress",
          "type": "address"
        },
        {
          "internalType": "address",
          "name": "_SharedFundsTokensAddress",
          "type": "address"
        }
      ],
      "stateMutability": "nonpayable",
      "type": "constructor"
    },
    {
      "anonymous": false,
      "inputs": [
        {
          "indexed": true,
          "internalType": "address",
          "name": "account",
          "type": "address"
        },
        {
          "indexed": true,
          "internalType": "address",
          "name": "operator",
          "type": "address"
        },
        {
          "indexed": false,
          "internalType": "bool",
          "name": "approved",
          "type": "bool"
        }
      ],
      "name": "ApprovalForAll",
      "type": "event"
    },
    {
      "anonymous": false,
      "inputs": [
        {
          "indexed": true,
          "internalType": "address",
          "name": "debtor",
          "type": "address"
        },
        {
          "indexed": false,
          "internalType": "uint256",
          "name": "amount",
          "type": "uint256"
        }
      ],
      "name": "DebtAdded",
      "type": "event"
    },
    {
      "anonymous": false,
      "inputs": [
        {
          "indexed": true,
          "internalType": "address",
          "name": "debtor",
          "type": "address"
        },
        {
          "indexed": false,
          "internalType": "uint256",
          "name": "amount",
          "type": "uint256"
        }
      ],
      "name": "DebtCleared",
      "type": "event"
    },
    {
      "anonymous": false,
      "inputs": [
        {
          "indexed": true,
          "internalType": "address",
          "name": "debtor",
          "type": "address"
        },
        {
          "indexed": false,
          "internalType": "uint256",
          "name": "TokenId",
          "type": "uint256"
        }
      ],
      "name": "NFTTransfer",
      "type": "event"
    },
    {
      "anonymous": false,
      "inputs": [
        {
          "indexed": true,
          "internalType": "address",
          "name": "operator",
          "type": "address"
        },
        {
          "indexed": true,
          "internalType": "address",
          "name": "from",
          "type": "address"
        },
        {
          "indexed": true,
          "internalType": "address",
          "name": "to",
          "type": "address"
        },
        {
          "indexed": false,
          "internalType": "uint256[]",
          "name": "ids",
          "type": "uint256[]"
        },
        {
          "indexed": false,
          "internalType": "uint256[]",
          "name": "values",
          "type": "uint256[]"
        }
      ],
      "name": "TransferBatch",
      "type": "event"
    },
    {
      "anonymous": false,
      "inputs": [
        {
          "indexed": true,
          "internalType": "address",
          "name": "operator",
          "type": "address"
        },
        {
          "indexed": true,
          "internalType": "address",
          "name": "from",
          "type": "address"
        },
        {
          "indexed": true,
          "internalType": "address",
          "name": "to",
          "type": "address"
        },
        {
          "indexed": false,
          "internalType": "uint256",
          "name": "id",
          "type": "uint256"
        },
        {
          "indexed": false,
          "internalType": "uint256",
          "name": "value",
          "type": "uint256"
        }
      ],
      "name": "TransferSingle",
      "type": "event"
    },
    {
      "anonymous": false,
      "inputs": [
        {
          "indexed": false,
          "internalType": "string",
          "name": "value",
          "type": "string"
        },
        {
          "indexed": true,
          "internalType": "uint256",
          "name": "id",
          "type": "uint256"
        }
      ],
      "name": "URI",
      "type": "event"
    },
    {
      "inputs": [
        {
          "internalType": "address",
          "name": "",
          "type": "address"
        },
        {
          "internalType": "address",
          "name": "",
          "type": "address"
        }
      ],
      "name": "NftDetails",
      "outputs": [
        {
          "internalType": "uint256",
          "name": "",
          "type": "uint256"
        }
      ],
      "stateMutability": "view",
      "type": "function",
      "constant": true
    },
    {
      "inputs": [],
      "name": "OFFSET",
      "outputs": [
        {
          "internalType": "uint256",
          "name": "",
          "type": "uint256"
        }
      ],
      "stateMutability": "view",
      "type": "function",
      "constant": true
    },
    {
      "inputs": [],
      "name": "WRAPPED_SHARED_FUNDS_ID",
      "outputs": [
        {
          "internalType": "uint256",
          "name": "",
          "type": "uint256"
        }
      ],
      "stateMutability": "view",
      "type": "function",
      "constant": true
    },
    {
      "inputs": [
        {
          "internalType": "address",
          "name": "account",
          "type": "address"
        },
        {
          "internalType": "uint256",
          "name": "id",
          "type": "uint256"
        }
      ],
      "name": "balanceOf",
      "outputs": [
        {
          "internalType": "uint256",
          "name": "",
          "type": "uint256"
        }
      ],
      "stateMutability": "view",
      "type": "function",
      "constant": true
    },
    {
      "inputs": [
        {
          "internalType": "address[]",
          "name": "accounts",
          "type": "address[]"
        },
        {
          "internalType": "uint256[]",
          "name": "ids",
          "type": "uint256[]"
        }
      ],
      "name": "balanceOfBatch",
      "outputs": [
        {
          "internalType": "uint256[]",
          "name": "",
          "type": "uint256[]"
        }
      ],
      "stateMutability": "view",
      "type": "function",
      "constant": true
    },
    {
      "inputs": [
        {
          "internalType": "address",
          "name": "",
          "type": "address"
        },
        {
          "internalType": "address",
          "name": "",
          "type": "address"
        }
      ],
      "name": "debts",
      "outputs": [
        {
          "internalType": "uint256",
          "name": "",
          "type": "uint256"
        }
      ],
      "stateMutability": "view",
      "type": "function",
      "constant": true
    },
    {
      "inputs": [
        {
          "internalType": "uint256",
          "name": "",
          "type": "uint256"
        }
      ],
      "name": "erc1155ToErc721",
      "outputs": [
        {
          "internalType": "uint256",
          "name": "",
          "type": "uint256"
        }
      ],
      "stateMutability": "view",
      "type": "function",
      "constant": true
    },
    {
      "inputs": [
        {
          "internalType": "uint256",
          "name": "",
          "type": "uint256"
        }
      ],
      "name": "expenses",
      "outputs": [
        {
          "internalType": "address",
          "name": "creditor",
          "type": "address"
        },
        {
          "internalType": "string",
          "name": "purpose",
          "type": "string"
        },
        {
          "internalType": "uint256",
          "name": "amount",
          "type": "uint256"
        },
        {
          "internalType": "uint256",
          "name": "share",
          "type": "uint256"
        }
      ],
      "stateMutability": "view",
      "type": "function",
      "constant": true
    },
    {
      "inputs": [],
      "name": "expensesLength",
      "outputs": [
        {
          "internalType": "uint256",
          "name": "",
          "type": "uint256"
        }
      ],
      "stateMutability": "view",
      "type": "function",
      "constant": true
    },
    {
      "inputs": [
        {
          "internalType": "address",
          "name": "account",
          "type": "address"
        },
        {
          "internalType": "address",
          "name": "operator",
          "type": "address"
        }
      ],
      "name": "isApprovedForAll",
      "outputs": [
        {
          "internalType": "bool",
          "name": "",
          "type": "bool"
        }
      ],
      "stateMutability": "view",
      "type": "function",
      "constant": true
    },
    {
      "inputs": [
        {
          "internalType": "address",
          "name": "from",
          "type": "address"
        },
        {
          "internalType": "address",
          "name": "to",
          "type": "address"
        },
        {
          "internalType": "uint256[]",
          "name": "ids",
          "type": "uint256[]"
        },
        {
          "internalType": "uint256[]",
          "name": "amounts",
          "type": "uint256[]"
        },
        {
          "internalType": "bytes",
          "name": "data",
          "type": "bytes"
        }
      ],
      "name": "safeBatchTransferFrom",
      "outputs": [],
      "stateMutability": "nonpayable",
      "type": "function"
    },
    {
      "inputs": [
        {
          "internalType": "address",
          "name": "from",
          "type": "address"
        },
        {
          "internalType": "address",
          "name": "to",
          "type": "address"
        },
        {
          "internalType": "uint256",
          "name": "id",
          "type": "uint256"
        },
        {
          "internalType": "uint256",
          "name": "amount",
          "type": "uint256"
        },
        {
          "internalType": "bytes",
          "name": "data",
          "type": "bytes"
        }
      ],
      "name": "safeTransferFrom",
      "outputs": [],
      "stateMutability": "nonpayable",
      "type": "function"
    },
    {
      "inputs": [
        {
          "internalType": "address",
          "name": "operator",
          "type": "address"
        },
        {
          "internalType": "bool",
          "name": "approved",
          "type": "bool"
        }
      ],
      "name": "setApprovalForAll",
      "outputs": [],
      "stateMutability": "nonpayable",
      "type": "function"
    },
    {
      "inputs": [
        {
          "internalType": "bytes4",
          "name": "interfaceId",
          "type": "bytes4"
        }
      ],
      "name": "supportsInterface",
      "outputs": [
        {
          "internalType": "bool",
          "name": "",
          "type": "bool"
        }
      ],
      "stateMutability": "view",
      "type": "function",
      "constant": true
    },
    {
      "inputs": [
        {
          "internalType": "uint256",
          "name": "",
          "type": "uint256"
        }
      ],
      "name": "uri",
      "outputs": [
        {
          "internalType": "string",
          "name": "",
          "type": "string"
        }
      ],
      "stateMutability": "view",
      "type": "function",
      "constant": true
    },
    {
      "inputs": [],
      "name": "getExpensesCount",
      "outputs": [
        {
          "internalType": "uint256",
          "name": "",
          "type": "uint256"
        }
      ],
      "stateMutability": "view",
      "type": "function",
      "constant": true
    },
    {
      "inputs": [],
      "name": "getSharedToken",
      "outputs": [
        {
          "internalType": "contract SharedFunds",
          "name": "",
          "type": "address"
        }
      ],
      "stateMutability": "view",
      "type": "function",
      "constant": true
    },
    {
      "inputs": [
        {
          "internalType": "address",
          "name": "p1",
          "type": "address"
        },
        {
          "internalType": "address",
          "name": "p2",
          "type": "address"
        }
      ],
      "name": "getNFTDetails",
      "outputs": [
        {
          "internalType": "uint256",
          "name": "",
          "type": "uint256"
        }
      ],
      "stateMutability": "view",
      "type": "function",
      "constant": true
    },
    {
      "inputs": [
        {
          "internalType": "address",
          "name": "p1",
          "type": "address"
        },
        {
          "internalType": "address",
          "name": "p2",
          "type": "address"
        }
      ],
      "name": "getAmountOwed",
      "outputs": [
        {
          "internalType": "uint256",
          "name": "",
          "type": "uint256"
        }
      ],
      "stateMutability": "view",
      "type": "function",
      "constant": true
    },
    {
      "inputs": [
        {
          "internalType": "uint256",
          "name": "amount",
          "type": "uint256"
        }
      ],
      "name": "wrapSharedFunds",
      "outputs": [],
      "stateMutability": "nonpayable",
      "type": "function"
    },
    {
      "inputs": [
        {
          "internalType": "address",
          "name": "_to",
          "type": "address"
        },
        {
          "internalType": "uint256",
          "name": "amount",
          "type": "uint256"
        }
      ],
      "name": "unwrapSharedFunds",
      "outputs": [],
      "stateMutability": "nonpayable",
      "type": "function"
    },
    {
      "inputs": [
        {
          "internalType": "uint256",
          "name": "erc721TokenId",
          "type": "uint256"
        }
      ],
      "name": "wrapERC721AsERC1155",
      "outputs": [
        {
          "internalType": "uint256",
          "name": "",
          "type": "uint256"
        }
      ],
      "stateMutability": "nonpayable",
      "type": "function"
    },
    {
      "inputs": [
        {
          "internalType": "address",
          "name": "owner",
          "type": "address"
        },
        {
          "internalType": "uint256",
          "name": "erc1155TokenId",
          "type": "uint256"
        }
      ],
      "name": "unwrapERC1155AsERC721",
      "outputs": [],
      "stateMutability": "nonpayable",
      "type": "function"
    },
    {
      "inputs": [
        {
          "internalType": "address",
          "name": "_creditor",
          "type": "address"
        },
        {
          "internalType": "string",
          "name": "_purpose",
          "type": "string"
        },
        {
          "internalType": "uint256",
          "name": "_amount",
          "type": "uint256"
        },
        {
          "internalType": "address[]",
          "name": "_participants",
          "type": "address[]"
        }
      ],
      "name": "recordExpense",
      "outputs": [],
      "stateMutability": "nonpayable",
      "type": "function"
    },
    {
      "inputs": [
        {
          "internalType": "address",
          "name": "_to",
          "type": "address"
        },
        {
          "internalType": "uint256",
          "name": "amount",
          "type": "uint256"
        }
      ],
      "name": "clearDebt",
      "outputs": [],
      "stateMutability": "nonpayable",
      "type": "function"
    },
    {
      "inputs": [
        {
          "internalType": "uint256",
          "name": "tokenId",
          "type": "uint256"
        }
      ],
      "name": "getDebtClearedDetails",
      "outputs": [
        {
          "internalType": "string",
          "name": "",
          "type": "string"
        }
      ],
      "stateMutability": "view",
      "type": "function",
      "constant": true
    },
    {
      "inputs": [
        {
          "internalType": "address",
          "name": "participant",
          "type": "address"
        }
      ],
      "name": "getParticipantAllExpensesDetails",
      "outputs": [
        {
          "internalType": "string[]",
          "name": "",
          "type": "string[]"
        },
        {
          "internalType": "uint256[]",
          "name": "",
          "type": "uint256[]"
        },
        {
          "internalType": "uint256[]",
          "name": "",
          "type": "uint256[]"
        },
        {
          "internalType": "address[]",
          "name": "",
          "type": "address[]"
        },
        {
          "internalType": "address[][]",
          "name": "",
          "type": "address[][]"
        }
      ],
      "stateMutability": "view",
      "type": "function",
      "constant": true
    },
    {
      "inputs": [
        {
          "internalType": "address",
          "name": "_to",
          "type": "address"
        }
      ],
      "name": "totaldebts",
      "outputs": [
        {
          "internalType": "uint256",
          "name": "",
          "type": "uint256"
        },
        {
          "internalType": "uint256",
          "name": "",
          "type": "uint256"
        }
      ],
      "stateMutability": "view",
      "type": "function",
      "constant": true
    },
    {
      "inputs": [],
      "name": "buySharedFundsTokens",
      "outputs": [],
      "stateMutability": "payable",
      "type": "function",
      "payable": true
    }
  ],
  "bytecode": "0x60806040523480156200001157600080fd5b50604051620075dd380380620075dd8339818101604052810190620000379190620010b9565b6040518060400160405280601a81526020017f68747470733a2f2f796f75722d6d657461646174612d75726c2f0000000000008152506200007e81620002de60201b60201c565b5080600360006101000a81548173ffffffffffffffffffffffffffffffffffffffff021916908373ffffffffffffffffffffffffffffffffffffffff16021790555081600460006101000a81548173ffffffffffffffffffffffffffffffffffffffff021916908373ffffffffffffffffffffffffffffffffffffffff1602179055506000600267ffffffffffffffff81111562000145577f4e487b7100000000000000000000000000000000000000000000000000000000600052604160045260246000fd5b604051908082528060200260200182016040528015620001745781602001602082028036833780820191505090505b509050735b38da6a701c568545dcfcb03fcb875f56beddc481600081518110620001c7577f4e487b7100000000000000000000000000000000000000000000000000000000600052603260045260246000fd5b602002602001019073ffffffffffffffffffffffffffffffffffffffff16908173ffffffffffffffffffffffffffffffffffffffff168152505073ab8483f64d9c6d1ecf9b849ae677dd3315835cb28160018151811062000251577f4e487b7100000000000000000000000000000000000000000000000000000000600052603260045260246000fd5b602002602001019073ffffffffffffffffffffffffffffffffffffffff16908173ffffffffffffffffffffffffffffffffffffffff1681525050620002d5336040518060400160405280600f81526020017f53616d706c6520457870656e7365320000000000000000000000000000000000815250606484620002fa60201b60201c565b50505062001928565b8060029080519060200190620002f692919062000f09565b5050565b60008151836200030b91906200147f565b905060006040518060a001604052808773ffffffffffffffffffffffffffffffffffffffff16815260200186815260200185815260200183815260200184815250905083600b60008873ffffffffffffffffffffffffffffffffffffffff1673ffffffffffffffffffffffffffffffffffffffff16815260200190815260200160002060008282546200039f919062001422565b92505081905550600681908060018154018082558091505060019003906000526020600020906005020160009091909190915060008201518160000160006101000a81548173ffffffffffffffffffffffffffffffffffffffff021916908373ffffffffffffffffffffffffffffffffffffffff16021790555060208201518160010190805190602001906200043792919062000f09565b50604082015181600201556060820151816003015560808201518160040190805190602001906200046a92919062000f9a565b5050506200047e816200048660201b60201c565b505050505050565b600060016006805490506200049c9190620014b7565b905060005b8260800151518110156200086957600083608001518281518110620004ef577f4e487b7100000000000000000000000000000000000000000000000000000000600052603260045260246000fd5b60200260200101519050600760008273ffffffffffffffffffffffffffffffffffffffff1673ffffffffffffffffffffffffffffffffffffffff168152602001908152602001600020839080600181540180825580915050600190039060005260206000200160009091909190915055836000015173ffffffffffffffffffffffffffffffffffffffff168173ffffffffffffffffffffffffffffffffffffffff1614620007f1578360600151600860008373ffffffffffffffffffffffffffffffffffffffff1673ffffffffffffffffffffffffffffffffffffffff1681526020019081526020016000206000828254620005ec919062001422565b925050819055508360600151600960008373ffffffffffffffffffffffffffffffffffffffff1673ffffffffffffffffffffffffffffffffffffffff1681526020019081526020016000206000866000015173ffffffffffffffffffffffffffffffffffffffff1673ffffffffffffffffffffffffffffffffffffffff168152602001908152602001600020600082825462000689919062001422565b925050819055506000600460009054906101000a900473ffffffffffffffffffffffffffffffffffffffff1673ffffffffffffffffffffffffffffffffffffffff1663adf2996c833088606001516040518463ffffffff1660e01b8152600401620006f7939291906200126b565b602060405180830381600087803b1580156200071257600080fd5b505af115801562000727573d6000803e3d6000fd5b505050506040513d601f19601f820116820180604052508101906200074d919062001126565b9050600062000762826200086e60201b60201c565b905080600d60008573ffffffffffffffffffffffffffffffffffffffff1673ffffffffffffffffffffffffffffffffffffffff1681526020019081526020016000206000886000015173ffffffffffffffffffffffffffffffffffffffff1673ffffffffffffffffffffffffffffffffffffffff16815260200190815260200160002081905550505062000852565b8360600151600b6000866000015173ffffffffffffffffffffffffffffffffffffffff1673ffffffffffffffffffffffffffffffffffffffff16815260200190815260200160002060008282546200084a9190620014b7565b925050819055505b5080806200086090620015fe565b915050620004a1565b505050565b600080600460009054906101000a900473ffffffffffffffffffffffffffffffffffffffff1673ffffffffffffffffffffffffffffffffffffffff16636352211e846040518263ffffffff1660e01b8152600401620008ce919062001396565b60206040518083038186803b158015620008e757600080fd5b505afa158015620008fc573d6000803e3d6000fd5b505050506040513d601f19601f820116820180604052508101906200092291906200108d565b9050600460009054906101000a900473ffffffffffffffffffffffffffffffffffffffff1673ffffffffffffffffffffffffffffffffffffffff166323b872dd8230866040518463ffffffff1660e01b815260040162000985939291906200126b565b600060405180830381600087803b158015620009a057600080fd5b505af1158015620009b5573d6000803e3d6000fd5b50505050600061271084620009cb919062001422565b9050620009f1828260016040518060200160405280600081525062000a1360201b60201c565b83600c6000838152602001908152602001600020819055508092505050919050565b600073ffffffffffffffffffffffffffffffffffffffff168473ffffffffffffffffffffffffffffffffffffffff16141562000a86576040517f08c379a000000000000000000000000000000000000000000000000000000000815260040162000a7d9062001352565b60405180910390fd5b600062000a9862000bfb60201b60201c565b9050600062000aad8562000c0360201b60201c565b9050600062000ac28562000c0360201b60201c565b905062000adb8360008985858962000ccc60201b60201c565b8460008088815260200190815260200160002060008973ffffffffffffffffffffffffffffffffffffffff1673ffffffffffffffffffffffffffffffffffffffff168152602001908152602001600020600082825462000b3c919062001422565b925050819055508673ffffffffffffffffffffffffffffffffffffffff16600073ffffffffffffffffffffffffffffffffffffffff168473ffffffffffffffffffffffffffffffffffffffff167fc3d58168c5ae7397731d063d5bbf3d657854427343f4c083240f7aacaa2d0f62898960405162000bbc929190620013b3565b60405180910390a462000bdb8360008985858962000cd460201b60201c565b62000bf28360008989898962000cdc60201b60201c565b50505050505050565b600033905090565b60606000600167ffffffffffffffff81111562000c49577f4e487b7100000000000000000000000000000000000000000000000000000000600052604160045260246000fd5b60405190808252806020026020018201604052801562000c785781602001602082028036833780820191505090505b509050828160008151811062000cb7577f4e487b7100000000000000000000000000000000000000000000000000000000600052603260045260246000fd5b60200260200101818152505080915050919050565b505050505050565b505050505050565b62000d088473ffffffffffffffffffffffffffffffffffffffff1662000ee660201b620029611760201c565b1562000ede578373ffffffffffffffffffffffffffffffffffffffff1663f23a6e6187878686866040518663ffffffff1660e01b815260040162000d51959493929190620012a8565b602060405180830381600087803b15801562000d6c57600080fd5b505af192505050801562000da057506040513d601f19601f8201168201806040525081019062000d9d9190620010fa565b60015b62000e525762000daf62001708565b806308c379a0141562000e13575062000dc762001838565b8062000dd4575062000e15565b806040517f08c379a000000000000000000000000000000000000000000000000000000000815260040162000e0a91906200130c565b60405180910390fd5b505b6040517f08c379a000000000000000000000000000000000000000000000000000000000815260040162000e499062001374565b60405180910390fd5b63f23a6e6160e01b7bffffffffffffffffffffffffffffffffffffffffffffffffffffffff1916817bffffffffffffffffffffffffffffffffffffffffffffffffffffffff19161462000edc576040517f08c379a000000000000000000000000000000000000000000000000000000000815260040162000ed39062001330565b60405180910390fd5b505b505050505050565b6000808273ffffffffffffffffffffffffffffffffffffffff163b119050919050565b82805462000f179062001592565b90600052602060002090601f01602090048101928262000f3b576000855562000f87565b82601f1062000f5657805160ff191683800117855562000f87565b8280016001018555821562000f87579182015b8281111562000f8657825182559160200191906001019062000f69565b5b50905062000f96919062001029565b5090565b82805482825590600052602060002090810192821562001016579160200282015b82811115620010155782518260006101000a81548173ffffffffffffffffffffffffffffffffffffffff021916908373ffffffffffffffffffffffffffffffffffffffff1602179055509160200191906001019062000fbb565b5b50905062001025919062001029565b5090565b5b80821115620010445760008160009055506001016200102a565b5090565b6000815190506200105981620018da565b92915050565b6000815190506200107081620018f4565b92915050565b60008151905062001087816200190e565b92915050565b600060208284031215620010a057600080fd5b6000620010b08482850162001048565b91505092915050565b60008060408385031215620010cd57600080fd5b6000620010dd8582860162001048565b9250506020620010f08582860162001048565b9150509250929050565b6000602082840312156200110d57600080fd5b60006200111d848285016200105f565b91505092915050565b6000602082840312156200113957600080fd5b6000620011498482850162001076565b91505092915050565b6200115d81620014f2565b82525050565b60006200117082620013ea565b6200117c818562001400565b93506200118e8185602086016200155c565b62001199816200172d565b840191505092915050565b6000620011b182620013f5565b620011bd818562001411565b9350620011cf8185602086016200155c565b620011da816200172d565b840191505092915050565b6000620011f460288362001411565b915062001201826200174b565b604082019050919050565b60006200121b60218362001411565b915062001228826200179a565b604082019050919050565b60006200124260348362001411565b91506200124f82620017e9565b604082019050919050565b620012658162001552565b82525050565b600060608201905062001282600083018662001152565b62001291602083018562001152565b620012a060408301846200125a565b949350505050565b600060a082019050620012bf600083018862001152565b620012ce602083018762001152565b620012dd60408301866200125a565b620012ec60608301856200125a565b818103608083015262001300818462001163565b90509695505050505050565b60006020820190508181036000830152620013288184620011a4565b905092915050565b600060208201905081810360008301526200134b81620011e5565b9050919050565b600060208201905081810360008301526200136d816200120c565b9050919050565b600060208201905081810360008301526200138f8162001233565b9050919050565b6000602082019050620013ad60008301846200125a565b92915050565b6000604082019050620013ca60008301856200125a565b620013d960208301846200125a565b9392505050565b6000604051905090565b600081519050919050565b600081519050919050565b600082825260208201905092915050565b600082825260208201905092915050565b60006200142f8262001552565b91506200143c8362001552565b9250827fffffffffffffffffffffffffffffffffffffffffffffffffffffffffffffffff038211156200147457620014736200164c565b5b828201905092915050565b60006200148c8262001552565b9150620014998362001552565b925082620014ac57620014ab6200167b565b5b828204905092915050565b6000620014c48262001552565b9150620014d18362001552565b925082821015620014e757620014e66200164c565b5b828203905092915050565b6000620014ff8262001532565b9050919050565b60007fffffffff0000000000000000000000000000000000000000000000000000000082169050919050565b600073ffffffffffffffffffffffffffffffffffffffff82169050919050565b6000819050919050565b60005b838110156200157c5780820151818401526020810190506200155f565b838111156200158c576000848401525b50505050565b60006002820490506001821680620015ab57607f821691505b60208210811415620015c257620015c1620016aa565b5b50919050565b620015d3826200172d565b810181811067ffffffffffffffff82111715620015f557620015f4620016d9565b5b80604052505050565b60006200160b8262001552565b91507fffffffffffffffffffffffffffffffffffffffffffffffffffffffffffffffff8214156200164157620016406200164c565b5b600182019050919050565b7f4e487b7100000000000000000000000000000000000000000000000000000000600052601160045260246000fd5b7f4e487b7100000000000000000000000000000000000000000000000000000000600052601260045260246000fd5b7f4e487b7100000000000000000000000000000000000000000000000000000000600052602260045260246000fd5b7f4e487b7100000000000000000000000000000000000000000000000000000000600052604160045260246000fd5b600060033d11156200172a5760046000803e620017276000516200173e565b90505b90565b6000601f19601f8301169050919050565b60008160e01c9050919050565b7f455243313135353a204552433131353552656365697665722072656a6563746560008201527f6420746f6b656e73000000000000000000000000000000000000000000000000602082015250565b7f455243313135353a206d696e7420746f20746865207a65726f2061646472657360008201527f7300000000000000000000000000000000000000000000000000000000000000602082015250565b7f455243313135353a207472616e7366657220746f206e6f6e2d4552433131353560008201527f526563656976657220696d706c656d656e746572000000000000000000000000602082015250565b600060443d10156200184a57620018d7565b62001854620013e0565b60043d036004823e80513d602482011167ffffffffffffffff821117156200187e575050620018d7565b808201805167ffffffffffffffff8111156200189e5750505050620018d7565b80602083010160043d038501811115620018bd575050505050620018d7565b620018ce82602001850186620015c8565b82955050505050505b90565b620018e581620014f2565b8114620018f157600080fd5b50565b620018ff8162001506565b81146200190b57600080fd5b50565b620019198162001552565b81146200192557600080fd5b50565b615ca580620019386000396000f3fe6080604052600436106101c15760003560e01c80636fb7914f116100f7578063c0174fa311610095578063df62bc3c11610064578063df62bc3c146106ef578063e985e9c5146106f9578063f242432a14610736578063fe9d24cb1461075f576101c1565b8063c0174fa31461060c578063ce665dd814610649578063d0508d8c14610674578063d4d68a92146106b1576101c1565b80639e8898ef116100d15780639e8898ef1461053d578063a22cb4651461057a578063af4afe0a146105a3578063b641e3fc146105e3576101c1565b80636fb7914f146104c057806378974cbb146104e95780639b4e2aa014610512576101c1565b80634ac1c33d1161016457806359847a711161013e57806359847a71146103f057806361e2476a146104195780636a58d5d21461045a5780636ae7d5d014610497576101c1565b80634ac1c33d146103395780634e1273f414610376578063536b5f30146103b3576101c1565b80630daded95116101a05780630daded951461027d5780630e89341c146102a8578063248870cf146102e55780632eb2c2d614610310576101c1565b8062fdd58e146101c657806301ffc9a7146102035780630c18d8c314610240575b600080fd5b3480156101d257600080fd5b506101ed60048036038101906101e891906144b8565b61078a565b6040516101fa9190615135565b60405180910390f35b34801561020f57600080fd5b5061022a60048036038101906102259190614589565b610853565b6040516102379190614e9d565b60405180910390f35b34801561024c57600080fd5b506102676004803603810190610262919061425f565b610935565b6040516102749190615135565b60405180910390f35b34801561028957600080fd5b506102926109bc565b60405161029f9190615135565b60405180910390f35b3480156102b457600080fd5b506102cf60048036038101906102ca919061461c565b6109c9565b6040516102dc9190614ed3565b60405180910390f35b3480156102f157600080fd5b506102fa610a5d565b6040516103079190615135565b60405180910390f35b34801561031c57600080fd5b506103376004803603810190610332919061429b565b610a63565b005b34801561034557600080fd5b50610360600480360381019061035b919061425f565b610b04565b60405161036d9190615135565b60405180910390f35b34801561038257600080fd5b5061039d600480360381019061039891906144f4565b610b29565b6040516103aa9190614e44565b60405180910390f35b3480156103bf57600080fd5b506103da60048036038101906103d5919061461c565b610cda565b6040516103e79190615135565b60405180910390f35b3480156103fc57600080fd5b50610417600480360381019061041291906144b8565b610cf2565b005b34801561042557600080fd5b50610440600480360381019061043b919061420d565b610e3d565b604051610451959493929190614dce565b60405180910390f35b34801561046657600080fd5b50610481600480360381019061047c919061461c565b6114c6565b60405161048e9190615135565b60405180910390f35b3480156104a357600080fd5b506104be60048036038101906104b99190614425565b611657565b005b3480156104cc57600080fd5b506104e760048036038101906104e2919061461c565b6117d3565b005b3480156104f557600080fd5b50610510600480360381019061050b91906144b8565b6118e2565b005b34801561051e57600080fd5b5061052761230c565b6040516105349190614eb8565b60405180910390f35b34801561054957600080fd5b50610564600480360381019061055f919061425f565b612336565b6040516105719190615135565b60405180910390f35b34801561058657600080fd5b506105a1600480360381019061059c91906143e9565b6123bd565b005b3480156105af57600080fd5b506105ca60048036038101906105c5919061461c565b6123d3565b6040516105da9493929190614d59565b60405180910390f35b3480156105ef57600080fd5b5061060a600480360381019061060591906144b8565b6124bb565b005b34801561061857600080fd5b50610633600480360381019061062e919061425f565b612627565b6040516106409190615135565b60405180910390f35b34801561065557600080fd5b5061065e61264c565b60405161066b9190615135565b60405180910390f35b34801561068057600080fd5b5061069b6004803603810190610696919061461c565b612652565b6040516106a89190614ed3565b60405180910390f35b3480156106bd57600080fd5b506106d860048036038101906106d3919061420d565b61270b565b6040516106e6929190615150565b60405180910390f35b6106f7612797565b005b34801561070557600080fd5b50610720600480360381019061071b919061425f565b612827565b60405161072d9190614e9d565b60405180910390f35b34801561074257600080fd5b5061075d6004803603810190610758919061435a565b6128bb565b005b34801561076b57600080fd5b5061077461295c565b6040516107819190615135565b60405180910390f35b60008073ffffffffffffffffffffffffffffffffffffffff168373ffffffffffffffffffffffffffffffffffffffff1614156107fb576040517f08c379a00000000000000000000000000000000000000000000000000000000081526004016107f290614f55565b60405180910390fd5b60008083815260200190815260200160002060008473ffffffffffffffffffffffffffffffffffffffff1673ffffffffffffffffffffffffffffffffffffffff16815260200190815260200160002054905092915050565b60007fd9b67a26000000000000000000000000000000000000000000000000000000007bffffffffffffffffffffffffffffffffffffffffffffffffffffffff1916827bffffffffffffffffffffffffffffffffffffffffffffffffffffffff1916148061091e57507f0e89341c000000000000000000000000000000000000000000000000000000007bffffffffffffffffffffffffffffffffffffffffffffffffffffffff1916827bffffffffffffffffffffffffffffffffffffffffffffffffffffffff1916145b8061092e575061092d82612984565b5b9050919050565b6000600960008473ffffffffffffffffffffffffffffffffffffffff1673ffffffffffffffffffffffffffffffffffffffff16815260200190815260200160002060008373ffffffffffffffffffffffffffffffffffffffff1673ffffffffffffffffffffffffffffffffffffffff16815260200190815260200160002054905092915050565b6000600680549050905090565b6060600280546109d89061552b565b80601f0160208091040260200160405190810160405280929190818152602001828054610a049061552b565b8015610a515780601f10610a2657610100808354040283529160200191610a51565b820191906000526020600020905b815481529060010190602001808311610a3457829003601f168201915b50505050509050919050565b60055481565b610a6b6129ee565b73ffffffffffffffffffffffffffffffffffffffff168573ffffffffffffffffffffffffffffffffffffffff161480610ab15750610ab085610aab6129ee565b612827565b5b610af0576040517f08c379a0000000000000000000000000000000000000000000000000000000008152600401610ae790614f75565b60405180910390fd5b610afd85858585856129f6565b5050505050565b6009602052816000526040600020602052806000526040600020600091509150505481565b60608151835114610b6f576040517f08c379a0000000000000000000000000000000000000000000000000000000008152600401610b66906150b5565b60405180910390fd5b6000835167ffffffffffffffff811115610bb2577f4e487b7100000000000000000000000000000000000000000000000000000000600052604160045260246000fd5b604051908082528060200260200182016040528015610be05781602001602082028036833780820191505090505b50905060005b8451811015610ccf57610c79858281518110610c2b577f4e487b7100000000000000000000000000000000000000000000000000000000600052603260045260246000fd5b6020026020010151858381518110610c6c577f4e487b7100000000000000000000000000000000000000000000000000000000600052603260045260246000fd5b602002602001015161078a565b828281518110610cb2577f4e487b7100000000000000000000000000000000000000000000000000000000600052603260045260246000fd5b60200260200101818152505080610cc89061558e565b9050610be6565b508091505092915050565b600c6020528060005260406000206000915090505481565b80610cfe83600161078a565b1015610d3f576040517f08c379a0000000000000000000000000000000000000000000000000000000008152600401610d3690615055565b60405180910390fd5b610d4b82600183612d64565b600360009054906101000a900473ffffffffffffffffffffffffffffffffffffffff1673ffffffffffffffffffffffffffffffffffffffff1663a9059cbb83836040518363ffffffff1660e01b8152600401610da8929190614da5565b602060405180830381600087803b158015610dc257600080fd5b505af1158015610dd6573d6000803e3d6000fd5b505050506040513d601f19601f82011682018060405250810190610dfa9190614560565b610e39576040517f08c379a0000000000000000000000000000000000000000000000000000000008152600401610e3090614f15565b60405180910390fd5b5050565b60608060608060606000600760008873ffffffffffffffffffffffffffffffffffffffff1673ffffffffffffffffffffffffffffffffffffffff168152602001908152602001600020805480602002602001604051908101604052809291908181526020018280548015610ed057602002820191906000526020600020905b815481526020019060010190808311610ebc575b505050505090506000815190506000825167ffffffffffffffff811115610f20577f4e487b7100000000000000000000000000000000000000000000000000000000600052604160045260246000fd5b604051908082528060200260200182016040528015610f5357816020015b6060815260200190600190039081610f3e5790505b5090506000835167ffffffffffffffff811115610f99577f4e487b7100000000000000000000000000000000000000000000000000000000600052604160045260246000fd5b604051908082528060200260200182016040528015610fc75781602001602082028036833780820191505090505b5090506000845167ffffffffffffffff81111561100d577f4e487b7100000000000000000000000000000000000000000000000000000000600052604160045260246000fd5b60405190808252806020026020018201604052801561103b5781602001602082028036833780820191505090505b5090506000855167ffffffffffffffff811115611081577f4e487b7100000000000000000000000000000000000000000000000000000000600052604160045260246000fd5b6040519080825280602002602001820160405280156110af5781602001602082028036833780820191505090505b5090506000865167ffffffffffffffff8111156110f5577f4e487b7100000000000000000000000000000000000000000000000000000000600052604160045260246000fd5b60405190808252806020026020018201604052801561112857816020015b60608152602001906001900390816111135790505b50905060005b868110156114a6576000888281518110611171577f4e487b7100000000000000000000000000000000000000000000000000000000600052603260045260246000fd5b602002602001015190506000600682815481106111b7577f4e487b7100000000000000000000000000000000000000000000000000000000600052603260045260246000fd5b906000526020600020906005020190508060010180546111d69061552b565b80601f01602080910402602001604051908101604052809291908181526020018280546112029061552b565b801561124f5780601f106112245761010080835404028352916020019161124f565b820191906000526020600020905b81548152906001019060200180831161123257829003601f168201915b505050505088848151811061128d577f4e487b7100000000000000000000000000000000000000000000000000000000600052603260045260246000fd5b602002602001018190525080600201548784815181106112d6577f4e487b7100000000000000000000000000000000000000000000000000000000600052603260045260246000fd5b6020026020010181815250508060030154868481518110611320577f4e487b7100000000000000000000000000000000000000000000000000000000600052603260045260246000fd5b6020026020010181815250508060000160009054906101000a900473ffffffffffffffffffffffffffffffffffffffff1685848151811061138a577f4e487b7100000000000000000000000000000000000000000000000000000000600052603260045260246000fd5b602002602001019073ffffffffffffffffffffffffffffffffffffffff16908173ffffffffffffffffffffffffffffffffffffffff16815250508060040180548060200260200160405190810160405280929190818152602001828054801561144857602002820191906000526020600020905b8160009054906101000a900473ffffffffffffffffffffffffffffffffffffffff1673ffffffffffffffffffffffffffffffffffffffff16815260200190600101908083116113fe575b5050505050848481518110611486577f4e487b7100000000000000000000000000000000000000000000000000000000600052603260045260246000fd5b60200260200101819052505050808061149e9061558e565b91505061112e565b5084848484849b509b509b509b509b505050505050505091939590929450565b600080600460009054906101000a900473ffffffffffffffffffffffffffffffffffffffff1673ffffffffffffffffffffffffffffffffffffffff16636352211e846040518263ffffffff1660e01b81526004016115249190615135565b60206040518083038186803b15801561153c57600080fd5b505afa158015611550573d6000803e3d6000fd5b505050506040513d601f19601f820116820180604052508101906115749190614236565b9050600460009054906101000a900473ffffffffffffffffffffffffffffffffffffffff1673ffffffffffffffffffffffffffffffffffffffff166323b872dd8230866040518463ffffffff1660e01b81526004016115d593929190614cc8565b600060405180830381600087803b1580156115ef57600080fd5b505af1158015611603573d6000803e3d6000fd5b505050506000612710846116179190615396565b90506116358282600160405180602001604052806000815250612fab565b83600c6000838152602001908152602001600020819055508092505050919050565b600081518361166691906153ec565b905060006040518060a001604052808773ffffffffffffffffffffffffffffffffffffffff16815260200186815260200185815260200183815260200184815250905083600b60008873ffffffffffffffffffffffffffffffffffffffff1673ffffffffffffffffffffffffffffffffffffffff16815260200190815260200160002060008282546116f89190615396565b92505081905550600681908060018154018082558091505060019003906000526020600020906005020160009091909190915060008201518160000160006101000a81548173ffffffffffffffffffffffffffffffffffffffff021916908373ffffffffffffffffffffffffffffffffffffffff160217905550602082015181600101908051906020019061178e929190613dd4565b50604082015181600201556060820151816003015560808201518160040190805190602001906117bf929190613e5a565b5050506117cb8161315c565b505050505050565b600360009054906101000a900473ffffffffffffffffffffffffffffffffffffffff1673ffffffffffffffffffffffffffffffffffffffff166323b872dd3330846040518463ffffffff1660e01b815260040161183293929190614cc8565b602060405180830381600087803b15801561184c57600080fd5b505af1158015611860573d6000803e3d6000fd5b505050506040513d601f19601f820116820180604052508101906118849190614560565b6118c3576040517f08c379a00000000000000000000000000000000000000000000000000000000081526004016118ba90614f15565b60405180910390fd5b6118df3360018360405180602001604052806000815250612fab565b50565b60003390506000600360009054906101000a900473ffffffffffffffffffffffffffffffffffffffff1673ffffffffffffffffffffffffffffffffffffffff166370a08231836040518263ffffffff1660e01b81526004016119449190614c45565b60206040518083038186803b15801561195c57600080fd5b505afa158015611970573d6000803e3d6000fd5b505050506040513d601f19601f820116820180604052508101906119949190614645565b9050828110156119d9576040517f08c379a00000000000000000000000000000000000000000000000000000000081526004016119d090614f95565b60405180910390fd5b82600960008473ffffffffffffffffffffffffffffffffffffffff1673ffffffffffffffffffffffffffffffffffffffff16815260200190815260200160002060008673ffffffffffffffffffffffffffffffffffffffff1673ffffffffffffffffffffffffffffffffffffffff168152602001908152602001600020541015611a98576040517f08c379a0000000000000000000000000000000000000000000000000000000008152600401611a8f90615035565b60405180910390fd5b82600960008473ffffffffffffffffffffffffffffffffffffffff1673ffffffffffffffffffffffffffffffffffffffff16815260200190815260200160002060008673ffffffffffffffffffffffffffffffffffffffff1673ffffffffffffffffffffffffffffffffffffffff168152602001908152602001600020541415612001576000600267ffffffffffffffff811115611b5f577f4e487b7100000000000000000000000000000000000000000000000000000000600052604160045260246000fd5b604051908082528060200260200182016040528015611b8d5781602001602082028036833780820191505090505b5090506000600267ffffffffffffffff811115611bd3577f4e487b7100000000000000000000000000000000000000000000000000000000600052604160045260246000fd5b604051908082528060200260200182016040528015611c015781602001602082028036833780820191505090505b509050600182600081518110611c40577f4e487b7100000000000000000000000000000000000000000000000000000000600052603260045260246000fd5b6020026020010181815250506000600d60008673ffffffffffffffffffffffffffffffffffffffff1673ffffffffffffffffffffffffffffffffffffffff16815260200190815260200160002060008873ffffffffffffffffffffffffffffffffffffffff1673ffffffffffffffffffffffffffffffffffffffff1681526020019081526020016000205490508083600181518110611d08577f4e487b7100000000000000000000000000000000000000000000000000000000600052603260045260246000fd5b6020026020010181815250508582600081518110611d4f577f4e487b7100000000000000000000000000000000000000000000000000000000600052603260045260246000fd5b602002602001018181525050600182600181518110611d97577f4e487b7100000000000000000000000000000000000000000000000000000000600052603260045260246000fd5b60200260200101818152505085600960008773ffffffffffffffffffffffffffffffffffffffff1673ffffffffffffffffffffffffffffffffffffffff16815260200190815260200160002060008973ffffffffffffffffffffffffffffffffffffffff1673ffffffffffffffffffffffffffffffffffffffff1681526020019081526020016000206000828254611e2f919061541d565b9250508190555085600860008773ffffffffffffffffffffffffffffffffffffffff1673ffffffffffffffffffffffffffffffffffffffff1681526020019081526020016000206000828254611e85919061541d565b9250508190555085600b60008973ffffffffffffffffffffffffffffffffffffffff1673ffffffffffffffffffffffffffffffffffffffff1681526020019081526020016000206000828254611edb919061541d565b92505081905550611f24858885856040518060400160405280600281526020017f3078000000000000000000000000000000000000000000000000000000000000815250610a63565b611f6f8784600181518110611f62577f4e487b7100000000000000000000000000000000000000000000000000000000600052603260045260246000fd5b60200260200101516124bb565b611f798787610cf2565b600d60008673ffffffffffffffffffffffffffffffffffffffff1673ffffffffffffffffffffffffffffffffffffffff16815260200190815260200160002060008873ffffffffffffffffffffffffffffffffffffffff1673ffffffffffffffffffffffffffffffffffffffff16815260200190815260200160002060009055505050612306565b6000600167ffffffffffffffff811115612044577f4e487b7100000000000000000000000000000000000000000000000000000000600052604160045260246000fd5b6040519080825280602002602001820160405280156120725781602001602082028036833780820191505090505b5090506000600167ffffffffffffffff8111156120b8577f4e487b7100000000000000000000000000000000000000000000000000000000600052604160045260246000fd5b6040519080825280602002602001820160405280156120e65781602001602082028036833780820191505090505b509050600182600081518110612125577f4e487b7100000000000000000000000000000000000000000000000000000000600052603260045260246000fd5b602002602001018181525050848160008151811061216c577f4e487b7100000000000000000000000000000000000000000000000000000000600052603260045260246000fd5b60200260200101818152505084600960008673ffffffffffffffffffffffffffffffffffffffff1673ffffffffffffffffffffffffffffffffffffffff16815260200190815260200160002060008873ffffffffffffffffffffffffffffffffffffffff1673ffffffffffffffffffffffffffffffffffffffff1681526020019081526020016000206000828254612204919061541d565b9250508190555084600860008673ffffffffffffffffffffffffffffffffffffffff1673ffffffffffffffffffffffffffffffffffffffff168152602001908152602001600020600082825461225a919061541d565b9250508190555084600b60008873ffffffffffffffffffffffffffffffffffffffff1673ffffffffffffffffffffffffffffffffffffffff16815260200190815260200160002060008282546122b0919061541d565b925050819055506122f9848784846040518060400160405280600281526020017f3078000000000000000000000000000000000000000000000000000000000000815250610a63565b6123038686610cf2565b50505b50505050565b6000600360009054906101000a900473ffffffffffffffffffffffffffffffffffffffff16905090565b6000600d60008473ffffffffffffffffffffffffffffffffffffffff1673ffffffffffffffffffffffffffffffffffffffff16815260200190815260200160002060008373ffffffffffffffffffffffffffffffffffffffff1673ffffffffffffffffffffffffffffffffffffffff16815260200190815260200160002054905092915050565b6123cf6123c86129ee565b8383613527565b5050565b600681815481106123e357600080fd5b90600052602060002090600502016000915090508060000160009054906101000a900473ffffffffffffffffffffffffffffffffffffffff169080600101805461242c9061552b565b80601f01602080910402602001604051908101604052809291908181526020018280546124589061552b565b80156124a55780601f1061247a576101008083540402835291602001916124a5565b820191906000526020600020905b81548152906001019060200180831161248857829003601f168201915b5050505050908060020154908060030154905084565b60006124c7838361078a565b11612507576040517f08c379a00000000000000000000000000000000000000000000000000000000081526004016124fe90615075565b60405180910390fd5b600061271082612517919061541d565b905080600c6000848152602001908152602001600020541461256e576040517f08c379a000000000000000000000000000000000000000000000000000000000815260040161256590614fb5565b60405180910390fd5b61257a83836001612d64565b600460009054906101000a900473ffffffffffffffffffffffffffffffffffffffff1673ffffffffffffffffffffffffffffffffffffffff166323b872dd3085846040518463ffffffff1660e01b81526004016125d993929190614cc8565b600060405180830381600087803b1580156125f357600080fd5b505af1158015612607573d6000803e3d6000fd5b50505050600c600083815260200190815260200160002060009055505050565b600d602052816000526040600020602052806000526040600020600091509150505481565b61271081565b6060600460009054906101000a900473ffffffffffffffffffffffffffffffffffffffff1673ffffffffffffffffffffffffffffffffffffffff1663d0508d8c836040518263ffffffff1660e01b81526004016126af9190615135565b60006040518083038186803b1580156126c757600080fd5b505afa1580156126db573d6000803e3d6000fd5b505050506040513d6000823e3d601f19601f8201168201806040525081019061270491906145db565b9050919050565b600080600860008473ffffffffffffffffffffffffffffffffffffffff1673ffffffffffffffffffffffffffffffffffffffff16815260200190815260200160002054600b60008573ffffffffffffffffffffffffffffffffffffffff1673ffffffffffffffffffffffffffffffffffffffff1681526020019081526020016000205491509150915091565b600360009054906101000a900473ffffffffffffffffffffffffffffffffffffffff1673ffffffffffffffffffffffffffffffffffffffff166365daaafe34336040518363ffffffff1660e01b81526004016127f39190614c45565b6000604051808303818588803b15801561280c57600080fd5b505af1158015612820573d6000803e3d6000fd5b5050505050565b6000600160008473ffffffffffffffffffffffffffffffffffffffff1673ffffffffffffffffffffffffffffffffffffffff16815260200190815260200160002060008373ffffffffffffffffffffffffffffffffffffffff1673ffffffffffffffffffffffffffffffffffffffff16815260200190815260200160002060009054906101000a900460ff16905092915050565b6128c36129ee565b73ffffffffffffffffffffffffffffffffffffffff168573ffffffffffffffffffffffffffffffffffffffff1614806129095750612908856129036129ee565b612827565b5b612948576040517f08c379a000000000000000000000000000000000000000000000000000000000815260040161293f90614f75565b60405180910390fd5b6129558585858585613694565b5050505050565b600181565b6000808273ffffffffffffffffffffffffffffffffffffffff163b119050919050565b60007f01ffc9a7000000000000000000000000000000000000000000000000000000007bffffffffffffffffffffffffffffffffffffffffffffffffffffffff1916827bffffffffffffffffffffffffffffffffffffffffffffffffffffffff1916149050919050565b600033905090565b8151835114612a3a576040517f08c379a0000000000000000000000000000000000000000000000000000000008152600401612a31906150d5565b60405180910390fd5b600073ffffffffffffffffffffffffffffffffffffffff168473ffffffffffffffffffffffffffffffffffffffff161415612aaa576040517f08c379a0000000000000000000000000000000000000000000000000000000008152600401612aa190614fd5565b60405180910390fd5b6000612ab46129ee565b9050612ac4818787878787613930565b60005b8451811015612cc1576000858281518110612b0b577f4e487b7100000000000000000000000000000000000000000000000000000000600052603260045260246000fd5b602002602001015190506000858381518110612b50577f4e487b7100000000000000000000000000000000000000000000000000000000600052603260045260246000fd5b60200260200101519050600080600084815260200190815260200160002060008b73ffffffffffffffffffffffffffffffffffffffff1673ffffffffffffffffffffffffffffffffffffffff16815260200190815260200160002054905081811015612bf1576040517f08c379a0000000000000000000000000000000000000000000000000000000008152600401612be890615015565b60405180910390fd5b81810360008085815260200190815260200160002060008c73ffffffffffffffffffffffffffffffffffffffff1673ffffffffffffffffffffffffffffffffffffffff168152602001908152602001600020819055508160008085815260200190815260200160002060008b73ffffffffffffffffffffffffffffffffffffffff1673ffffffffffffffffffffffffffffffffffffffff1681526020019081526020016000206000828254612ca69190615396565b9250508190555050505080612cba9061558e565b9050612ac7565b508473ffffffffffffffffffffffffffffffffffffffff168673ffffffffffffffffffffffffffffffffffffffff168273ffffffffffffffffffffffffffffffffffffffff167f4a39dc06d4c0dbc64b70af90fd698a233a518aa5d07e595d983b8c0526c8f7fb8787604051612d38929190614e66565b60405180910390a4612d4e818787878787613938565b612d5c818787878787613940565b505050505050565b600073ffffffffffffffffffffffffffffffffffffffff168373ffffffffffffffffffffffffffffffffffffffff161415612dd4576040517f08c379a0000000000000000000000000000000000000000000000000000000008152600401612dcb90614ff5565b60405180910390fd5b6000612dde6129ee565b90506000612deb84613b27565b90506000612df884613b27565b9050612e1883876000858560405180602001604052806000815250613930565b600080600087815260200190815260200160002060008873ffffffffffffffffffffffffffffffffffffffff1673ffffffffffffffffffffffffffffffffffffffff16815260200190815260200160002054905084811015612eaf576040517f08c379a0000000000000000000000000000000000000000000000000000000008152600401612ea690614f35565b60405180910390fd5b84810360008088815260200190815260200160002060008973ffffffffffffffffffffffffffffffffffffffff1673ffffffffffffffffffffffffffffffffffffffff16815260200190815260200160002081905550600073ffffffffffffffffffffffffffffffffffffffff168773ffffffffffffffffffffffffffffffffffffffff168573ffffffffffffffffffffffffffffffffffffffff167fc3d58168c5ae7397731d063d5bbf3d657854427343f4c083240f7aacaa2d0f628989604051612f7c929190615150565b60405180910390a4612fa284886000868660405180602001604052806000815250613938565b50505050505050565b600073ffffffffffffffffffffffffffffffffffffffff168473ffffffffffffffffffffffffffffffffffffffff16141561301b576040517f08c379a0000000000000000000000000000000000000000000000000000000008152600401613012906150f5565b60405180910390fd5b60006130256129ee565b9050600061303285613b27565b9050600061303f85613b27565b905061305083600089858589613930565b8460008088815260200190815260200160002060008973ffffffffffffffffffffffffffffffffffffffff1673ffffffffffffffffffffffffffffffffffffffff16815260200190815260200160002060008282546130af9190615396565b925050819055508673ffffffffffffffffffffffffffffffffffffffff16600073ffffffffffffffffffffffffffffffffffffffff168473ffffffffffffffffffffffffffffffffffffffff167fc3d58168c5ae7397731d063d5bbf3d657854427343f4c083240f7aacaa2d0f62898960405161312d929190615150565b60405180910390a461314483600089858589613938565b61315383600089898989613bed565b50505050505050565b60006001600680549050613170919061541d565b905060005b826080015151811015613522576000836080015182815181106131c1577f4e487b7100000000000000000000000000000000000000000000000000000000600052603260045260246000fd5b60200260200101519050600760008273ffffffffffffffffffffffffffffffffffffffff1673ffffffffffffffffffffffffffffffffffffffff168152602001908152602001600020839080600181540180825580915050600190039060005260206000200160009091909190915055836000015173ffffffffffffffffffffffffffffffffffffffff168173ffffffffffffffffffffffffffffffffffffffff16146134af578360600151600860008373ffffffffffffffffffffffffffffffffffffffff1673ffffffffffffffffffffffffffffffffffffffff16815260200190815260200160002060008282546132bb9190615396565b925050819055508360600151600960008373ffffffffffffffffffffffffffffffffffffffff1673ffffffffffffffffffffffffffffffffffffffff1681526020019081526020016000206000866000015173ffffffffffffffffffffffffffffffffffffffff1673ffffffffffffffffffffffffffffffffffffffff16815260200190815260200160002060008282546133569190615396565b925050819055506000600460009054906101000a900473ffffffffffffffffffffffffffffffffffffffff1673ffffffffffffffffffffffffffffffffffffffff1663adf2996c833088606001516040518463ffffffff1660e01b81526004016133c293929190614cc8565b602060405180830381600087803b1580156133dc57600080fd5b505af11580156133f0573d6000803e3d6000fd5b505050506040513d601f19601f820116820180604052508101906134149190614645565b90506000613421826114c6565b905080600d60008573ffffffffffffffffffffffffffffffffffffffff1673ffffffffffffffffffffffffffffffffffffffff1681526020019081526020016000206000886000015173ffffffffffffffffffffffffffffffffffffffff1673ffffffffffffffffffffffffffffffffffffffff16815260200190815260200160002081905550505061350e565b8360600151600b6000866000015173ffffffffffffffffffffffffffffffffffffffff1673ffffffffffffffffffffffffffffffffffffffff1681526020019081526020016000206000828254613506919061541d565b925050819055505b50808061351a9061558e565b915050613175565b505050565b8173ffffffffffffffffffffffffffffffffffffffff168373ffffffffffffffffffffffffffffffffffffffff161415613596576040517f08c379a000000000000000000000000000000000000000000000000000000000815260040161358d90615095565b60405180910390fd5b80600160008573ffffffffffffffffffffffffffffffffffffffff1673ffffffffffffffffffffffffffffffffffffffff16815260200190815260200160002060008473ffffffffffffffffffffffffffffffffffffffff1673ffffffffffffffffffffffffffffffffffffffff16815260200190815260200160002060006101000a81548160ff0219169083151502179055508173ffffffffffffffffffffffffffffffffffffffff168373ffffffffffffffffffffffffffffffffffffffff167f17307eab39ab6107e8899845ad3d59bd9653f200f220920489ca2b5937696c31836040516136879190614e9d565b60405180910390a3505050565b600073ffffffffffffffffffffffffffffffffffffffff168473ffffffffffffffffffffffffffffffffffffffff161415613704576040517f08c379a00000000000000000000000000000000000000000000000000000000081526004016136fb90614fd5565b60405180910390fd5b600061370e6129ee565b9050600061371b85613b27565b9050600061372885613b27565b9050613738838989858589613930565b600080600088815260200190815260200160002060008a73ffffffffffffffffffffffffffffffffffffffff1673ffffffffffffffffffffffffffffffffffffffff168152602001908152602001600020549050858110156137cf576040517f08c379a00000000000000000000000000000000000000000000000000000000081526004016137c690615015565b60405180910390fd5b85810360008089815260200190815260200160002060008b73ffffffffffffffffffffffffffffffffffffffff1673ffffffffffffffffffffffffffffffffffffffff168152602001908152602001600020819055508560008089815260200190815260200160002060008a73ffffffffffffffffffffffffffffffffffffffff1673ffffffffffffffffffffffffffffffffffffffff16815260200190815260200160002060008282546138849190615396565b925050819055508773ffffffffffffffffffffffffffffffffffffffff168973ffffffffffffffffffffffffffffffffffffffff168573ffffffffffffffffffffffffffffffffffffffff167fc3d58168c5ae7397731d063d5bbf3d657854427343f4c083240f7aacaa2d0f628a8a604051613901929190615150565b60405180910390a4613917848a8a86868a613938565b613925848a8a8a8a8a613bed565b505050505050505050565b505050505050565b505050505050565b61395f8473ffffffffffffffffffffffffffffffffffffffff16612961565b15613b1f578373ffffffffffffffffffffffffffffffffffffffff1663bc197c8187878686866040518663ffffffff1660e01b81526004016139a5959493929190614c60565b602060405180830381600087803b1580156139bf57600080fd5b505af19250505080156139f057506040513d601f19601f820116820180604052508101906139ed91906145b2565b60015b613a96576139fc615693565b806308c379a01415613a595750613a11615b7d565b80613a1c5750613a5b565b806040517f08c379a0000000000000000000000000000000000000000000000000000000008152600401613a509190614ed3565b60405180910390fd5b505b6040517f08c379a0000000000000000000000000000000000000000000000000000000008152600401613a8d90615115565b60405180910390fd5b63bc197c8160e01b7bffffffffffffffffffffffffffffffffffffffffffffffffffffffff1916817bffffffffffffffffffffffffffffffffffffffffffffffffffffffff191614613b1d576040517f08c379a0000000000000000000000000000000000000000000000000000000008152600401613b1490614ef5565b60405180910390fd5b505b505050505050565b60606000600167ffffffffffffffff811115613b6c577f4e487b7100000000000000000000000000000000000000000000000000000000600052604160045260246000fd5b604051908082528060200260200182016040528015613b9a5781602001602082028036833780820191505090505b5090508281600081518110613bd8577f4e487b7100000000000000000000000000000000000000000000000000000000600052603260045260246000fd5b60200260200101818152505080915050919050565b613c0c8473ffffffffffffffffffffffffffffffffffffffff16612961565b15613dcc578373ffffffffffffffffffffffffffffffffffffffff1663f23a6e6187878686866040518663ffffffff1660e01b8152600401613c52959493929190614cff565b602060405180830381600087803b158015613c6c57600080fd5b505af1925050508015613c9d57506040513d601f19601f82011682018060405250810190613c9a91906145b2565b60015b613d4357613ca9615693565b806308c379a01415613d065750613cbe615b7d565b80613cc95750613d08565b806040517f08c379a0000000000000000000000000000000000000000000000000000000008152600401613cfd9190614ed3565b60405180910390fd5b505b6040517f08c379a0000000000000000000000000000000000000000000000000000000008152600401613d3a90615115565b60405180910390fd5b63f23a6e6160e01b7bffffffffffffffffffffffffffffffffffffffffffffffffffffffff1916817bffffffffffffffffffffffffffffffffffffffffffffffffffffffff191614613dca576040517f08c379a0000000000000000000000000000000000000000000000000000000008152600401613dc190614ef5565b60405180910390fd5b505b505050505050565b828054613de09061552b565b90600052602060002090601f016020900481019282613e025760008555613e49565b82601f10613e1b57805160ff1916838001178555613e49565b82800160010185558215613e49579182015b82811115613e48578251825591602001919060010190613e2d565b5b509050613e569190613ee4565b5090565b828054828255906000526020600020908101928215613ed3579160200282015b82811115613ed25782518260006101000a81548173ffffffffffffffffffffffffffffffffffffffff021916908373ffffffffffffffffffffffffffffffffffffffff16021790555091602001919060010190613e7a565b5b509050613ee09190613ee4565b5090565b5b80821115613efd576000816000905550600101613ee5565b5090565b6000613f14613f0f8461519e565b615179565b90508083825260208201905082856020860282011115613f3357600080fd5b60005b85811015613f635781613f498882614093565b845260208401935060208301925050600181019050613f36565b5050509392505050565b6000613f80613f7b846151ca565b615179565b90508083825260208201905082856020860282011115613f9f57600080fd5b60005b85811015613fcf5781613fb588826141e3565b845260208401935060208301925050600181019050613fa2565b5050509392505050565b6000613fec613fe7846151f6565b615179565b90508281526020810184848401111561400457600080fd5b61400f8482856154e9565b509392505050565b600061402a61402584615227565b615179565b90508281526020810184848401111561404257600080fd5b61404d8482856154e9565b509392505050565b600061406861406384615227565b615179565b90508281526020810184848401111561408057600080fd5b61408b8482856154f8565b509392505050565b6000813590506140a281615c13565b92915050565b6000815190506140b781615c13565b92915050565b600082601f8301126140ce57600080fd5b81356140de848260208601613f01565b91505092915050565b600082601f8301126140f857600080fd5b8135614108848260208601613f6d565b91505092915050565b60008135905061412081615c2a565b92915050565b60008151905061413581615c2a565b92915050565b60008135905061414a81615c41565b92915050565b60008151905061415f81615c41565b92915050565b600082601f83011261417657600080fd5b8135614186848260208601613fd9565b91505092915050565b600082601f8301126141a057600080fd5b81356141b0848260208601614017565b91505092915050565b600082601f8301126141ca57600080fd5b81516141da848260208601614055565b91505092915050565b6000813590506141f281615c58565b92915050565b60008151905061420781615c58565b92915050565b60006020828403121561421f57600080fd5b600061422d84828501614093565b91505092915050565b60006020828403121561424857600080fd5b6000614256848285016140a8565b91505092915050565b6000806040838503121561427257600080fd5b600061428085828601614093565b925050602061429185828601614093565b9150509250929050565b600080600080600060a086880312156142b357600080fd5b60006142c188828901614093565b95505060206142d288828901614093565b945050604086013567ffffffffffffffff8111156142ef57600080fd5b6142fb888289016140e7565b935050606086013567ffffffffffffffff81111561431857600080fd5b614324888289016140e7565b925050608086013567ffffffffffffffff81111561434157600080fd5b61434d88828901614165565b9150509295509295909350565b600080600080600060a0868803121561437257600080fd5b600061438088828901614093565b955050602061439188828901614093565b94505060406143a2888289016141e3565b93505060606143b3888289016141e3565b925050608086013567ffffffffffffffff8111156143d057600080fd5b6143dc88828901614165565b9150509295509295909350565b600080604083850312156143fc57600080fd5b600061440a85828601614093565b925050602061441b85828601614111565b9150509250929050565b6000806000806080858703121561443b57600080fd5b600061444987828801614093565b945050602085013567ffffffffffffffff81111561446657600080fd5b6144728782880161418f565b9350506040614483878288016141e3565b925050606085013567ffffffffffffffff8111156144a057600080fd5b6144ac878288016140bd565b91505092959194509250565b600080604083850312156144cb57600080fd5b60006144d985828601614093565b92505060206144ea858286016141e3565b9150509250929050565b6000806040838503121561450757600080fd5b600083013567ffffffffffffffff81111561452157600080fd5b61452d858286016140bd565b925050602083013567ffffffffffffffff81111561454a57600080fd5b614556858286016140e7565b9150509250929050565b60006020828403121561457257600080fd5b600061458084828501614126565b91505092915050565b60006020828403121561459b57600080fd5b60006145a98482850161413b565b91505092915050565b6000602082840312156145c457600080fd5b60006145d284828501614150565b91505092915050565b6000602082840312156145ed57600080fd5b600082015167ffffffffffffffff81111561460757600080fd5b614613848285016141b9565b91505092915050565b60006020828403121561462e57600080fd5b600061463c848285016141e3565b91505092915050565b60006020828403121561465757600080fd5b6000614665848285016141f8565b91505092915050565b600061467a83836146c6565b60208301905092915050565b600061469283836146e4565b905092915050565b60006146a6838361493f565b905092915050565b60006146ba8383614c27565b60208301905092915050565b6146cf81615451565b82525050565b6146de81615451565b82525050565b60006146ef82615298565b6146f9818561530e565b935061470483615258565b8060005b8381101561473557815161471c888261466e565b9750614727836152da565b925050600181019050614708565b5085935050505092915050565b600061474d82615298565b614757818561531f565b935061476283615258565b8060005b8381101561479357815161477a888261466e565b9750614785836152da565b925050600181019050614766565b5085935050505092915050565b60006147ab826152a3565b6147b58185615330565b9350836020820285016147c785615268565b8060005b8581101561480357848403895281516147e48582614686565b94506147ef836152e7565b925060208a019950506001810190506147cb565b50829750879550505050505092915050565b6000614820826152ae565b61482a8185615341565b93508360208202850161483c85615278565b8060005b858110156148785784840389528151614859858261469a565b9450614864836152f4565b925060208a01995050600181019050614840565b50829750879550505050505092915050565b6000614895826152b9565b61489f8185615352565b93506148aa83615288565b8060005b838110156148db5781516148c288826146ae565b97506148cd83615301565b9250506001810190506148ae565b5085935050505092915050565b6148f181615463565b82525050565b6000614902826152c4565b61490c8185615363565b935061491c8185602086016154f8565b614925816156b5565b840191505092915050565b614939816154c5565b82525050565b600061494a826152cf565b6149548185615374565b93506149648185602086016154f8565b61496d816156b5565b840191505092915050565b6000614983826152cf565b61498d8185615385565b935061499d8185602086016154f8565b6149a6816156b5565b840191505092915050565b60006149be602883615385565b91506149c9826156d3565b604082019050919050565b60006149e1600f83615385565b91506149ec82615722565b602082019050919050565b6000614a04602483615385565b9150614a0f8261574b565b604082019050919050565b6000614a27602a83615385565b9150614a328261579a565b604082019050919050565b6000614a4a602e83615385565b9150614a55826157e9565b604082019050919050565b6000614a6d602083615385565b9150614a7882615838565b602082019050919050565b6000614a90601583615385565b9150614a9b82615861565b602082019050919050565b6000614ab3602583615385565b9150614abe8261588a565b604082019050919050565b6000614ad6602383615385565b9150614ae1826158d9565b604082019050919050565b6000614af9602a83615385565b9150614b0482615928565b604082019050919050565b6000614b1c601883615385565b9150614b2782615977565b602082019050919050565b6000614b3f601b83615385565b9150614b4a826159a0565b602082019050919050565b6000614b62601d83615385565b9150614b6d826159c9565b602082019050919050565b6000614b85602983615385565b9150614b90826159f2565b604082019050919050565b6000614ba8602983615385565b9150614bb382615a41565b604082019050919050565b6000614bcb602883615385565b9150614bd682615a90565b604082019050919050565b6000614bee602183615385565b9150614bf982615adf565b604082019050919050565b6000614c11603483615385565b9150614c1c82615b2e565b604082019050919050565b614c30816154bb565b82525050565b614c3f816154bb565b82525050565b6000602082019050614c5a60008301846146d5565b92915050565b600060a082019050614c7560008301886146d5565b614c8260208301876146d5565b8181036040830152614c94818661488a565b90508181036060830152614ca8818561488a565b90508181036080830152614cbc81846148f7565b90509695505050505050565b6000606082019050614cdd60008301866146d5565b614cea60208301856146d5565b614cf76040830184614c36565b949350505050565b600060a082019050614d1460008301886146d5565b614d2160208301876146d5565b614d2e6040830186614c36565b614d3b6060830185614c36565b8181036080830152614d4d81846148f7565b90509695505050505050565b6000608082019050614d6e60008301876146d5565b8181036020830152614d808186614978565b9050614d8f6040830185614c36565b614d9c6060830184614c36565b95945050505050565b6000604082019050614dba60008301856146d5565b614dc76020830184614c36565b9392505050565b600060a0820190508181036000830152614de88188614815565b90508181036020830152614dfc818761488a565b90508181036040830152614e10818661488a565b90508181036060830152614e248185614742565b90508181036080830152614e3881846147a0565b90509695505050505050565b60006020820190508181036000830152614e5e818461488a565b905092915050565b60006040820190508181036000830152614e80818561488a565b90508181036020830152614e94818461488a565b90509392505050565b6000602082019050614eb260008301846148e8565b92915050565b6000602082019050614ecd6000830184614930565b92915050565b60006020820190508181036000830152614eed8184614978565b905092915050565b60006020820190508181036000830152614f0e816149b1565b9050919050565b60006020820190508181036000830152614f2e816149d4565b9050919050565b60006020820190508181036000830152614f4e816149f7565b9050919050565b60006020820190508181036000830152614f6e81614a1a565b9050919050565b60006020820190508181036000830152614f8e81614a3d565b9050919050565b60006020820190508181036000830152614fae81614a60565b9050919050565b60006020820190508181036000830152614fce81614a83565b9050919050565b60006020820190508181036000830152614fee81614aa6565b9050919050565b6000602082019050818103600083015261500e81614ac9565b9050919050565b6000602082019050818103600083015261502e81614aec565b9050919050565b6000602082019050818103600083015261504e81614b0f565b9050919050565b6000602082019050818103600083015261506e81614b32565b9050919050565b6000602082019050818103600083015261508e81614b55565b9050919050565b600060208201905081810360008301526150ae81614b78565b9050919050565b600060208201905081810360008301526150ce81614b9b565b9050919050565b600060208201905081810360008301526150ee81614bbe565b9050919050565b6000602082019050818103600083015261510e81614be1565b9050919050565b6000602082019050818103600083015261512e81614c04565b9050919050565b600060208201905061514a6000830184614c36565b92915050565b60006040820190506151656000830185614c36565b6151726020830184614c36565b9392505050565b6000615183615194565b905061518f828261555d565b919050565b6000604051905090565b600067ffffffffffffffff8211156151b9576151b8615664565b5b602082029050602081019050919050565b600067ffffffffffffffff8211156151e5576151e4615664565b5b602082029050602081019050919050565b600067ffffffffffffffff82111561521157615210615664565b5b61521a826156b5565b9050602081019050919050565b600067ffffffffffffffff82111561524257615241615664565b5b61524b826156b5565b9050602081019050919050565b6000819050602082019050919050565b6000819050602082019050919050565b6000819050602082019050919050565b6000819050602082019050919050565b600081519050919050565b600081519050919050565b600081519050919050565b600081519050919050565b600081519050919050565b600081519050919050565b6000602082019050919050565b6000602082019050919050565b6000602082019050919050565b6000602082019050919050565b600082825260208201905092915050565b600082825260208201905092915050565b600082825260208201905092915050565b600082825260208201905092915050565b600082825260208201905092915050565b600082825260208201905092915050565b600082825260208201905092915050565b600082825260208201905092915050565b60006153a1826154bb565b91506153ac836154bb565b9250827fffffffffffffffffffffffffffffffffffffffffffffffffffffffffffffffff038211156153e1576153e06155d7565b5b828201905092915050565b60006153f7826154bb565b9150615402836154bb565b92508261541257615411615606565b5b828204905092915050565b6000615428826154bb565b9150615433836154bb565b925082821015615446576154456155d7565b5b828203905092915050565b600061545c8261549b565b9050919050565b60008115159050919050565b60007fffffffff0000000000000000000000000000000000000000000000000000000082169050919050565b600073ffffffffffffffffffffffffffffffffffffffff82169050919050565b6000819050919050565b60006154d0826154d7565b9050919050565b60006154e28261549b565b9050919050565b82818337600083830152505050565b60005b838110156155165780820151818401526020810190506154fb565b83811115615525576000848401525b50505050565b6000600282049050600182168061554357607f821691505b6020821081141561555757615556615635565b5b50919050565b615566826156b5565b810181811067ffffffffffffffff8211171561558557615584615664565b5b80604052505050565b6000615599826154bb565b91507fffffffffffffffffffffffffffffffffffffffffffffffffffffffffffffffff8214156155cc576155cb6155d7565b5b600182019050919050565b7f4e487b7100000000000000000000000000000000000000000000000000000000600052601160045260246000fd5b7f4e487b7100000000000000000000000000000000000000000000000000000000600052601260045260246000fd5b7f4e487b7100000000000000000000000000000000000000000000000000000000600052602260045260246000fd5b7f4e487b7100000000000000000000000000000000000000000000000000000000600052604160045260246000fd5b600060033d11156156b25760046000803e6156af6000516156c6565b90505b90565b6000601f19601f8301169050919050565b60008160e01c9050919050565b7f455243313135353a204552433131353552656365697665722072656a6563746560008201527f6420746f6b656e73000000000000000000000000000000000000000000000000602082015250565b7f5472616e73666572206661696c65640000000000000000000000000000000000600082015250565b7f455243313135353a206275726e20616d6f756e7420657863656564732062616c60008201527f616e636500000000000000000000000000000000000000000000000000000000602082015250565b7f455243313135353a2061646472657373207a65726f206973206e6f742061207660008201527f616c6964206f776e657200000000000000000000000000000000000000000000602082015250565b7f455243313135353a2063616c6c6572206973206e6f7420746f6b656e206f776e60008201527f6572206f7220617070726f766564000000000000000000000000000000000000602082015250565b7f496e73756666696369656e742066756e647320746f20636c6561722064656274600082015250565b7f496e76616c696420746f6b656e206d617070696e670000000000000000000000600082015250565b7f455243313135353a207472616e7366657220746f20746865207a65726f20616460008201527f6472657373000000000000000000000000000000000000000000000000000000602082015250565b7f455243313135353a206275726e2066726f6d20746865207a65726f206164647260008201527f6573730000000000000000000000000000000000000000000000000000000000602082015250565b7f455243313135353a20696e73756666696369656e742062616c616e636520666f60008201527f72207472616e7366657200000000000000000000000000000000000000000000602082015250565b7f4e6f7420656e6f756768206465627420746f20636c6561720000000000000000600082015250565b7f496e73756666696369656e74207772617070656420746f6b656e730000000000600082015250565b7f43616c6c657220646f6573206e6f74206f776e2074686520746f6b656e000000600082015250565b7f455243313135353a2073657474696e6720617070726f76616c2073746174757360008201527f20666f722073656c660000000000000000000000000000000000000000000000602082015250565b7f455243313135353a206163636f756e747320616e6420696473206c656e67746860008201527f206d69736d617463680000000000000000000000000000000000000000000000602082015250565b7f455243313135353a2069647320616e6420616d6f756e7473206c656e6774682060008201527f6d69736d61746368000000000000000000000000000000000000000000000000602082015250565b7f455243313135353a206d696e7420746f20746865207a65726f2061646472657360008201527f7300000000000000000000000000000000000000000000000000000000000000602082015250565b7f455243313135353a207472616e7366657220746f206e6f6e2d4552433131353560008201527f526563656976657220696d706c656d656e746572000000000000000000000000602082015250565b600060443d1015615b8d57615c10565b615b95615194565b60043d036004823e80513d602482011167ffffffffffffffff82111715615bbd575050615c10565b808201805167ffffffffffffffff811115615bdb5750505050615c10565b80602083010160043d038501811115615bf8575050505050615c10565b615c078260200185018661555d565b82955050505050505b90565b615c1c81615451565b8114615c2757600080fd5b50565b615c3381615463565b8114615c3e57600080fd5b50565b615c4a8161546f565b8114615c5557600080fd5b50565b615c61816154bb565b8114615c6c57600080fd5b5056fea2646970667358221220e440b367f7b05d0f4c0b97a821a6fc5f125a9d587647082a660bd5bfcad688de64736f6c63430008010033",
  "immutableReferences": {},
  "source": "// SPDX-License-Identifier: MIT\npragma solidity ^0.8.0;\n\nimport \"@openzeppelin/contracts/token/ERC1155/ERC1155.sol\";\nimport \"./DebtStatusTokens.sol\"; // Import your ERC721 contract\nimport \"./SharedFunds.sol\"; // Import your ERC20 contract\n\ncontract ExpenseSplit is ERC1155 {\n\n    SharedFunds private sharedFundsTokens;  // Instance of your ERC-20 contract\n    DebtStatusTokens private debtStatusTokens; // Instance of your ERC-721 contract\n    uint256 public constant WRAPPED_SHARED_FUNDS_ID = 1; // ID for wrapped ERC-20\n    \n    uint256 public expensesLength;\n\n    struct DebtClearance {\n        uint256 amountCleared;\n        uint256 clearedOn;\n    }\n\n    struct Expense {\n        address creditor;\n        string purpose;\n        uint256 amount;\n        uint256 share;\n        address[] participants;\n    }\n    \n    Expense[] public expenses;\n   \n\n    mapping(address => uint256[]) private participantExpenses; \n    mapping(address => uint) private balances;\n    mapping(address => mapping(address => uint256)) public debts; \n    mapping(uint256 => DebtClearance) private _debtClearanceDetails;\n    mapping(address => uint) private amountOwed; // total outstanding balances people owe u\n\n    uint256 public constant OFFSET = 10000;  // An offset to distinguish ERC-1155 token IDs from ERC-721 token IDs\n\n    // Mapping from ERC-1155 token ID to ERC-721 token ID\n    mapping(uint256 => uint256) public erc1155ToErc721;\n    mapping(address => mapping(address => uint256)) public NftDetails;\n\n    event DebtAdded(address indexed debtor, uint256 amount);\n    event DebtCleared(address indexed debtor, uint256 amount);\n    event NFTTransfer(address indexed debtor, uint256 TokenId);\n\n    constructor(address _debtStatusTokensAddress, address _SharedFundsTokensAddress) ERC1155(\"https://your-metadata-url/\") {\n        sharedFundsTokens= SharedFunds(_SharedFundsTokensAddress);\n        debtStatusTokens = DebtStatusTokens(_debtStatusTokensAddress);\n       \n        address[] memory participants2 = new address[](2);\n        participants2[0] = 0x5B38Da6a701c568545dCfcB03FcB875f56beddC4;\n        participants2[1] = 0xAb8483F64d9C6d1EcF9b849Ae677dD3315835cb2;\n\n        // expenses.push(Expense({\n        //     creditor: msg.sender,\n        //     purpose: \"Sample Expense\",\n        //     amount: 500,\n        //     participants: participants2\n        // }));\n\n        recordExpense(msg.sender, \"Sample Expense2\", 100, participants2);\n     }\n       \n    function getExpensesCount() public view returns(uint) {\n        return expenses.length;\n    }\n    \n    function getSharedToken()  public view returns(SharedFunds){\n        return sharedFundsTokens;\n    }\n\n    function getNFTDetails(address p1, address p2)public view returns(uint){\n        return NftDetails[p1][p2];\n    }\n    function getAmountOwed(address p1, address p2) public view returns(uint){\n        return debts[p1][p2];\n    }\n    function wrapSharedFunds(uint256 amount) public {\n        require(sharedFundsTokens.transferFrom(msg.sender, address(this), amount), \"Transfer failed\");\n        _mint(msg.sender, WRAPPED_SHARED_FUNDS_ID, amount, \"\");\n    }\n\n    function unwrapSharedFunds(address _to,uint256 amount) public {\n        require(balanceOf(_to, WRAPPED_SHARED_FUNDS_ID) >= amount, \"Insufficient wrapped tokens\");\n        _burn(_to, WRAPPED_SHARED_FUNDS_ID, amount);\n        require(sharedFundsTokens.transfer(_to, amount), \"Transfer failed\");\n    }\n\n     function wrapERC721AsERC1155(uint256 erc721TokenId) public returns (uint256){\n        // Transfer ERC-721 token to this contract\n        address owner=debtStatusTokens.ownerOf(erc721TokenId);\n        debtStatusTokens.transferFrom(owner, address(this), erc721TokenId);\n\n        // Calculate ERC-1155 token ID\n        uint256 erc1155TokenId = erc721TokenId + OFFSET;\n\n        // Mint ERC-1155 token\n        _mint(owner, erc1155TokenId, 1, \"\");\n\n        // Map the ERC-1155 token ID to the ERC-721 token ID\n        erc1155ToErc721[erc1155TokenId] = erc721TokenId;\n        return erc1155TokenId;\n    }\n\n    function unwrapERC1155AsERC721(address owner, uint256 erc1155TokenId) public {\n    // Ensure the sender has the ERC-1155 token to be unwrapped\n\n        require(balanceOf(owner, erc1155TokenId) > 0, \"Caller does not own the token\");\n\n        // Calculate the original ERC-721 token ID\n        uint256 erc721TokenId = erc1155TokenId - OFFSET;\n\n        // Ensure the mapping is correct\n        require(erc1155ToErc721[erc1155TokenId] == erc721TokenId, \"Invalid token mapping\");\n\n        // Burn the ERC-1155 token\n        _burn(owner, erc1155TokenId, 1);\n\n        // require(erc1155ToErc721[erc1155TokenId] != erc721TokenId, \"HI mapping\");\n\n        // Transfer the ERC-721 token back to the sender\n        debtStatusTokens.transferFrom(address(this), owner, erc721TokenId);\n\n        //  require(erc1155ToErc721[erc1155TokenId] != erc721TokenId, \" token mapping\");\n\n        // Remove the mapping\n        delete erc1155ToErc721[erc1155TokenId];\n}\n\n    \nfunction recordExpense(address _creditor, string memory _purpose, uint256 _amount, address[] memory _participants) public {\n    uint256 _share = _amount / _participants.length;\n    Expense memory newExpense = Expense({\n        creditor: _creditor,\n        purpose: _purpose,\n        amount: _amount,\n        share: _share,\n        participants: _participants\n    });\n    amountOwed[_creditor] += _amount;\n    expenses.push(newExpense);\n    calculateBalancesAndIssueNFTs(newExpense);\n}\n\n    function calculateBalancesAndIssueNFTs(Expense memory expense) internal {\n    uint expenseId = expenses.length - 1;\n\n    for (uint256 j = 0; j < expense.participants.length; j++) {\n        address participant = expense.participants[j];\n        participantExpenses[participant].push(expenseId);\n        if(participant != expense.creditor){\n            balances[participant] += expense.share; \n            debts[participant][expense.creditor] += expense.share;\n\n            // Mint and Wrap the NFT\n            uint256 erc721TokenId = debtStatusTokens._issueDebtClearedToken(participant, address(this), expense.share); // Assuming this function exists\n            uint erc1155TokenId=wrapERC721AsERC1155(erc721TokenId);\n            NftDetails[participant][expense.creditor]=erc1155TokenId;\n        } else {\n            amountOwed[expense.creditor] -= expense.share;\n        }  \n    }\n}\n\n\n    // Function to clear debt and issue a token if debt is fully cleared\n    function clearDebt(address _to, uint256 amount) public {\n        address from = msg.sender;\n\n        // Check if the sender has enough tokens to clear the debt\n        uint256 senderBalance = sharedFundsTokens.balanceOf(from);\n        require(senderBalance >= amount, \"Insufficient funds to clear debt\");\n        require(debts[from][_to] >= amount, \"Not enough debt to clear\"); \n\n        //wrapSharedFunds(amount);       \n        // uint newToken;\n\n        if (debts[from][_to]==amount){\n            uint256[] memory tokenIds = new uint256[](2);\n            uint256[] memory amounts = new uint256[](2);\n            tokenIds[0] = WRAPPED_SHARED_FUNDS_ID;\n            uint erc1155TokenId=NftDetails[from][_to];\n            tokenIds[1] = erc1155TokenId;\n            amounts[0]=amount;\n            amounts[1]=1;\n            debts[from][_to] -= amount; // Corrected mapping reference\n            balances[from] -= amount;\n            amountOwed[_to]-=amount;\n            safeBatchTransferFrom(from, _to, tokenIds, amounts, \"0x\");\n            unwrapERC1155AsERC721(_to,tokenIds[1]);\n            unwrapSharedFunds(_to,amount);\n            delete NftDetails[from][_to];\n        }\n        else{\n            uint256[] memory tokenIds = new uint256[](1);\n            uint256[] memory amounts = new uint256[](1);\n            tokenIds[0]=WRAPPED_SHARED_FUNDS_ID;\n            amounts[0]=amount;\n            debts[from][_to] -= amount; // Corrected mapping reference\n            balances[from] -= amount;\n            amountOwed[_to]-=amount;\n            safeBatchTransferFrom(from, _to, tokenIds, amounts, \"0x\");\n            unwrapSharedFunds(_to,amount);\n        }\n\n        // sharedFundsTokens.transferFrom(from, _to, amount);\n        // debts[from][_to] -= amount; // Corrected mapping reference\n        // balances[from] -= amount;\n        // amountOwed[_to]-=amount;\n\n        // // Check if total debt for this debtor is 0\n        // if (debts[from][_to]==0) {\n        //     // newToken= debtStatusTokens._issueDebtClearedToken(_to, address(this), amount);\n        //     emit DebtCleared(from, amount);\n        //     debtStatusTokens.safeTransferFrom(_to, from, newToken);\n        //     emit NFTTransfer(from,newToken);\n        // }\n    }\n\n    function getDebtClearedDetails(uint256 tokenId) external view returns (string memory) {\n        return debtStatusTokens.getDebtClearedDetails(tokenId);\n    }\n\n    function getParticipantAllExpensesDetails(address participant) public view returns \n    (   string[] memory, \n        uint256[] memory, \n        uint256[] memory, \n        address[] memory ,\n        address[][] memory\n    ) {\n    uint256[] memory participantExpenseIds = participantExpenses[participant];\n\n    uint256 length = participantExpenseIds.length;\n\n    string[] memory purposes = new string[](participantExpenseIds.length);\n    uint256[] memory totalAmounts = new uint256[](participantExpenseIds.length);\n    uint256[] memory individualShares = new uint256[](participantExpenseIds.length);\n    address[] memory creditors = new address[](participantExpenseIds.length);\n    address[][] memory participants = new address[][](participantExpenseIds.length);\n\n    for (uint256 i = 0; i < length; i++) {\n        uint256 expenseId = participantExpenseIds[i];\n        Expense storage expense = expenses[expenseId];\n\n        purposes[i] = expense.purpose;\n        totalAmounts[i] = expense.amount;\n        individualShares[i] = expense.share;\n        creditors[i] = expense.creditor;\n        participants[i] = expense.participants;\n    }\n\n    return (purposes, totalAmounts, individualShares, creditors, participants);\n    }\n\n    function totaldebts(address _to) external view returns (uint,uint) {\n        return (balances[_to],amountOwed[_to]);  // (You owe, You are owed)\n    }\n\n    function buySharedFundsTokens() public payable {\n        // Call buyTokens function of the SharedFunds contract\n        // require(msg.sender==buyer,\"Participant cannot purchase tokens for others\");\n        sharedFundsTokens.buyTokensFromOwner{value: msg.value}(msg.sender);\n    }\n\n    // Rest of the ERC-1155 functionalities...\n}\n\n\n/*\n0x5B38Da6a701c568545dCfcB03FcB875f56beddC4\n0xAb8483F64d9C6d1EcF9b849Ae677dD3315835cb2\n0x4B20993Bc481177ec7E8f571ceCaE8A9e22C02db\n0x78731D3Ca6b7E34aC0F824c42a7cC18A495cabaB\n\n[\"0x5B38Da6a701c568545dCfcB03FcB875f56beddC4\",\"0xAb8483F64d9C6d1EcF9b849Ae677dD3315835cb2\",\n\"0x78731D3Ca6b7E34aC0F824c42a7cC18A495cabaB\",\"0x4B20993Bc481177ec7E8f571ceCaE8A9e22C02db\"]\n\n\n\n----\n0x14F3a17407e1789C2a84687BA919faC48668C19e\n0x3F6d48B96Ea9d3Fd645b29515324C21B034BfFEd\n0x2Dd269010Fe7aB34e66aeBa2ccdE1D1822a71fC7\n[\"0x14F3a17407e1789C2a84687BA919faC48668C19e\",\n\"0x3F6d48B96Ea9d3Fd645b29515324C21B034BfFEd\"]\n\n\n*/",
  "sourcePath": "/Users/srivenkat/Documents/Block Chain/splitwise_app_deployment/contracts/ExpenseSplit.sol",
  "compiler": {
    "name": "solc",
    "version": "0.8.1+commit.df193b15.Emscripten.clang"
  },
  "schemaVersion": "3.4.16",
  "updatedAt": "2023-12-04T02:47:32.927Z",
  "networkType": "ethereum",
  "devdoc": {
    "kind": "dev",
    "methods": {
      "balanceOf(address,uint256)": {
        "details": "See {IERC1155-balanceOf}. Requirements: - `account` cannot be the zero address."
      },
      "balanceOfBatch(address[],uint256[])": {
        "details": "See {IERC1155-balanceOfBatch}. Requirements: - `accounts` and `ids` must have the same length."
      },
      "isApprovedForAll(address,address)": {
        "details": "See {IERC1155-isApprovedForAll}."
      },
      "safeBatchTransferFrom(address,address,uint256[],uint256[],bytes)": {
        "details": "See {IERC1155-safeBatchTransferFrom}."
      },
      "safeTransferFrom(address,address,uint256,uint256,bytes)": {
        "details": "See {IERC1155-safeTransferFrom}."
      },
      "setApprovalForAll(address,bool)": {
        "details": "See {IERC1155-setApprovalForAll}."
      },
      "supportsInterface(bytes4)": {
        "details": "See {IERC165-supportsInterface}."
      },
      "uri(uint256)": {
        "details": "See {IERC1155MetadataURI-uri}. This implementation returns the same URI for *all* token types. It relies on the token type ID substitution mechanism https://eips.ethereum.org/EIPS/eip-1155#metadata[defined in the EIP]. Clients calling this function must replace the `\\{id\\}` substring with the actual token type ID."
      }
    },
    "version": 1
  },
  "userdoc": {
    "kind": "user",
    "methods": {},
    "version": 1
  }
}