{
  "contractName": "SharedFunds",
  "abi": [
    {
      "inputs": [
        {
          "internalType": "uint256",
          "name": "rate",
          "type": "uint256"
        }
      ],
      "stateMutability": "nonpayable",
      "type": "constructor"
    },
    {
      "anonymous": false,
      "inputs": [
        {
          "indexed": true,
          "internalType": "address",
          "name": "owner",
          "type": "address"
        },
        {
          "indexed": true,
          "internalType": "address",
          "name": "spender",
          "type": "address"
        },
        {
          "indexed": false,
          "internalType": "uint256",
          "name": "value",
          "type": "uint256"
        }
      ],
      "name": "Approval",
      "type": "event"
    },
    {
      "anonymous": false,
      "inputs": [
        {
          "indexed": true,
          "internalType": "address",
          "name": "from",
          "type": "address"
        },
        {
          "indexed": true,
          "internalType": "address",
          "name": "to",
          "type": "address"
        },
        {
          "indexed": false,
          "internalType": "uint256",
          "name": "value",
          "type": "uint256"
        }
      ],
      "name": "Transfer",
      "type": "event"
    },
    {
      "anonymous": false,
      "inputs": [
        {
          "indexed": false,
          "internalType": "uint256",
          "name": "newFee",
          "type": "uint256"
        }
      ],
      "name": "TransferFeeChanged",
      "type": "event"
    },
    {
      "anonymous": false,
      "inputs": [
        {
          "indexed": true,
          "internalType": "address",
          "name": "from",
          "type": "address"
        },
        {
          "indexed": true,
          "internalType": "address",
          "name": "to",
          "type": "address"
        },
        {
          "indexed": false,
          "internalType": "uint256",
          "name": "value",
          "type": "uint256"
        },
        {
          "indexed": false,
          "internalType": "uint256",
          "name": "fee",
          "type": "uint256"
        }
      ],
      "name": "TransferWithFee",
      "type": "event"
    },
    {
      "inputs": [
        {
          "internalType": "address",
          "name": "owner",
          "type": "address"
        },
        {
          "internalType": "address",
          "name": "spender",
          "type": "address"
        }
      ],
      "name": "allowance",
      "outputs": [
        {
          "internalType": "uint256",
          "name": "",
          "type": "uint256"
        }
      ],
      "stateMutability": "view",
      "type": "function",
      "constant": true
    },
    {
      "inputs": [
        {
          "internalType": "address",
          "name": "spender",
          "type": "address"
        },
        {
          "internalType": "uint256",
          "name": "amount",
          "type": "uint256"
        }
      ],
      "name": "approve",
      "outputs": [
        {
          "internalType": "bool",
          "name": "",
          "type": "bool"
        }
      ],
      "stateMutability": "nonpayable",
      "type": "function"
    },
    {
      "inputs": [
        {
          "internalType": "address",
          "name": "account",
          "type": "address"
        }
      ],
      "name": "balanceOf",
      "outputs": [
        {
          "internalType": "uint256",
          "name": "",
          "type": "uint256"
        }
      ],
      "stateMutability": "view",
      "type": "function",
      "constant": true
    },
    {
      "inputs": [],
      "name": "decimals",
      "outputs": [
        {
          "internalType": "uint8",
          "name": "",
          "type": "uint8"
        }
      ],
      "stateMutability": "view",
      "type": "function",
      "constant": true
    },
    {
      "inputs": [
        {
          "internalType": "address",
          "name": "spender",
          "type": "address"
        },
        {
          "internalType": "uint256",
          "name": "subtractedValue",
          "type": "uint256"
        }
      ],
      "name": "decreaseAllowance",
      "outputs": [
        {
          "internalType": "bool",
          "name": "",
          "type": "bool"
        }
      ],
      "stateMutability": "nonpayable",
      "type": "function"
    },
    {
      "inputs": [],
      "name": "exchange_rate",
      "outputs": [
        {
          "internalType": "uint256",
          "name": "",
          "type": "uint256"
        }
      ],
      "stateMutability": "view",
      "type": "function",
      "constant": true
    },
    {
      "inputs": [
        {
          "internalType": "address",
          "name": "spender",
          "type": "address"
        },
        {
          "internalType": "uint256",
          "name": "addedValue",
          "type": "uint256"
        }
      ],
      "name": "increaseAllowance",
      "outputs": [
        {
          "internalType": "bool",
          "name": "",
          "type": "bool"
        }
      ],
      "stateMutability": "nonpayable",
      "type": "function"
    },
    {
      "inputs": [],
      "name": "isExchangeOpen",
      "outputs": [
        {
          "internalType": "bool",
          "name": "",
          "type": "bool"
        }
      ],
      "stateMutability": "view",
      "type": "function",
      "constant": true
    },
    {
      "inputs": [],
      "name": "name",
      "outputs": [
        {
          "internalType": "string",
          "name": "",
          "type": "string"
        }
      ],
      "stateMutability": "view",
      "type": "function",
      "constant": true
    },
    {
      "inputs": [],
      "name": "symbol",
      "outputs": [
        {
          "internalType": "string",
          "name": "",
          "type": "string"
        }
      ],
      "stateMutability": "view",
      "type": "function",
      "constant": true
    },
    {
      "inputs": [],
      "name": "totalSupply",
      "outputs": [
        {
          "internalType": "uint256",
          "name": "",
          "type": "uint256"
        }
      ],
      "stateMutability": "view",
      "type": "function",
      "constant": true
    },
    {
      "inputs": [
        {
          "internalType": "address",
          "name": "to",
          "type": "address"
        },
        {
          "internalType": "uint256",
          "name": "amount",
          "type": "uint256"
        }
      ],
      "name": "transfer",
      "outputs": [
        {
          "internalType": "bool",
          "name": "",
          "type": "bool"
        }
      ],
      "stateMutability": "nonpayable",
      "type": "function"
    },
    {
      "inputs": [],
      "name": "transferFee",
      "outputs": [
        {
          "internalType": "uint256",
          "name": "",
          "type": "uint256"
        }
      ],
      "stateMutability": "view",
      "type": "function",
      "constant": true
    },
    {
      "inputs": [
        {
          "internalType": "address",
          "name": "from",
          "type": "address"
        },
        {
          "internalType": "address",
          "name": "to",
          "type": "address"
        },
        {
          "internalType": "uint256",
          "name": "amount",
          "type": "uint256"
        }
      ],
      "name": "transferFrom",
      "outputs": [
        {
          "internalType": "bool",
          "name": "",
          "type": "bool"
        }
      ],
      "stateMutability": "nonpayable",
      "type": "function"
    },
    {
      "inputs": [],
      "name": "toggleExchange",
      "outputs": [],
      "stateMutability": "nonpayable",
      "type": "function"
    },
    {
      "inputs": [
        {
          "internalType": "uint256",
          "name": "rate",
          "type": "uint256"
        }
      ],
      "name": "changeExchangeRate",
      "outputs": [],
      "stateMutability": "nonpayable",
      "type": "function"
    },
    {
      "inputs": [
        {
          "internalType": "address",
          "name": "customer",
          "type": "address"
        }
      ],
      "name": "buyTokensFromOwner",
      "outputs": [],
      "stateMutability": "payable",
      "type": "function",
      "payable": true
    },
    {
      "inputs": [
        {
          "internalType": "uint256",
          "name": "_newFee",
          "type": "uint256"
        }
      ],
      "name": "changeTransferFee",
      "outputs": [],
      "stateMutability": "nonpayable",
      "type": "function"
    }
  ],
  "bytecode": "0x60806040523480156200001157600080fd5b506040516200220f3803806200220f8339818101604052810190620000379190620003ea565b6040518060400160405280600b81526020017f53686172656446756e64730000000000000000000000000000000000000000008152506040518060400160405280600281526020017f53460000000000000000000000000000000000000000000000000000000000008152508160039080519060200190620000bb92919062000323565b508060049080519060200190620000d492919062000323565b505050600081116200011d576040517f08c379a0000000000000000000000000000000000000000000000000000000008152600401620001149062000475565b60405180910390fd5b8060058190555033600660006101000a81548173ffffffffffffffffffffffffffffffffffffffff021916908373ffffffffffffffffffffffffffffffffffffffff16021790555060006007819055506001600860006101000a81548160ff021916908315150217905550620001a43369d3c21bcecceda1000000620001ab60201b60201c565b5062000674565b600073ffffffffffffffffffffffffffffffffffffffff168273ffffffffffffffffffffffffffffffffffffffff1614156200021e576040517f08c379a0000000000000000000000000000000000000000000000000000000008152600401620002159062000497565b60405180910390fd5b62000232600083836200031960201b60201c565b8060026000828254620002469190620004e7565b92505081905550806000808473ffffffffffffffffffffffffffffffffffffffff1673ffffffffffffffffffffffffffffffffffffffff168152602001908152602001600020600082825401925050819055508173ffffffffffffffffffffffffffffffffffffffff16600073ffffffffffffffffffffffffffffffffffffffff167fddf252ad1be2c89b69c2b068fc378daa952ba7f163c4a11628f55a4df523b3ef83604051620002f99190620004b9565b60405180910390a362000315600083836200031e60201b60201c565b5050565b505050565b505050565b82805462000331906200054e565b90600052602060002090601f016020900481019282620003555760008555620003a1565b82601f106200037057805160ff1916838001178555620003a1565b82800160010185558215620003a1579182015b82811115620003a057825182559160200191906001019062000383565b5b509050620003b09190620003b4565b5090565b5b80821115620003cf576000816000905550600101620003b5565b5090565b600081519050620003e4816200065a565b92915050565b600060208284031215620003fd57600080fd5b60006200040d84828501620003d3565b91505092915050565b600062000425602b83620004d6565b91506200043282620005e2565b604082019050919050565b60006200044c601f83620004d6565b9150620004598262000631565b602082019050919050565b6200046f8162000544565b82525050565b60006020820190508181036000830152620004908162000416565b9050919050565b60006020820190508181036000830152620004b2816200043d565b9050919050565b6000602082019050620004d0600083018462000464565b92915050565b600082825260208201905092915050565b6000620004f48262000544565b9150620005018362000544565b9250827fffffffffffffffffffffffffffffffffffffffffffffffffffffffffffffffff0382111562000539576200053862000584565b5b828201905092915050565b6000819050919050565b600060028204905060018216806200056757607f821691505b602082108114156200057e576200057d620005b3565b5b50919050565b7f4e487b7100000000000000000000000000000000000000000000000000000000600052601160045260246000fd5b7f4e487b7100000000000000000000000000000000000000000000000000000000600052602260045260246000fd5b7f45786368616e676520726174652063616e206e65766572206265206e6567617460008201527f697665206f72207a65726f000000000000000000000000000000000000000000602082015250565b7f45524332303a206d696e7420746f20746865207a65726f206164647265737300600082015250565b620006658162000544565b81146200067157600080fd5b50565b611b8b80620006846000396000f3fe6080604052600436106101095760003560e01c806365daaafe11610095578063a457c2d711610064578063a457c2d714610372578063a9059cbb146103af578063acb2ad6f146103ec578063b2b5405014610417578063dd62ed3e1461042e57610109565b806365daaafe146102c357806370a08231146102df57806395d89b411461031c57806396e715dc1461034757610109565b806318160ddd116100dc57806318160ddd146101ca578063215fce93146101f557806323b872dd1461021e578063313ce5671461025b578063395093511461028657610109565b806306fdde031461010e578063095ea7b314610139578063171ef0b214610176578063178b8378146101a1575b600080fd5b34801561011a57600080fd5b5061012361046b565b6040516101309190611418565b60405180910390f35b34801561014557600080fd5b50610160600480360381019061015b919061118e565b6104fd565b60405161016d91906113fd565b60405180910390f35b34801561018257600080fd5b5061018b610520565b60405161019891906115ba565b60405180910390f35b3480156101ad57600080fd5b506101c860048036038101906101c391906111ca565b610526565b005b3480156101d657600080fd5b506101df61063b565b6040516101ec91906115ba565b60405180910390f35b34801561020157600080fd5b5061021c600480360381019061021791906111ca565b610645565b005b34801561022a57600080fd5b506102456004803603810190610240919061113f565b6106df565b60405161025291906113fd565b60405180910390f35b34801561026757600080fd5b5061027061070e565b60405161027d91906115d5565b60405180910390f35b34801561029257600080fd5b506102ad60048036038101906102a8919061118e565b610717565b6040516102ba91906113fd565b60405180910390f35b6102dd60048036038101906102d891906110da565b61074e565b005b3480156102eb57600080fd5b50610306600480360381019061030191906110da565b6108ff565b60405161031391906115ba565b60405180910390f35b34801561032857600080fd5b50610331610947565b60405161033e9190611418565b60405180910390f35b34801561035357600080fd5b5061035c6109d9565b60405161036991906113fd565b60405180910390f35b34801561037e57600080fd5b506103996004803603810190610394919061118e565b6109ec565b6040516103a691906113fd565b60405180910390f35b3480156103bb57600080fd5b506103d660048036038101906103d1919061118e565b610a63565b6040516103e391906113fd565b60405180910390f35b3480156103f857600080fd5b50610401610a86565b60405161040e91906115ba565b60405180910390f35b34801561042357600080fd5b5061042c610a8c565b005b34801561043a57600080fd5b5061045560048036038101906104509190611103565b610b48565b60405161046291906115ba565b60405180910390f35b60606003805461047a90611744565b80601f01602080910402602001604051908101604052809291908181526020018280546104a690611744565b80156104f35780601f106104c8576101008083540402835291602001916104f3565b820191906000526020600020905b8154815290600101906020018083116104d657829003601f168201915b5050505050905090565b600080610508610bcf565b9050610515818585610bd7565b600191505092915050565b60055481565b600660009054906101000a900473ffffffffffffffffffffffffffffffffffffffff1673ffffffffffffffffffffffffffffffffffffffff163373ffffffffffffffffffffffffffffffffffffffff16146105b6576040517f08c379a00000000000000000000000000000000000000000000000000000000081526004016105ad9061155a565b60405180910390fd5b60648111156105fa576040517f08c379a00000000000000000000000000000000000000000000000000000000081526004016105f1906114fa565b60405180910390fd5b806007819055507f0496ed1e61eb69727f9659a8e859288db4758ffb1f744d1c1424634f90a257f48160405161063091906115ba565b60405180910390a150565b6000600254905090565b600660009054906101000a900473ffffffffffffffffffffffffffffffffffffffff1673ffffffffffffffffffffffffffffffffffffffff163373ffffffffffffffffffffffffffffffffffffffff16146106d5576040517f08c379a00000000000000000000000000000000000000000000000000000000081526004016106cc9061155a565b60405180910390fd5b8060058190555050565b6000806106ea610bcf565b90506106f7858285610da2565b610702858585610e2e565b60019150509392505050565b60006012905090565b600080610722610bcf565b90506107438185856107348589610b48565b61073e919061160c565b610bd7565b600191505092915050565b600860009054906101000a900460ff1661079d576040517f08c379a00000000000000000000000000000000000000000000000000000000081526004016107949061151a565b60405180910390fd5b6000349050600081116107e5576040517f08c379a00000000000000000000000000000000000000000000000000000000081526004016107dc9061143a565b60405180910390fd5b6000600554826107f59190611662565b905080610823600660009054906101000a900473ffffffffffffffffffffffffffffffffffffffff166108ff565b1015610864576040517f08c379a000000000000000000000000000000000000000000000000000000000815260040161085b906114da565b60405180910390fd5b600660009054906101000a900473ffffffffffffffffffffffffffffffffffffffff1673ffffffffffffffffffffffffffffffffffffffff166108fc349081150290604051600060405180830381858888f193505050501580156108cc573d6000803e3d6000fd5b506108fa600660009054906101000a900473ffffffffffffffffffffffffffffffffffffffff168483610e2e565b505050565b60008060008373ffffffffffffffffffffffffffffffffffffffff1673ffffffffffffffffffffffffffffffffffffffff168152602001908152602001600020549050919050565b60606004805461095690611744565b80601f016020809104026020016040519081016040528092919081815260200182805461098290611744565b80156109cf5780601f106109a4576101008083540402835291602001916109cf565b820191906000526020600020905b8154815290600101906020018083116109b257829003601f168201915b5050505050905090565b600860009054906101000a900460ff1681565b6000806109f7610bcf565b90506000610a058286610b48565b905083811015610a4a576040517f08c379a0000000000000000000000000000000000000000000000000000000008152600401610a419061159a565b60405180910390fd5b610a578286868403610bd7565b60019250505092915050565b600080610a6e610bcf565b9050610a7b818585610e2e565b600191505092915050565b60075481565b600660009054906101000a900473ffffffffffffffffffffffffffffffffffffffff1673ffffffffffffffffffffffffffffffffffffffff163373ffffffffffffffffffffffffffffffffffffffff1614610b1c576040517f08c379a0000000000000000000000000000000000000000000000000000000008152600401610b139061155a565b60405180910390fd5b600860009054906101000a900460ff1615600860006101000a81548160ff021916908315150217905550565b6000600160008473ffffffffffffffffffffffffffffffffffffffff1673ffffffffffffffffffffffffffffffffffffffff16815260200190815260200160002060008373ffffffffffffffffffffffffffffffffffffffff1673ffffffffffffffffffffffffffffffffffffffff16815260200190815260200160002054905092915050565b600033905090565b600073ffffffffffffffffffffffffffffffffffffffff168373ffffffffffffffffffffffffffffffffffffffff161415610c47576040517f08c379a0000000000000000000000000000000000000000000000000000000008152600401610c3e9061157a565b60405180910390fd5b600073ffffffffffffffffffffffffffffffffffffffff168273ffffffffffffffffffffffffffffffffffffffff161415610cb7576040517f08c379a0000000000000000000000000000000000000000000000000000000008152600401610cae9061147a565b60405180910390fd5b80600160008573ffffffffffffffffffffffffffffffffffffffff1673ffffffffffffffffffffffffffffffffffffffff16815260200190815260200160002060008473ffffffffffffffffffffffffffffffffffffffff1673ffffffffffffffffffffffffffffffffffffffff168152602001908152602001600020819055508173ffffffffffffffffffffffffffffffffffffffff168373ffffffffffffffffffffffffffffffffffffffff167f8c5be1e5ebec7d5bd14f71427d1e84f3dd0314c0f7b2291e5b200ac8c7c3b92583604051610d9591906115ba565b60405180910390a3505050565b6000610dae8484610b48565b90507fffffffffffffffffffffffffffffffffffffffffffffffffffffffffffffffff8114610e285781811015610e1a576040517f08c379a0000000000000000000000000000000000000000000000000000000008152600401610e119061149a565b60405180910390fd5b610e278484848403610bd7565b5b50505050565b600073ffffffffffffffffffffffffffffffffffffffff168373ffffffffffffffffffffffffffffffffffffffff161415610e9e576040517f08c379a0000000000000000000000000000000000000000000000000000000008152600401610e959061153a565b60405180910390fd5b600073ffffffffffffffffffffffffffffffffffffffff168273ffffffffffffffffffffffffffffffffffffffff161415610f0e576040517f08c379a0000000000000000000000000000000000000000000000000000000008152600401610f059061145a565b60405180910390fd5b610f198383836110a6565b60008060008573ffffffffffffffffffffffffffffffffffffffff1673ffffffffffffffffffffffffffffffffffffffff16815260200190815260200160002054905081811015610f9f576040517f08c379a0000000000000000000000000000000000000000000000000000000008152600401610f96906114ba565b60405180910390fd5b8181036000808673ffffffffffffffffffffffffffffffffffffffff1673ffffffffffffffffffffffffffffffffffffffff16815260200190815260200160002081905550816000808573ffffffffffffffffffffffffffffffffffffffff1673ffffffffffffffffffffffffffffffffffffffff168152602001908152602001600020600082825401925050819055508273ffffffffffffffffffffffffffffffffffffffff168473ffffffffffffffffffffffffffffffffffffffff167fddf252ad1be2c89b69c2b068fc378daa952ba7f163c4a11628f55a4df523b3ef8460405161108d91906115ba565b60405180910390a36110a08484846110ab565b50505050565b505050565b505050565b6000813590506110bf81611b27565b92915050565b6000813590506110d481611b3e565b92915050565b6000602082840312156110ec57600080fd5b60006110fa848285016110b0565b91505092915050565b6000806040838503121561111657600080fd5b6000611124858286016110b0565b9250506020611135858286016110b0565b9150509250929050565b60008060006060848603121561115457600080fd5b6000611162868287016110b0565b9350506020611173868287016110b0565b9250506040611184868287016110c5565b9150509250925092565b600080604083850312156111a157600080fd5b60006111af858286016110b0565b92505060206111c0858286016110c5565b9150509250929050565b6000602082840312156111dc57600080fd5b60006111ea848285016110c5565b91505092915050565b6111fc816116ce565b82525050565b600061120d826115f0565b61121781856115fb565b9350611227818560208601611711565b611230816117d4565b840191505092915050565b60006112486028836115fb565b9150611253826117e5565b604082019050919050565b600061126b6023836115fb565b915061127682611834565b604082019050919050565b600061128e6022836115fb565b915061129982611883565b604082019050919050565b60006112b1601d836115fb565b91506112bc826118d2565b602082019050919050565b60006112d46026836115fb565b91506112df826118fb565b604082019050919050565b60006112f76021836115fb565b91506113028261194a565b604082019050919050565b600061131a600b836115fb565b915061132582611999565b602082019050919050565b600061133d6012836115fb565b9150611348826119c2565b602082019050919050565b60006113606025836115fb565b915061136b826119eb565b604082019050919050565b60006113836025836115fb565b915061138e82611a3a565b604082019050919050565b60006113a66024836115fb565b91506113b182611a89565b604082019050919050565b60006113c96025836115fb565b91506113d482611ad8565b604082019050919050565b6113e8816116fa565b82525050565b6113f781611704565b82525050565b600060208201905061141260008301846111f3565b92915050565b600060208201905081810360008301526114328184611202565b905092915050565b600060208201905081810360008301526114538161123b565b9050919050565b600060208201905081810360008301526114738161125e565b9050919050565b6000602082019050818103600083015261149381611281565b9050919050565b600060208201905081810360008301526114b3816112a4565b9050919050565b600060208201905081810360008301526114d3816112c7565b9050919050565b600060208201905081810360008301526114f3816112ea565b9050919050565b600060208201905081810360008301526115138161130d565b9050919050565b6000602082019050818103600083015261153381611330565b9050919050565b6000602082019050818103600083015261155381611353565b9050919050565b6000602082019050818103600083015261157381611376565b9050919050565b6000602082019050818103600083015261159381611399565b9050919050565b600060208201905081810360008301526115b3816113bc565b9050919050565b60006020820190506115cf60008301846113df565b92915050565b60006020820190506115ea60008301846113ee565b92915050565b600081519050919050565b600082825260208201905092915050565b6000611617826116fa565b9150611622836116fa565b9250827fffffffffffffffffffffffffffffffffffffffffffffffffffffffffffffffff0382111561165757611656611776565b5b828201905092915050565b600061166d826116fa565b9150611678836116fa565b9250817fffffffffffffffffffffffffffffffffffffffffffffffffffffffffffffffff04831182151516156116b1576116b0611776565b5b828202905092915050565b60006116c7826116da565b9050919050565b60008115159050919050565b600073ffffffffffffffffffffffffffffffffffffffff82169050919050565b6000819050919050565b600060ff82169050919050565b60005b8381101561172f578082015181840152602081019050611714565b8381111561173e576000848401525b50505050565b6000600282049050600182168061175c57607f821691505b602082108114156117705761176f6117a5565b5b50919050565b7f4e487b7100000000000000000000000000000000000000000000000000000000600052601160045260246000fd5b7f4e487b7100000000000000000000000000000000000000000000000000000000600052602260045260246000fd5b6000601f19601f8301169050919050565b7f53656e7420457468657220616d6f756e74206d7573742062652067726561746560008201527f72207468616e2030000000000000000000000000000000000000000000000000602082015250565b7f45524332303a207472616e7366657220746f20746865207a65726f206164647260008201527f6573730000000000000000000000000000000000000000000000000000000000602082015250565b7f45524332303a20617070726f766520746f20746865207a65726f20616464726560008201527f7373000000000000000000000000000000000000000000000000000000000000602082015250565b7f45524332303a20696e73756666696369656e7420616c6c6f77616e6365000000600082015250565b7f45524332303a207472616e7366657220616d6f756e742065786365656473206260008201527f616c616e63650000000000000000000000000000000000000000000000000000602082015250565b7f4f776e657220646f6573206e6f74206861766520656e6f75676820746f6b656e60008201527f7300000000000000000000000000000000000000000000000000000000000000602082015250565b7f496e76616c696420666565000000000000000000000000000000000000000000600082015250565b7f45786368616e676520697320636c6f7365640000000000000000000000000000600082015250565b7f45524332303a207472616e736665722066726f6d20746865207a65726f20616460008201527f6472657373000000000000000000000000000000000000000000000000000000602082015250565b7f4f6e6c79206f776e65722063616e20706572666f726d2074686973206f70657260008201527f6174696f6e000000000000000000000000000000000000000000000000000000602082015250565b7f45524332303a20617070726f76652066726f6d20746865207a65726f2061646460008201527f7265737300000000000000000000000000000000000000000000000000000000602082015250565b7f45524332303a2064656372656173656420616c6c6f77616e63652062656c6f7760008201527f207a65726f000000000000000000000000000000000000000000000000000000602082015250565b611b30816116bc565b8114611b3b57600080fd5b50565b611b47816116fa565b8114611b5257600080fd5b5056fea264697066735822122093310203f46907b5533f59bdf99bbaa00ce4a68a14483deec4cf2fbc653b36b664736f6c63430008010033",
  "immutableReferences": {},
  "source": "// SPDX-License-Identifier: MIT\npragma solidity ^0.8.0;\n\nimport \"@openzeppelin/contracts/token/ERC20/ERC20.sol\";\n\ncontract SharedFunds is ERC20 {\n    uint256 public exchange_rate; // Number of tokens per Ether\n    address payable owner;\n    uint256 public transferFee;\n    bool public isExchangeOpen;\n\n    event TransferWithFee(address indexed from, address indexed to, uint256 value, uint256 fee);\n    event TransferFeeChanged(uint256 newFee);\n    \n    modifier whenExchangeOpen() {\n        require(isExchangeOpen, \"Exchange is closed\");\n        _;\n    }\n\n    modifier onlyOwner() {\n        require(msg.sender == owner, \"Only owner can perform this operation\");\n        _;\n    }\n\n    constructor(uint rate) ERC20(\"SharedFunds\", \"SF\") {\n        require(rate>0, \"Exchange rate can never be negative or zero\");\n        exchange_rate = rate;\n        owner = payable(msg.sender);\n        transferFee = 0; // Initial transfer fee is 0%\n        isExchangeOpen = true;\n        _mint(msg.sender, 1000000 * 10 ** 18);\n    }\n    \n    function toggleExchange() external onlyOwner {\n        isExchangeOpen = !isExchangeOpen;\n    }\n\n    // Allows owner to change the exchange rate\n    function changeExchangeRate(uint rate) public onlyOwner {\n        exchange_rate = rate;\n    }\n\n    //buy tokens by giving ether\n    \n    function buyTokensFromOwner(address customer) public payable whenExchangeOpen {\n        uint256 etherAmount = (msg.value); \n        require(etherAmount > 0, \"Sent Ether amount must be greater than 0\");\n        uint256 tokenAmount = etherAmount * exchange_rate;\n\n        require(balanceOf(owner) >= tokenAmount, \"Owner does not have enough tokens\");\n        payable(owner).transfer(msg.value);\n        _transfer(owner, customer, tokenAmount);\n    }\n\n    function changeTransferFee(uint256 _newFee) external onlyOwner {\n        require(_newFee <= 100, \"Invalid fee\"); // Fee should be less than or equal to 100%\n        transferFee = _newFee;\n        emit TransferFeeChanged(_newFee);\n    }\n\n}\n\n/*\n0x5B38Da6a701c568545dCfcB03FcB875f56beddC4\n0xAb8483F64d9C6d1EcF9b849Ae677dD3315835cb2\n0x4B20993Bc481177ec7E8f571ceCaE8A9e22C02db\n0x78731D3Ca6b7E34aC0F824c42a7cC18A495cabaB\n*/",
  "sourcePath": "/Users/srivenkat/Documents/Block Chain/splitwise_app_deployment/contracts/SharedFunds.sol",
  "compiler": {
    "name": "solc",
    "version": "0.8.1+commit.df193b15.Emscripten.clang"
  },
  "schemaVersion": "3.4.16",
  "updatedAt": "2023-12-04T02:47:32.939Z",
  "networkType": "ethereum",
  "devdoc": {
    "kind": "dev",
    "methods": {
      "allowance(address,address)": {
        "details": "See {IERC20-allowance}."
      },
      "approve(address,uint256)": {
        "details": "See {IERC20-approve}. NOTE: If `amount` is the maximum `uint256`, the allowance is not updated on `transferFrom`. This is semantically equivalent to an infinite approval. Requirements: - `spender` cannot be the zero address."
      },
      "balanceOf(address)": {
        "details": "See {IERC20-balanceOf}."
      },
      "decimals()": {
        "details": "Returns the number of decimals used to get its user representation. For example, if `decimals` equals `2`, a balance of `505` tokens should be displayed to a user as `5.05` (`505 / 10 ** 2`). Tokens usually opt for a value of 18, imitating the relationship between Ether and Wei. This is the default value returned by this function, unless it's overridden. NOTE: This information is only used for _display_ purposes: it in no way affects any of the arithmetic of the contract, including {IERC20-balanceOf} and {IERC20-transfer}."
      },
      "decreaseAllowance(address,uint256)": {
        "details": "Atomically decreases the allowance granted to `spender` by the caller. This is an alternative to {approve} that can be used as a mitigation for problems described in {IERC20-approve}. Emits an {Approval} event indicating the updated allowance. Requirements: - `spender` cannot be the zero address. - `spender` must have allowance for the caller of at least `subtractedValue`."
      },
      "increaseAllowance(address,uint256)": {
        "details": "Atomically increases the allowance granted to `spender` by the caller. This is an alternative to {approve} that can be used as a mitigation for problems described in {IERC20-approve}. Emits an {Approval} event indicating the updated allowance. Requirements: - `spender` cannot be the zero address."
      },
      "name()": {
        "details": "Returns the name of the token."
      },
      "symbol()": {
        "details": "Returns the symbol of the token, usually a shorter version of the name."
      },
      "totalSupply()": {
        "details": "See {IERC20-totalSupply}."
      },
      "transfer(address,uint256)": {
        "details": "See {IERC20-transfer}. Requirements: - `to` cannot be the zero address. - the caller must have a balance of at least `amount`."
      },
      "transferFrom(address,address,uint256)": {
        "details": "See {IERC20-transferFrom}. Emits an {Approval} event indicating the updated allowance. This is not required by the EIP. See the note at the beginning of {ERC20}. NOTE: Does not update the allowance if the current allowance is the maximum `uint256`. Requirements: - `from` and `to` cannot be the zero address. - `from` must have a balance of at least `amount`. - the caller must have allowance for ``from``'s tokens of at least `amount`."
      }
    },
    "version": 1
  },
  "userdoc": {
    "kind": "user",
    "methods": {},
    "version": 1
  }
}