{
  "contractName": "DebtStatusTokens",
  "abi": [
    {
      "inputs": [],
      "stateMutability": "nonpayable",
      "type": "constructor"
    },
    {
      "anonymous": false,
      "inputs": [
        {
          "indexed": true,
          "internalType": "address",
          "name": "owner",
          "type": "address"
        },
        {
          "indexed": true,
          "internalType": "address",
          "name": "approved",
          "type": "address"
        },
        {
          "indexed": true,
          "internalType": "uint256",
          "name": "tokenId",
          "type": "uint256"
        }
      ],
      "name": "Approval",
      "type": "event"
    },
    {
      "anonymous": false,
      "inputs": [
        {
          "indexed": true,
          "internalType": "address",
          "name": "owner",
          "type": "address"
        },
        {
          "indexed": true,
          "internalType": "address",
          "name": "operator",
          "type": "address"
        },
        {
          "indexed": false,
          "internalType": "bool",
          "name": "approved",
          "type": "bool"
        }
      ],
      "name": "ApprovalForAll",
      "type": "event"
    },
    {
      "anonymous": false,
      "inputs": [
        {
          "indexed": false,
          "internalType": "uint256",
          "name": "_fromTokenId",
          "type": "uint256"
        },
        {
          "indexed": false,
          "internalType": "uint256",
          "name": "_toTokenId",
          "type": "uint256"
        }
      ],
      "name": "BatchMetadataUpdate",
      "type": "event"
    },
    {
      "anonymous": false,
      "inputs": [
        {
          "indexed": false,
          "internalType": "uint256",
          "name": "_tokenId",
          "type": "uint256"
        }
      ],
      "name": "MetadataUpdate",
      "type": "event"
    },
    {
      "anonymous": false,
      "inputs": [
        {
          "indexed": true,
          "internalType": "address",
          "name": "recipient",
          "type": "address"
        },
        {
          "indexed": false,
          "internalType": "uint256",
          "name": "tokenId",
          "type": "uint256"
        },
        {
          "indexed": false,
          "internalType": "string",
          "name": "tokenType",
          "type": "string"
        }
      ],
      "name": "TokenMinted",
      "type": "event"
    },
    {
      "anonymous": false,
      "inputs": [
        {
          "indexed": true,
          "internalType": "address",
          "name": "from",
          "type": "address"
        },
        {
          "indexed": true,
          "internalType": "address",
          "name": "to",
          "type": "address"
        },
        {
          "indexed": true,
          "internalType": "uint256",
          "name": "tokenId",
          "type": "uint256"
        }
      ],
      "name": "Transfer",
      "type": "event"
    },
    {
      "inputs": [
        {
          "internalType": "address",
          "name": "to",
          "type": "address"
        },
        {
          "internalType": "uint256",
          "name": "tokenId",
          "type": "uint256"
        }
      ],
      "name": "approve",
      "outputs": [],
      "stateMutability": "nonpayable",
      "type": "function"
    },
    {
      "inputs": [
        {
          "internalType": "address",
          "name": "owner",
          "type": "address"
        }
      ],
      "name": "balanceOf",
      "outputs": [
        {
          "internalType": "uint256",
          "name": "",
          "type": "uint256"
        }
      ],
      "stateMutability": "view",
      "type": "function",
      "constant": true
    },
    {
      "inputs": [
        {
          "internalType": "uint256",
          "name": "tokenId",
          "type": "uint256"
        }
      ],
      "name": "getApproved",
      "outputs": [
        {
          "internalType": "address",
          "name": "",
          "type": "address"
        }
      ],
      "stateMutability": "view",
      "type": "function",
      "constant": true
    },
    {
      "inputs": [
        {
          "internalType": "address",
          "name": "owner",
          "type": "address"
        },
        {
          "internalType": "address",
          "name": "operator",
          "type": "address"
        }
      ],
      "name": "isApprovedForAll",
      "outputs": [
        {
          "internalType": "bool",
          "name": "",
          "type": "bool"
        }
      ],
      "stateMutability": "view",
      "type": "function",
      "constant": true
    },
    {
      "inputs": [],
      "name": "name",
      "outputs": [
        {
          "internalType": "string",
          "name": "",
          "type": "string"
        }
      ],
      "stateMutability": "view",
      "type": "function",
      "constant": true
    },
    {
      "inputs": [
        {
          "internalType": "uint256",
          "name": "tokenId",
          "type": "uint256"
        }
      ],
      "name": "ownerOf",
      "outputs": [
        {
          "internalType": "address",
          "name": "",
          "type": "address"
        }
      ],
      "stateMutability": "view",
      "type": "function",
      "constant": true
    },
    {
      "inputs": [
        {
          "internalType": "address",
          "name": "from",
          "type": "address"
        },
        {
          "internalType": "address",
          "name": "to",
          "type": "address"
        },
        {
          "internalType": "uint256",
          "name": "tokenId",
          "type": "uint256"
        }
      ],
      "name": "safeTransferFrom",
      "outputs": [],
      "stateMutability": "nonpayable",
      "type": "function"
    },
    {
      "inputs": [
        {
          "internalType": "address",
          "name": "from",
          "type": "address"
        },
        {
          "internalType": "address",
          "name": "to",
          "type": "address"
        },
        {
          "internalType": "uint256",
          "name": "tokenId",
          "type": "uint256"
        },
        {
          "internalType": "bytes",
          "name": "data",
          "type": "bytes"
        }
      ],
      "name": "safeTransferFrom",
      "outputs": [],
      "stateMutability": "nonpayable",
      "type": "function"
    },
    {
      "inputs": [
        {
          "internalType": "address",
          "name": "operator",
          "type": "address"
        },
        {
          "internalType": "bool",
          "name": "approved",
          "type": "bool"
        }
      ],
      "name": "setApprovalForAll",
      "outputs": [],
      "stateMutability": "nonpayable",
      "type": "function"
    },
    {
      "inputs": [
        {
          "internalType": "bytes4",
          "name": "interfaceId",
          "type": "bytes4"
        }
      ],
      "name": "supportsInterface",
      "outputs": [
        {
          "internalType": "bool",
          "name": "",
          "type": "bool"
        }
      ],
      "stateMutability": "view",
      "type": "function",
      "constant": true
    },
    {
      "inputs": [],
      "name": "symbol",
      "outputs": [
        {
          "internalType": "string",
          "name": "",
          "type": "string"
        }
      ],
      "stateMutability": "view",
      "type": "function",
      "constant": true
    },
    {
      "inputs": [
        {
          "internalType": "uint256",
          "name": "tokenId",
          "type": "uint256"
        }
      ],
      "name": "tokenURI",
      "outputs": [
        {
          "internalType": "string",
          "name": "",
          "type": "string"
        }
      ],
      "stateMutability": "view",
      "type": "function",
      "constant": true
    },
    {
      "inputs": [
        {
          "internalType": "address",
          "name": "from",
          "type": "address"
        },
        {
          "internalType": "address",
          "name": "to",
          "type": "address"
        },
        {
          "internalType": "uint256",
          "name": "tokenId",
          "type": "uint256"
        }
      ],
      "name": "transferFrom",
      "outputs": [],
      "stateMutability": "nonpayable",
      "type": "function"
    },
    {
      "inputs": [
        {
          "internalType": "address",
          "name": "recipient",
          "type": "address"
        },
        {
          "internalType": "uint256",
          "name": "amountCleared",
          "type": "uint256"
        }
      ],
      "name": "_issueDebtClearedToken",
      "outputs": [
        {
          "internalType": "uint256",
          "name": "",
          "type": "uint256"
        }
      ],
      "stateMutability": "nonpayable",
      "type": "function"
    },
    {
      "inputs": [
        {
          "internalType": "uint256",
          "name": "tokenId",
          "type": "uint256"
        }
      ],
      "name": "getDebtClearedDetails",
      "outputs": [
        {
          "internalType": "string",
          "name": "",
          "type": "string"
        }
      ],
      "stateMutability": "view",
      "type": "function",
      "constant": true
    }
  ],
  "bytecode": "0x60806040523480156200001157600080fd5b506040518060400160405280601281526020017f446562742053746174757320546f6b656e7300000000000000000000000000008152506040518060400160405280600381526020017f4453540000000000000000000000000000000000000000000000000000000000815250816000908051906020019062000096929190620000b8565b508060019080519060200190620000af929190620000b8565b505050620001cd565b828054620000c69062000168565b90600052602060002090601f016020900481019282620000ea576000855562000136565b82601f106200010557805160ff191683800117855562000136565b8280016001018555821562000136579182015b828111156200013557825182559160200191906001019062000118565b5b50905062000145919062000149565b5090565b5b80821115620001645760008160009055506001016200014a565b5090565b600060028204905060018216806200018157607f821691505b602082108114156200019857620001976200019e565b5b50919050565b7f4e487b7100000000000000000000000000000000000000000000000000000000600052602260045260246000fd5b612db080620001dd6000396000f3fe608060405234801561001057600080fd5b50600436106100f55760003560e01c80636352211e11610097578063b88d4fde11610066578063b88d4fde14610296578063c87b56dd146102b2578063d0508d8c146102e2578063e985e9c514610312576100f5565b80636352211e146101fc57806370a082311461022c57806395d89b411461025c578063a22cb4651461027a576100f5565b8063095ea7b3116100d3578063095ea7b31461017857806322b768221461019457806323b872dd146101c457806342842e0e146101e0576100f5565b806301ffc9a7146100fa57806306fdde031461012a578063081812fc14610148575b600080fd5b610114600480360381019061010f91906120d7565b610342565b6040516101219190612517565b60405180910390f35b6101326103a3565b60405161013f9190612532565b60405180910390f35b610162600480360381019061015d9190612129565b610435565b60405161016f91906124b0565b60405180910390f35b610192600480360381019061018d919061209b565b61047b565b005b6101ae60048036038101906101a9919061209b565b610593565b6040516101bb91906126f4565b60405180910390f35b6101de60048036038101906101d99190611f95565b6106c3565b005b6101fa60048036038101906101f59190611f95565b610723565b005b61021660048036038101906102119190612129565b610743565b60405161022391906124b0565b60405180910390f35b61024660048036038101906102419190611f07565b6107ca565b60405161025391906126f4565b60405180910390f35b610264610882565b6040516102719190612532565b60405180910390f35b610294600480360381019061028f919061205f565b610914565b005b6102b060048036038101906102ab9190611fe4565b61092a565b005b6102cc60048036038101906102c79190612129565b61098c565b6040516102d99190612532565b60405180910390f35b6102fc60048036038101906102f79190612129565b610a9f565b6040516103099190612532565b60405180910390f35b61032c60048036038101906103279190611f59565b610b73565b6040516103399190612517565b60405180910390f35b6000634906490660e01b7bffffffffffffffffffffffffffffffffffffffffffffffffffffffff1916827bffffffffffffffffffffffffffffffffffffffffffffffffffffffff1916148061039c575061039b82610c07565b5b9050919050565b6060600080546103b29061288c565b80601f01602080910402602001604051908101604052809291908181526020018280546103de9061288c565b801561042b5780601f106104005761010080835404028352916020019161042b565b820191906000526020600020905b81548152906001019060200180831161040e57829003601f168201915b5050505050905090565b600061044082610ce9565b6004600083815260200190815260200160002060009054906101000a900473ffffffffffffffffffffffffffffffffffffffff169050919050565b600061048682610743565b90508073ffffffffffffffffffffffffffffffffffffffff168373ffffffffffffffffffffffffffffffffffffffff1614156104f7576040517f08c379a00000000000000000000000000000000000000000000000000000000081526004016104ee906126b4565b60405180910390fd5b8073ffffffffffffffffffffffffffffffffffffffff16610516610d34565b73ffffffffffffffffffffffffffffffffffffffff16148061054557506105448161053f610d34565b610b73565b5b610584576040517f08c379a000000000000000000000000000000000000000000000000000000000815260040161057b906126d4565b60405180910390fd5b61058e8383610d3c565b505050565b60008060405180606001604052808481526020014281526020016040518060400160405280600e81526020017f416c6c20536574746c656420557000000000000000000000000000000000000081525081525090506105f26007610df5565b60006105fe6007610e0b565b905061060a8582610e19565b600061061583610e37565b90506106218282610e7a565b826008600084815260200190815260200160002060008201518160000155602082015181600101556040820151816002019080519060200190610665929190611d7e565b509050508573ffffffffffffffffffffffffffffffffffffffff167fdf92894dc4675a7333caa5903b69cf5d8e8ec0d3f361c88207b6688e525703bb836040516106af919061270f565b60405180910390a281935050505092915050565b6106d46106ce610d34565b82610f25565b610713576040517f08c379a000000000000000000000000000000000000000000000000000000000815260040161070a90612554565b60405180910390fd5b61071e838383610fba565b505050565b61073e8383836040518060200160405280600081525061092a565b505050565b60008061074f836112b4565b9050600073ffffffffffffffffffffffffffffffffffffffff168173ffffffffffffffffffffffffffffffffffffffff1614156107c1576040517f08c379a00000000000000000000000000000000000000000000000000000000081526004016107b890612694565b60405180910390fd5b80915050919050565b60008073ffffffffffffffffffffffffffffffffffffffff168273ffffffffffffffffffffffffffffffffffffffff16141561083b576040517f08c379a000000000000000000000000000000000000000000000000000000000815260040161083290612634565b60405180910390fd5b600360008373ffffffffffffffffffffffffffffffffffffffff1673ffffffffffffffffffffffffffffffffffffffff168152602001908152602001600020549050919050565b6060600180546108919061288c565b80601f01602080910402602001604051908101604052809291908181526020018280546108bd9061288c565b801561090a5780601f106108df5761010080835404028352916020019161090a565b820191906000526020600020905b8154815290600101906020018083116108ed57829003601f168201915b5050505050905090565b61092661091f610d34565b83836112f1565b5050565b61093b610935610d34565b83610f25565b61097a576040517f08c379a000000000000000000000000000000000000000000000000000000000815260040161097190612554565b60405180910390fd5b6109868484848461145e565b50505050565b606061099782610ce9565b60006006600084815260200190815260200160002080546109b79061288c565b80601f01602080910402602001604051908101604052809291908181526020018280546109e39061288c565b8015610a305780601f10610a0557610100808354040283529160200191610a30565b820191906000526020600020905b815481529060010190602001808311610a1357829003601f168201915b505050505090506000610a416114ba565b9050600081511415610a57578192505050610a9a565b600082511115610a8c578082604051602001610a74929190612452565b60405160208183030381529060405292505050610a9a565b610a95846114d1565b925050505b919050565b60603073ffffffffffffffffffffffffffffffffffffffff16636352211e836040518263ffffffff1660e01b8152600401610ada91906126f4565b60206040518083038186803b158015610af257600080fd5b505afa925050508015610b2357506040513d601f19601f82011682018060405250810190610b209190611f30565b60015b610b62576040517f08c379a0000000000000000000000000000000000000000000000000000000008152600401610b5990612574565b60405180910390fd5b610b6b8361098c565b915050919050565b6000600560008473ffffffffffffffffffffffffffffffffffffffff1673ffffffffffffffffffffffffffffffffffffffff16815260200190815260200160002060008373ffffffffffffffffffffffffffffffffffffffff1673ffffffffffffffffffffffffffffffffffffffff16815260200190815260200160002060009054906101000a900460ff16905092915050565b60007f80ac58cd000000000000000000000000000000000000000000000000000000007bffffffffffffffffffffffffffffffffffffffffffffffffffffffff1916827bffffffffffffffffffffffffffffffffffffffffffffffffffffffff19161480610cd257507f5b5e139f000000000000000000000000000000000000000000000000000000007bffffffffffffffffffffffffffffffffffffffffffffffffffffffff1916827bffffffffffffffffffffffffffffffffffffffffffffffffffffffff1916145b80610ce25750610ce182611539565b5b9050919050565b610cf2816115a3565b610d31576040517f08c379a0000000000000000000000000000000000000000000000000000000008152600401610d2890612694565b60405180910390fd5b50565b600033905090565b816004600083815260200190815260200160002060006101000a81548173ffffffffffffffffffffffffffffffffffffffff021916908373ffffffffffffffffffffffffffffffffffffffff160217905550808273ffffffffffffffffffffffffffffffffffffffff16610daf83610743565b73ffffffffffffffffffffffffffffffffffffffff167f8c5be1e5ebec7d5bd14f71427d1e84f3dd0314c0f7b2291e5b200ac8c7c3b92560405160405180910390a45050565b6001816000016000828254019250508190555050565b600081600001549050919050565b610e338282604051806020016040528060008152506115e4565b5050565b6060610e46826000015161163f565b610e53836020015161163f565b604051602001610e64929190612476565b6040516020818303038152906040529050919050565b610e83826115a3565b610ec2576040517f08c379a0000000000000000000000000000000000000000000000000000000008152600401610eb990612654565b60405180910390fd5b80600660008481526020019081526020016000209080519060200190610ee9929190611d7e565b507ff8e1a15aba9398e019f0b49df1a4fde98ee17ae345cb5f6b5e2c27f5033e8ce782604051610f1991906126f4565b60405180910390a15050565b600080610f3183610743565b90508073ffffffffffffffffffffffffffffffffffffffff168473ffffffffffffffffffffffffffffffffffffffff161480610f735750610f728185610b73565b5b80610fb157508373ffffffffffffffffffffffffffffffffffffffff16610f9984610435565b73ffffffffffffffffffffffffffffffffffffffff16145b91505092915050565b8273ffffffffffffffffffffffffffffffffffffffff16610fda82610743565b73ffffffffffffffffffffffffffffffffffffffff1614611030576040517f08c379a0000000000000000000000000000000000000000000000000000000008152600401611027906125b4565b60405180910390fd5b600073ffffffffffffffffffffffffffffffffffffffff168273ffffffffffffffffffffffffffffffffffffffff1614156110a0576040517f08c379a0000000000000000000000000000000000000000000000000000000008152600401611097906125f4565b60405180910390fd5b6110ad8383836001611763565b8273ffffffffffffffffffffffffffffffffffffffff166110cd82610743565b73ffffffffffffffffffffffffffffffffffffffff1614611123576040517f08c379a000000000000000000000000000000000000000000000000000000000815260040161111a906125b4565b60405180910390fd5b6004600082815260200190815260200160002060006101000a81549073ffffffffffffffffffffffffffffffffffffffff02191690556001600360008573ffffffffffffffffffffffffffffffffffffffff1673ffffffffffffffffffffffffffffffffffffffff168152602001908152602001600020600082825403925050819055506001600360008473ffffffffffffffffffffffffffffffffffffffff1673ffffffffffffffffffffffffffffffffffffffff16815260200190815260200160002060008282540192505081905550816002600083815260200190815260200160002060006101000a81548173ffffffffffffffffffffffffffffffffffffffff021916908373ffffffffffffffffffffffffffffffffffffffff160217905550808273ffffffffffffffffffffffffffffffffffffffff168473ffffffffffffffffffffffffffffffffffffffff167fddf252ad1be2c89b69c2b068fc378daa952ba7f163c4a11628f55a4df523b3ef60405160405180910390a46112af8383836001611769565b505050565b60006002600083815260200190815260200160002060009054906101000a900473ffffffffffffffffffffffffffffffffffffffff169050919050565b8173ffffffffffffffffffffffffffffffffffffffff168373ffffffffffffffffffffffffffffffffffffffff161415611360576040517f08c379a000000000000000000000000000000000000000000000000000000000815260040161135790612614565b60405180910390fd5b80600560008573ffffffffffffffffffffffffffffffffffffffff1673ffffffffffffffffffffffffffffffffffffffff16815260200190815260200160002060008473ffffffffffffffffffffffffffffffffffffffff1673ffffffffffffffffffffffffffffffffffffffff16815260200190815260200160002060006101000a81548160ff0219169083151502179055508173ffffffffffffffffffffffffffffffffffffffff168373ffffffffffffffffffffffffffffffffffffffff167f17307eab39ab6107e8899845ad3d59bd9653f200f220920489ca2b5937696c31836040516114519190612517565b60405180910390a3505050565b611469848484610fba565b6114758484848461176f565b6114b4576040517f08c379a00000000000000000000000000000000000000000000000000000000081526004016114ab90612594565b60405180910390fd5b50505050565b606060405180602001604052806000815250905090565b60606114dc82610ce9565b60006114e66114ba565b905060008151116115065760405180602001604052806000815250611531565b806115108461163f565b604051602001611521929190612452565b6040516020818303038152906040525b915050919050565b60007f01ffc9a7000000000000000000000000000000000000000000000000000000007bffffffffffffffffffffffffffffffffffffffffffffffffffffffff1916827bffffffffffffffffffffffffffffffffffffffffffffffffffffffff1916149050919050565b60008073ffffffffffffffffffffffffffffffffffffffff166115c5836112b4565b73ffffffffffffffffffffffffffffffffffffffff1614159050919050565b6115ee8383611906565b6115fb600084848461176f565b61163a576040517f08c379a000000000000000000000000000000000000000000000000000000000815260040161163190612594565b60405180910390fd5b505050565b60606000600161164e84611b24565b01905060008167ffffffffffffffff811115611693577f4e487b7100000000000000000000000000000000000000000000000000000000600052604160045260246000fd5b6040519080825280601f01601f1916602001820160405280156116c55781602001600182028036833780820191505090505b509050600082602001820190505b600115611758578080600190039150507f3031323334353637383961626364656600000000000000000000000000000000600a86061a8153600a8581611742577f4e487b7100000000000000000000000000000000000000000000000000000000600052601260045260246000fd5b049450600085141561175357611758565b6116d3565b819350505050919050565b50505050565b50505050565b60006117908473ffffffffffffffffffffffffffffffffffffffff16611d5b565b156118f9578373ffffffffffffffffffffffffffffffffffffffff1663150b7a026117b9610d34565b8786866040518563ffffffff1660e01b81526004016117db94939291906124cb565b602060405180830381600087803b1580156117f557600080fd5b505af192505050801561182657506040513d601f19601f820116820180604052508101906118239190612100565b60015b6118a9573d8060008114611856576040519150601f19603f3d011682016040523d82523d6000602084013e61185b565b606091505b506000815114156118a1576040517f08c379a000000000000000000000000000000000000000000000000000000000815260040161189890612594565b60405180910390fd5b805181602001fd5b63150b7a0260e01b7bffffffffffffffffffffffffffffffffffffffffffffffffffffffff1916817bffffffffffffffffffffffffffffffffffffffffffffffffffffffff1916149150506118fe565b600190505b949350505050565b600073ffffffffffffffffffffffffffffffffffffffff168273ffffffffffffffffffffffffffffffffffffffff161415611976576040517f08c379a000000000000000000000000000000000000000000000000000000000815260040161196d90612674565b60405180910390fd5b61197f816115a3565b156119bf576040517f08c379a00000000000000000000000000000000000000000000000000000000081526004016119b6906125d4565b60405180910390fd5b6119cd600083836001611763565b6119d6816115a3565b15611a16576040517f08c379a0000000000000000000000000000000000000000000000000000000008152600401611a0d906125d4565b60405180910390fd5b6001600360008473ffffffffffffffffffffffffffffffffffffffff1673ffffffffffffffffffffffffffffffffffffffff16815260200190815260200160002060008282540192505081905550816002600083815260200190815260200160002060006101000a81548173ffffffffffffffffffffffffffffffffffffffff021916908373ffffffffffffffffffffffffffffffffffffffff160217905550808273ffffffffffffffffffffffffffffffffffffffff16600073ffffffffffffffffffffffffffffffffffffffff167fddf252ad1be2c89b69c2b068fc378daa952ba7f163c4a11628f55a4df523b3ef60405160405180910390a4611b20600083836001611769565b5050565b600080600090507a184f03e93ff9f4daa797ed6e38ed64bf6a1f0100000000000000008310611ba8577a184f03e93ff9f4daa797ed6e38ed64bf6a1f0100000000000000008381611b9e577f4e487b7100000000000000000000000000000000000000000000000000000000600052601260045260246000fd5b0492506040810190505b6d04ee2d6d415b85acef81000000008310611c0b576d04ee2d6d415b85acef81000000008381611c01577f4e487b7100000000000000000000000000000000000000000000000000000000600052601260045260246000fd5b0492506020810190505b662386f26fc100008310611c6057662386f26fc100008381611c56577f4e487b7100000000000000000000000000000000000000000000000000000000600052601260045260246000fd5b0492506010810190505b6305f5e1008310611caf576305f5e1008381611ca5577f4e487b7100000000000000000000000000000000000000000000000000000000600052601260045260246000fd5b0492506008810190505b6127108310611cfa576127108381611cf0577f4e487b7100000000000000000000000000000000000000000000000000000000600052601260045260246000fd5b0492506004810190505b60648310611d435760648381611d39577f4e487b7100000000000000000000000000000000000000000000000000000000600052601260045260246000fd5b0492506002810190505b600a8310611d52576001810190505b80915050919050565b6000808273ffffffffffffffffffffffffffffffffffffffff163b119050919050565b828054611d8a9061288c565b90600052602060002090601f016020900481019282611dac5760008555611df3565b82601f10611dc557805160ff1916838001178555611df3565b82800160010185558215611df3579182015b82811115611df2578251825591602001919060010190611dd7565b5b509050611e009190611e04565b5090565b5b80821115611e1d576000816000905550600101611e05565b5090565b6000611e34611e2f84612762565b61273d565b905082815260208101848484011115611e4c57600080fd5b611e5784828561284a565b509392505050565b600081359050611e6e81612d1e565b92915050565b600081519050611e8381612d1e565b92915050565b600081359050611e9881612d35565b92915050565b600081359050611ead81612d4c565b92915050565b600081519050611ec281612d4c565b92915050565b600082601f830112611ed957600080fd5b8135611ee9848260208601611e21565b91505092915050565b600081359050611f0181612d63565b92915050565b600060208284031215611f1957600080fd5b6000611f2784828501611e5f565b91505092915050565b600060208284031215611f4257600080fd5b6000611f5084828501611e74565b91505092915050565b60008060408385031215611f6c57600080fd5b6000611f7a85828601611e5f565b9250506020611f8b85828601611e5f565b9150509250929050565b600080600060608486031215611faa57600080fd5b6000611fb886828701611e5f565b9350506020611fc986828701611e5f565b9250506040611fda86828701611ef2565b9150509250925092565b60008060008060808587031215611ffa57600080fd5b600061200887828801611e5f565b945050602061201987828801611e5f565b935050604061202a87828801611ef2565b925050606085013567ffffffffffffffff81111561204757600080fd5b61205387828801611ec8565b91505092959194509250565b6000806040838503121561207257600080fd5b600061208085828601611e5f565b925050602061209185828601611e89565b9150509250929050565b600080604083850312156120ae57600080fd5b60006120bc85828601611e5f565b92505060206120cd85828601611ef2565b9150509250929050565b6000602082840312156120e957600080fd5b60006120f784828501611e9e565b91505092915050565b60006020828403121561211257600080fd5b600061212084828501611eb3565b91505092915050565b60006020828403121561213b57600080fd5b600061214984828501611ef2565b91505092915050565b61215b816127d6565b82525050565b61216a816127e8565b82525050565b600061217b82612793565b61218581856127a9565b9350612195818560208601612859565b61219e8161294d565b840191505092915050565b60006121b48261279e565b6121be81856127ba565b93506121ce818560208601612859565b6121d78161294d565b840191505092915050565b60006121ed8261279e565b6121f781856127cb565b9350612207818560208601612859565b80840191505092915050565b6000612220602d836127ba565b915061222b8261295e565b604082019050919050565b6000612243601b836127ba565b915061224e826129ad565b602082019050919050565b60006122666032836127ba565b9150612271826129d6565b604082019050919050565b60006122896025836127ba565b915061229482612a25565b604082019050919050565b60006122ac601c836127ba565b91506122b782612a74565b602082019050919050565b60006122cf6024836127ba565b91506122da82612a9d565b604082019050919050565b60006122f26019836127ba565b91506122fd82612aec565b602082019050919050565b60006123156029836127ba565b915061232082612b15565b604082019050919050565b6000612338602e836127ba565b915061234382612b64565b604082019050919050565b600061235b6010836127cb565b915061236682612bb3565b601082019050919050565b600061237e6020836127ba565b915061238982612bdc565b602082019050919050565b60006123a1600e836127cb565b91506123ac82612c05565b600e82019050919050565b60006123c46018836127ba565b91506123cf82612c2e565b602082019050919050565b60006123e76021836127ba565b91506123f282612c57565b604082019050919050565b600061240a603d836127ba565b915061241582612ca6565b604082019050919050565b600061242d600e836127ba565b915061243882612cf5565b602082019050919050565b61244c81612840565b82525050565b600061245e82856121e2565b915061246a82846121e2565b91508190509392505050565b60006124818261234e565b915061248d82856121e2565b915061249882612394565b91506124a482846121e2565b91508190509392505050565b60006020820190506124c56000830184612152565b92915050565b60006080820190506124e06000830187612152565b6124ed6020830186612152565b6124fa6040830185612443565b818103606083015261250c8184612170565b905095945050505050565b600060208201905061252c6000830184612161565b92915050565b6000602082019050818103600083015261254c81846121a9565b905092915050565b6000602082019050818103600083015261256d81612213565b9050919050565b6000602082019050818103600083015261258d81612236565b9050919050565b600060208201905081810360008301526125ad81612259565b9050919050565b600060208201905081810360008301526125cd8161227c565b9050919050565b600060208201905081810360008301526125ed8161229f565b9050919050565b6000602082019050818103600083015261260d816122c2565b9050919050565b6000602082019050818103600083015261262d816122e5565b9050919050565b6000602082019050818103600083015261264d81612308565b9050919050565b6000602082019050818103600083015261266d8161232b565b9050919050565b6000602082019050818103600083015261268d81612371565b9050919050565b600060208201905081810360008301526126ad816123b7565b9050919050565b600060208201905081810360008301526126cd816123da565b9050919050565b600060208201905081810360008301526126ed816123fd565b9050919050565b60006020820190506127096000830184612443565b92915050565b60006040820190506127246000830184612443565b818103602083015261273581612420565b905092915050565b6000612747612758565b905061275382826128be565b919050565b6000604051905090565b600067ffffffffffffffff82111561277d5761277c61291e565b5b6127868261294d565b9050602081019050919050565b600081519050919050565b600081519050919050565b600082825260208201905092915050565b600082825260208201905092915050565b600081905092915050565b60006127e182612820565b9050919050565b60008115159050919050565b60007fffffffff0000000000000000000000000000000000000000000000000000000082169050919050565b600073ffffffffffffffffffffffffffffffffffffffff82169050919050565b6000819050919050565b82818337600083830152505050565b60005b8381101561287757808201518184015260208101905061285c565b83811115612886576000848401525b50505050565b600060028204905060018216806128a457607f821691505b602082108114156128b8576128b76128ef565b5b50919050565b6128c78261294d565b810181811067ffffffffffffffff821117156128e6576128e561291e565b5b80604052505050565b7f4e487b7100000000000000000000000000000000000000000000000000000000600052602260045260246000fd5b7f4e487b7100000000000000000000000000000000000000000000000000000000600052604160045260246000fd5b6000601f19601f8301169050919050565b7f4552433732313a2063616c6c6572206973206e6f7420746f6b656e206f776e6560008201527f72206f7220617070726f76656400000000000000000000000000000000000000602082015250565b7f517565727920666f72206e6f6e6578697374656e7420746f6b656e0000000000600082015250565b7f4552433732313a207472616e7366657220746f206e6f6e20455243373231526560008201527f63656976657220696d706c656d656e7465720000000000000000000000000000602082015250565b7f4552433732313a207472616e736665722066726f6d20696e636f72726563742060008201527f6f776e6572000000000000000000000000000000000000000000000000000000602082015250565b7f4552433732313a20746f6b656e20616c7265616479206d696e74656400000000600082015250565b7f4552433732313a207472616e7366657220746f20746865207a65726f2061646460008201527f7265737300000000000000000000000000000000000000000000000000000000602082015250565b7f4552433732313a20617070726f766520746f2063616c6c657200000000000000600082015250565b7f4552433732313a2061646472657373207a65726f206973206e6f74206120766160008201527f6c6964206f776e65720000000000000000000000000000000000000000000000602082015250565b7f45524337323155524953746f726167653a2055524920736574206f66206e6f6e60008201527f6578697374656e7420746f6b656e000000000000000000000000000000000000602082015250565b7f416d6f756e7420436c65617265643a2000000000000000000000000000000000600082015250565b7f4552433732313a206d696e7420746f20746865207a65726f2061646472657373600082015250565b7f2c20436c6561726564204f6e3a20000000000000000000000000000000000000600082015250565b7f4552433732313a20696e76616c696420746f6b656e2049440000000000000000600082015250565b7f4552433732313a20617070726f76616c20746f2063757272656e74206f776e6560008201527f7200000000000000000000000000000000000000000000000000000000000000602082015250565b7f4552433732313a20617070726f76652063616c6c6572206973206e6f7420746f60008201527f6b656e206f776e6572206f7220617070726f76656420666f7220616c6c000000602082015250565b7f416c6c20736574746c6564207570000000000000000000000000000000000000600082015250565b612d27816127d6565b8114612d3257600080fd5b50565b612d3e816127e8565b8114612d4957600080fd5b50565b612d55816127f4565b8114612d6057600080fd5b50565b612d6c81612840565b8114612d7757600080fd5b5056fea2646970667358221220762553738aebc272da5542f0cb221d917152dcb948b6e3d7642bcd2d138a20a564736f6c63430008010033",
  "immutableReferences": {},
  "source": "// SPDX-License-Identifier: MIT\npragma solidity ^0.8.1;\n\nimport \"@openzeppelin/contracts/token/ERC721/extensions/ERC721URIStorage.sol\";\nimport \"@openzeppelin/contracts/utils/Counters.sol\";\nimport \"@openzeppelin/contracts/utils/Strings.sol\";\n\ncontract DebtStatusTokens is ERC721URIStorage {\n    using Counters for Counters.Counter;\n    Counters.Counter private _tokenIds;\n\n    struct DebtClearance {\n        uint256 amountCleared;\n        uint256 clearedOn;\n        string  message;\n    }\n\n    // Define events\n    event TokenMinted(address indexed recipient, uint256 tokenId, string tokenType);\n    mapping(uint256 => DebtClearance) private _debtClearanceDetails;\n\n    constructor() ERC721(\"Debt Status Tokens\", \"DST\") {}\n\n    // Function to construct a token URI from debt clearance details\n    function constructTokenURI(DebtClearance memory debtDetails) private pure returns (string memory) {\n        return string(abi.encodePacked(\n            \"Amount Cleared: \", Strings.toString(debtDetails.amountCleared),\n            \", Cleared On: \", Strings.toString(debtDetails.clearedOn)\n        ));\n    }\n\n\n    // Internal function to issue a new NFT token\n    function _issueDebtClearedToken(address recipient,uint256 amountCleared) external returns (uint256) {\n           DebtClearance memory debtDetails = DebtClearance({\n            amountCleared: amountCleared,\n            clearedOn: block.timestamp,\n            message:\"All Settled Up\"\n        });\n        \n        _tokenIds.increment();\n        uint256 newTokenId = _tokenIds.current();\n        _safeMint(recipient, newTokenId);\n        string memory debtDetailsURI = constructTokenURI(debtDetails);\n        _setTokenURI(newTokenId, debtDetailsURI);\n        _debtClearanceDetails[newTokenId]=debtDetails;\n        emit TokenMinted(recipient, newTokenId, \"All settled up\");\n        return newTokenId;\n    }\n\n    function getDebtClearedDetails(uint256 tokenId) external view returns (string memory) {\n        try this.ownerOf(tokenId) returns (address) {\n            return tokenURI(tokenId);\n        } catch {\n            revert(\"Query for nonexistent token\");\n        }\n    }\n}\n\n/*\n0x5B38Da6a701c568545dCfcB03FcB875f56beddC4\n0xAb8483F64d9C6d1EcF9b849Ae677dD3315835cb2\n0x4B20993Bc481177ec7E8f571ceCaE8A9e22C02db\n*/\n\n\n",
  "sourcePath": "/Users/saijanhavitamatam/Desktop/Blockchain/splitwise_app/contracts/DebtStatusTokens.sol",
  "compiler": {
    "name": "solc",
    "version": "0.8.1+commit.df193b15.Emscripten.clang"
  },
  "schemaVersion": "3.4.16",
  "updatedAt": "2023-11-15T20:55:26.012Z",
  "networkType": "ethereum",
  "devdoc": {
    "kind": "dev",
    "methods": {
      "approve(address,uint256)": {
        "details": "See {IERC721-approve}."
      },
      "balanceOf(address)": {
        "details": "See {IERC721-balanceOf}."
      },
      "getApproved(uint256)": {
        "details": "See {IERC721-getApproved}."
      },
      "isApprovedForAll(address,address)": {
        "details": "See {IERC721-isApprovedForAll}."
      },
      "name()": {
        "details": "See {IERC721Metadata-name}."
      },
      "ownerOf(uint256)": {
        "details": "See {IERC721-ownerOf}."
      },
      "safeTransferFrom(address,address,uint256)": {
        "details": "See {IERC721-safeTransferFrom}."
      },
      "safeTransferFrom(address,address,uint256,bytes)": {
        "details": "See {IERC721-safeTransferFrom}."
      },
      "setApprovalForAll(address,bool)": {
        "details": "See {IERC721-setApprovalForAll}."
      },
      "supportsInterface(bytes4)": {
        "details": "See {IERC165-supportsInterface}"
      },
      "symbol()": {
        "details": "See {IERC721Metadata-symbol}."
      },
      "tokenURI(uint256)": {
        "details": "See {IERC721Metadata-tokenURI}."
      },
      "transferFrom(address,address,uint256)": {
        "details": "See {IERC721-transferFrom}."
      }
    },
    "version": 1
  },
  "userdoc": {
    "kind": "user",
    "methods": {},
    "version": 1
  }
}