{
  "contractName": "SharedFunds",
  "abi": [
    {
      "inputs": [],
      "stateMutability": "nonpayable",
      "type": "constructor"
    },
    {
      "anonymous": false,
      "inputs": [
        {
          "indexed": true,
          "internalType": "address",
          "name": "owner",
          "type": "address"
        },
        {
          "indexed": true,
          "internalType": "address",
          "name": "spender",
          "type": "address"
        },
        {
          "indexed": false,
          "internalType": "uint256",
          "name": "value",
          "type": "uint256"
        }
      ],
      "name": "Approval",
      "type": "event"
    },
    {
      "anonymous": false,
      "inputs": [
        {
          "indexed": true,
          "internalType": "address",
          "name": "from",
          "type": "address"
        },
        {
          "indexed": true,
          "internalType": "address",
          "name": "to",
          "type": "address"
        },
        {
          "indexed": false,
          "internalType": "uint256",
          "name": "value",
          "type": "uint256"
        }
      ],
      "name": "Transfer",
      "type": "event"
    },
    {
      "anonymous": false,
      "inputs": [
        {
          "indexed": false,
          "internalType": "uint256",
          "name": "newFee",
          "type": "uint256"
        }
      ],
      "name": "TransferFeeChanged",
      "type": "event"
    },
    {
      "anonymous": false,
      "inputs": [
        {
          "indexed": true,
          "internalType": "address",
          "name": "from",
          "type": "address"
        },
        {
          "indexed": true,
          "internalType": "address",
          "name": "to",
          "type": "address"
        },
        {
          "indexed": false,
          "internalType": "uint256",
          "name": "value",
          "type": "uint256"
        },
        {
          "indexed": false,
          "internalType": "uint256",
          "name": "fee",
          "type": "uint256"
        }
      ],
      "name": "TransferWithFee",
      "type": "event"
    },
    {
      "inputs": [
        {
          "internalType": "address",
          "name": "owner",
          "type": "address"
        },
        {
          "internalType": "address",
          "name": "spender",
          "type": "address"
        }
      ],
      "name": "allowance",
      "outputs": [
        {
          "internalType": "uint256",
          "name": "",
          "type": "uint256"
        }
      ],
      "stateMutability": "view",
      "type": "function",
      "constant": true
    },
    {
      "inputs": [
        {
          "internalType": "address",
          "name": "spender",
          "type": "address"
        },
        {
          "internalType": "uint256",
          "name": "amount",
          "type": "uint256"
        }
      ],
      "name": "approve",
      "outputs": [
        {
          "internalType": "bool",
          "name": "",
          "type": "bool"
        }
      ],
      "stateMutability": "nonpayable",
      "type": "function"
    },
    {
      "inputs": [
        {
          "internalType": "address",
          "name": "account",
          "type": "address"
        }
      ],
      "name": "balanceOf",
      "outputs": [
        {
          "internalType": "uint256",
          "name": "",
          "type": "uint256"
        }
      ],
      "stateMutability": "view",
      "type": "function",
      "constant": true
    },
    {
      "inputs": [],
      "name": "decimals",
      "outputs": [
        {
          "internalType": "uint8",
          "name": "",
          "type": "uint8"
        }
      ],
      "stateMutability": "view",
      "type": "function",
      "constant": true
    },
    {
      "inputs": [
        {
          "internalType": "address",
          "name": "spender",
          "type": "address"
        },
        {
          "internalType": "uint256",
          "name": "subtractedValue",
          "type": "uint256"
        }
      ],
      "name": "decreaseAllowance",
      "outputs": [
        {
          "internalType": "bool",
          "name": "",
          "type": "bool"
        }
      ],
      "stateMutability": "nonpayable",
      "type": "function"
    },
    {
      "inputs": [],
      "name": "exchange_rate",
      "outputs": [
        {
          "internalType": "uint256",
          "name": "",
          "type": "uint256"
        }
      ],
      "stateMutability": "view",
      "type": "function",
      "constant": true
    },
    {
      "inputs": [
        {
          "internalType": "address",
          "name": "spender",
          "type": "address"
        },
        {
          "internalType": "uint256",
          "name": "addedValue",
          "type": "uint256"
        }
      ],
      "name": "increaseAllowance",
      "outputs": [
        {
          "internalType": "bool",
          "name": "",
          "type": "bool"
        }
      ],
      "stateMutability": "nonpayable",
      "type": "function"
    },
    {
      "inputs": [],
      "name": "isExchangeOpen",
      "outputs": [
        {
          "internalType": "bool",
          "name": "",
          "type": "bool"
        }
      ],
      "stateMutability": "view",
      "type": "function",
      "constant": true
    },
    {
      "inputs": [],
      "name": "name",
      "outputs": [
        {
          "internalType": "string",
          "name": "",
          "type": "string"
        }
      ],
      "stateMutability": "view",
      "type": "function",
      "constant": true
    },
    {
      "inputs": [],
      "name": "symbol",
      "outputs": [
        {
          "internalType": "string",
          "name": "",
          "type": "string"
        }
      ],
      "stateMutability": "view",
      "type": "function",
      "constant": true
    },
    {
      "inputs": [],
      "name": "totalSupply",
      "outputs": [
        {
          "internalType": "uint256",
          "name": "",
          "type": "uint256"
        }
      ],
      "stateMutability": "view",
      "type": "function",
      "constant": true
    },
    {
      "inputs": [
        {
          "internalType": "address",
          "name": "to",
          "type": "address"
        },
        {
          "internalType": "uint256",
          "name": "amount",
          "type": "uint256"
        }
      ],
      "name": "transfer",
      "outputs": [
        {
          "internalType": "bool",
          "name": "",
          "type": "bool"
        }
      ],
      "stateMutability": "nonpayable",
      "type": "function"
    },
    {
      "inputs": [],
      "name": "transferFee",
      "outputs": [
        {
          "internalType": "uint256",
          "name": "",
          "type": "uint256"
        }
      ],
      "stateMutability": "view",
      "type": "function",
      "constant": true
    },
    {
      "inputs": [
        {
          "internalType": "address",
          "name": "from",
          "type": "address"
        },
        {
          "internalType": "address",
          "name": "to",
          "type": "address"
        },
        {
          "internalType": "uint256",
          "name": "amount",
          "type": "uint256"
        }
      ],
      "name": "transferFrom",
      "outputs": [
        {
          "internalType": "bool",
          "name": "",
          "type": "bool"
        }
      ],
      "stateMutability": "nonpayable",
      "type": "function"
    },
    {
      "inputs": [],
      "name": "toggleExchange",
      "outputs": [],
      "stateMutability": "nonpayable",
      "type": "function"
    },
    {
      "inputs": [
        {
          "internalType": "uint256",
          "name": "rate",
          "type": "uint256"
        }
      ],
      "name": "changeExchangeRate",
      "outputs": [],
      "stateMutability": "nonpayable",
      "type": "function"
    },
    {
      "inputs": [
        {
          "internalType": "address",
          "name": "customer",
          "type": "address"
        }
      ],
      "name": "buyTokens",
      "outputs": [],
      "stateMutability": "payable",
      "type": "function",
      "payable": true
    },
    {
      "inputs": [
        {
          "internalType": "uint256",
          "name": "_newFee",
          "type": "uint256"
        }
      ],
      "name": "changeTransferFee",
      "outputs": [],
      "stateMutability": "nonpayable",
      "type": "function"
    },
    {
      "inputs": [],
      "name": "withdrawEther",
      "outputs": [],
      "stateMutability": "nonpayable",
      "type": "function"
    },
    {
      "inputs": [],
      "name": "getEtherBalance",
      "outputs": [
        {
          "internalType": "uint256",
          "name": "",
          "type": "uint256"
        }
      ],
      "stateMutability": "view",
      "type": "function",
      "constant": true
    }
  ],
  "bytecode": "0x60806040523480156200001157600080fd5b506040518060400160405280600b81526020017f53686172656446756e64730000000000000000000000000000000000000000008152506040518060400160405280600281526020017f5346000000000000000000000000000000000000000000000000000000000000815250816003908051906020019062000096929190620002b7565b508060049080519060200190620000af929190620002b7565b505050600a60058190555033600660006101000a81548173ffffffffffffffffffffffffffffffffffffffff021916908373ffffffffffffffffffffffffffffffffffffffff16021790555060006007819055506001600860006101000a81548160ff021916908315150217905550620001393368056bc75e2d631000006200013f60201b60201c565b62000513565b600073ffffffffffffffffffffffffffffffffffffffff168273ffffffffffffffffffffffffffffffffffffffff161415620001b2576040517f08c379a0000000000000000000000000000000000000000000000000000000008152600401620001a9906200039f565b60405180910390fd5b620001c660008383620002ad60201b60201c565b8060026000828254620001da9190620003ef565b92505081905550806000808473ffffffffffffffffffffffffffffffffffffffff1673ffffffffffffffffffffffffffffffffffffffff168152602001908152602001600020600082825401925050819055508173ffffffffffffffffffffffffffffffffffffffff16600073ffffffffffffffffffffffffffffffffffffffff167fddf252ad1be2c89b69c2b068fc378daa952ba7f163c4a11628f55a4df523b3ef836040516200028d9190620003c1565b60405180910390a3620002a960008383620002b260201b60201c565b5050565b505050565b505050565b828054620002c59062000456565b90600052602060002090601f016020900481019282620002e9576000855562000335565b82601f106200030457805160ff191683800117855562000335565b8280016001018555821562000335579182015b828111156200033457825182559160200191906001019062000317565b5b50905062000344919062000348565b5090565b5b808211156200036357600081600090555060010162000349565b5090565b600062000376601f83620003de565b91506200038382620004ea565b602082019050919050565b62000399816200044c565b82525050565b60006020820190508181036000830152620003ba8162000367565b9050919050565b6000602082019050620003d860008301846200038e565b92915050565b600082825260208201905092915050565b6000620003fc826200044c565b915062000409836200044c565b9250827fffffffffffffffffffffffffffffffffffffffffffffffffffffffffffffffff038211156200044157620004406200048c565b5b828201905092915050565b6000819050919050565b600060028204905060018216806200046f57607f821691505b60208210811415620004865762000485620004bb565b5b50919050565b7f4e487b7100000000000000000000000000000000000000000000000000000000600052601160045260246000fd5b7f4e487b7100000000000000000000000000000000000000000000000000000000600052602260045260246000fd5b7f45524332303a206d696e7420746f20746865207a65726f206164647265737300600082015250565b611c4380620005236000396000f3fe60806040526004361061011f5760003560e01c80637362377b116100a0578063acb2ad6f11610064578063acb2ad6f146103fd578063b2b5405014610428578063dd62ed3e1461043f578063ea46193e1461047c578063ec8ac4d8146104a75761011f565b80637362377b1461031657806395d89b411461032d57806396e715dc14610358578063a457c2d714610383578063a9059cbb146103c05761011f565b8063215fce93116100e7578063215fce931461020b57806323b872dd14610234578063313ce56714610271578063395093511461029c57806370a08231146102d95761011f565b806306fdde0314610124578063095ea7b31461014f578063171ef0b21461018c578063178b8378146101b757806318160ddd146101e0575b600080fd5b34801561013057600080fd5b506101396104c3565b6040516101469190611565565b60405180910390f35b34801561015b57600080fd5b50610176600480360381019061017191906112fe565b610555565b604051610183919061154a565b60405180910390f35b34801561019857600080fd5b506101a1610578565b6040516101ae91906116e7565b60405180910390f35b3480156101c357600080fd5b506101de60048036038101906101d9919061133a565b61057e565b005b3480156101ec57600080fd5b506101f5610693565b60405161020291906116e7565b60405180910390f35b34801561021757600080fd5b50610232600480360381019061022d919061133a565b61069d565b005b34801561024057600080fd5b5061025b600480360381019061025691906112af565b610737565b604051610268919061154a565b60405180910390f35b34801561027d57600080fd5b50610286610766565b6040516102939190611702565b60405180910390f35b3480156102a857600080fd5b506102c360048036038101906102be91906112fe565b61076f565b6040516102d0919061154a565b60405180910390f35b3480156102e557600080fd5b5061030060048036038101906102fb919061124a565b6107a6565b60405161030d91906116e7565b60405180910390f35b34801561032257600080fd5b5061032b6107ee565b005b34801561033957600080fd5b506103426108e9565b60405161034f9190611565565b60405180910390f35b34801561036457600080fd5b5061036d61097b565b60405161037a919061154a565b60405180910390f35b34801561038f57600080fd5b506103aa60048036038101906103a591906112fe565b61098e565b6040516103b7919061154a565b60405180910390f35b3480156103cc57600080fd5b506103e760048036038101906103e291906112fe565b610a05565b6040516103f4919061154a565b60405180910390f35b34801561040957600080fd5b50610412610a28565b60405161041f91906116e7565b60405180910390f35b34801561043457600080fd5b5061043d610a2e565b005b34801561044b57600080fd5b5061046660048036038101906104619190611273565b610aea565b60405161047391906116e7565b60405180910390f35b34801561048857600080fd5b50610491610b71565b60405161049e91906116e7565b60405180910390f35b6104c160048036038101906104bc919061124a565b610b79565b005b6060600380546104d290611871565b80601f01602080910402602001604051908101604052809291908181526020018280546104fe90611871565b801561054b5780601f106105205761010080835404028352916020019161054b565b820191906000526020600020905b81548152906001019060200180831161052e57829003601f168201915b5050505050905090565b600080610560610be8565b905061056d818585610bf0565b600191505092915050565b60055481565b600660009054906101000a900473ffffffffffffffffffffffffffffffffffffffff1673ffffffffffffffffffffffffffffffffffffffff163373ffffffffffffffffffffffffffffffffffffffff161461060e576040517f08c379a000000000000000000000000000000000000000000000000000000000815260040161060590611667565b60405180910390fd5b6064811115610652576040517f08c379a000000000000000000000000000000000000000000000000000000000815260040161064990611607565b60405180910390fd5b806007819055507f0496ed1e61eb69727f9659a8e859288db4758ffb1f744d1c1424634f90a257f48160405161068891906116e7565b60405180910390a150565b6000600254905090565b600660009054906101000a900473ffffffffffffffffffffffffffffffffffffffff1673ffffffffffffffffffffffffffffffffffffffff163373ffffffffffffffffffffffffffffffffffffffff161461072d576040517f08c379a000000000000000000000000000000000000000000000000000000000815260040161072490611667565b60405180910390fd5b8060058190555050565b600080610742610be8565b905061074f858285610dbb565b61075a858585610e47565b60019150509392505050565b60006012905090565b60008061077a610be8565b905061079b81858561078c8589610aea565b6107969190611739565b610bf0565b600191505092915050565b60008060008373ffffffffffffffffffffffffffffffffffffffff1673ffffffffffffffffffffffffffffffffffffffff168152602001908152602001600020549050919050565b600660009054906101000a900473ffffffffffffffffffffffffffffffffffffffff1673ffffffffffffffffffffffffffffffffffffffff163373ffffffffffffffffffffffffffffffffffffffff161461087e576040517f08c379a000000000000000000000000000000000000000000000000000000000815260040161087590611667565b60405180910390fd5b600660009054906101000a900473ffffffffffffffffffffffffffffffffffffffff1673ffffffffffffffffffffffffffffffffffffffff166108fc479081150290604051600060405180830381858888f193505050501580156108e6573d6000803e3d6000fd5b50565b6060600480546108f890611871565b80601f016020809104026020016040519081016040528092919081815260200182805461092490611871565b80156109715780601f1061094657610100808354040283529160200191610971565b820191906000526020600020905b81548152906001019060200180831161095457829003601f168201915b5050505050905090565b600860009054906101000a900460ff1681565b600080610999610be8565b905060006109a78286610aea565b9050838110156109ec576040517f08c379a00000000000000000000000000000000000000000000000000000000081526004016109e3906116a7565b60405180910390fd5b6109f98286868403610bf0565b60019250505092915050565b600080610a10610be8565b9050610a1d818585610e47565b600191505092915050565b60075481565b600660009054906101000a900473ffffffffffffffffffffffffffffffffffffffff1673ffffffffffffffffffffffffffffffffffffffff163373ffffffffffffffffffffffffffffffffffffffff1614610abe576040517f08c379a0000000000000000000000000000000000000000000000000000000008152600401610ab590611667565b60405180910390fd5b600860009054906101000a900460ff1615600860006101000a81548160ff021916908315150217905550565b6000600160008473ffffffffffffffffffffffffffffffffffffffff1673ffffffffffffffffffffffffffffffffffffffff16815260200190815260200160002060008373ffffffffffffffffffffffffffffffffffffffff1673ffffffffffffffffffffffffffffffffffffffff16815260200190815260200160002054905092915050565b600047905090565b600860009054906101000a900460ff16610bc8576040517f08c379a0000000000000000000000000000000000000000000000000000000008152600401610bbf90611627565b60405180910390fd5b600060055434610bd8919061178f565b9050610be482826110bf565b5050565b600033905090565b600073ffffffffffffffffffffffffffffffffffffffff168373ffffffffffffffffffffffffffffffffffffffff161415610c60576040517f08c379a0000000000000000000000000000000000000000000000000000000008152600401610c5790611687565b60405180910390fd5b600073ffffffffffffffffffffffffffffffffffffffff168273ffffffffffffffffffffffffffffffffffffffff161415610cd0576040517f08c379a0000000000000000000000000000000000000000000000000000000008152600401610cc7906115a7565b60405180910390fd5b80600160008573ffffffffffffffffffffffffffffffffffffffff1673ffffffffffffffffffffffffffffffffffffffff16815260200190815260200160002060008473ffffffffffffffffffffffffffffffffffffffff1673ffffffffffffffffffffffffffffffffffffffff168152602001908152602001600020819055508173ffffffffffffffffffffffffffffffffffffffff168373ffffffffffffffffffffffffffffffffffffffff167f8c5be1e5ebec7d5bd14f71427d1e84f3dd0314c0f7b2291e5b200ac8c7c3b92583604051610dae91906116e7565b60405180910390a3505050565b6000610dc78484610aea565b90507fffffffffffffffffffffffffffffffffffffffffffffffffffffffffffffffff8114610e415781811015610e33576040517f08c379a0000000000000000000000000000000000000000000000000000000008152600401610e2a906115c7565b60405180910390fd5b610e408484848403610bf0565b5b50505050565b600073ffffffffffffffffffffffffffffffffffffffff168373ffffffffffffffffffffffffffffffffffffffff161415610eb7576040517f08c379a0000000000000000000000000000000000000000000000000000000008152600401610eae90611647565b60405180910390fd5b600073ffffffffffffffffffffffffffffffffffffffff168273ffffffffffffffffffffffffffffffffffffffff161415610f27576040517f08c379a0000000000000000000000000000000000000000000000000000000008152600401610f1e90611587565b60405180910390fd5b610f32838383611216565b60008060008573ffffffffffffffffffffffffffffffffffffffff1673ffffffffffffffffffffffffffffffffffffffff16815260200190815260200160002054905081811015610fb8576040517f08c379a0000000000000000000000000000000000000000000000000000000008152600401610faf906115e7565b60405180910390fd5b8181036000808673ffffffffffffffffffffffffffffffffffffffff1673ffffffffffffffffffffffffffffffffffffffff16815260200190815260200160002081905550816000808573ffffffffffffffffffffffffffffffffffffffff1673ffffffffffffffffffffffffffffffffffffffff168152602001908152602001600020600082825401925050819055508273ffffffffffffffffffffffffffffffffffffffff168473ffffffffffffffffffffffffffffffffffffffff167fddf252ad1be2c89b69c2b068fc378daa952ba7f163c4a11628f55a4df523b3ef846040516110a691906116e7565b60405180910390a36110b984848461121b565b50505050565b600073ffffffffffffffffffffffffffffffffffffffff168273ffffffffffffffffffffffffffffffffffffffff16141561112f576040517f08c379a0000000000000000000000000000000000000000000000000000000008152600401611126906116c7565b60405180910390fd5b61113b60008383611216565b806002600082825461114d9190611739565b92505081905550806000808473ffffffffffffffffffffffffffffffffffffffff1673ffffffffffffffffffffffffffffffffffffffff168152602001908152602001600020600082825401925050819055508173ffffffffffffffffffffffffffffffffffffffff16600073ffffffffffffffffffffffffffffffffffffffff167fddf252ad1be2c89b69c2b068fc378daa952ba7f163c4a11628f55a4df523b3ef836040516111fe91906116e7565b60405180910390a36112126000838361121b565b5050565b505050565b505050565b60008135905061122f81611bdf565b92915050565b60008135905061124481611bf6565b92915050565b60006020828403121561125c57600080fd5b600061126a84828501611220565b91505092915050565b6000806040838503121561128657600080fd5b600061129485828601611220565b92505060206112a585828601611220565b9150509250929050565b6000806000606084860312156112c457600080fd5b60006112d286828701611220565b93505060206112e386828701611220565b92505060406112f486828701611235565b9150509250925092565b6000806040838503121561131157600080fd5b600061131f85828601611220565b925050602061133085828601611235565b9150509250929050565b60006020828403121561134c57600080fd5b600061135a84828501611235565b91505092915050565b61136c816117fb565b82525050565b600061137d8261171d565b6113878185611728565b935061139781856020860161183e565b6113a081611901565b840191505092915050565b60006113b8602383611728565b91506113c382611912565b604082019050919050565b60006113db602283611728565b91506113e682611961565b604082019050919050565b60006113fe601d83611728565b9150611409826119b0565b602082019050919050565b6000611421602683611728565b915061142c826119d9565b604082019050919050565b6000611444600b83611728565b915061144f82611a28565b602082019050919050565b6000611467601283611728565b915061147282611a51565b602082019050919050565b600061148a602583611728565b915061149582611a7a565b604082019050919050565b60006114ad602583611728565b91506114b882611ac9565b604082019050919050565b60006114d0602483611728565b91506114db82611b18565b604082019050919050565b60006114f3602583611728565b91506114fe82611b67565b604082019050919050565b6000611516601f83611728565b915061152182611bb6565b602082019050919050565b61153581611827565b82525050565b61154481611831565b82525050565b600060208201905061155f6000830184611363565b92915050565b6000602082019050818103600083015261157f8184611372565b905092915050565b600060208201905081810360008301526115a0816113ab565b9050919050565b600060208201905081810360008301526115c0816113ce565b9050919050565b600060208201905081810360008301526115e0816113f1565b9050919050565b6000602082019050818103600083015261160081611414565b9050919050565b6000602082019050818103600083015261162081611437565b9050919050565b600060208201905081810360008301526116408161145a565b9050919050565b600060208201905081810360008301526116608161147d565b9050919050565b60006020820190508181036000830152611680816114a0565b9050919050565b600060208201905081810360008301526116a0816114c3565b9050919050565b600060208201905081810360008301526116c0816114e6565b9050919050565b600060208201905081810360008301526116e081611509565b9050919050565b60006020820190506116fc600083018461152c565b92915050565b6000602082019050611717600083018461153b565b92915050565b600081519050919050565b600082825260208201905092915050565b600061174482611827565b915061174f83611827565b9250827fffffffffffffffffffffffffffffffffffffffffffffffffffffffffffffffff03821115611784576117836118a3565b5b828201905092915050565b600061179a82611827565b91506117a583611827565b9250817fffffffffffffffffffffffffffffffffffffffffffffffffffffffffffffffff04831182151516156117de576117dd6118a3565b5b828202905092915050565b60006117f482611807565b9050919050565b60008115159050919050565b600073ffffffffffffffffffffffffffffffffffffffff82169050919050565b6000819050919050565b600060ff82169050919050565b60005b8381101561185c578082015181840152602081019050611841565b8381111561186b576000848401525b50505050565b6000600282049050600182168061188957607f821691505b6020821081141561189d5761189c6118d2565b5b50919050565b7f4e487b7100000000000000000000000000000000000000000000000000000000600052601160045260246000fd5b7f4e487b7100000000000000000000000000000000000000000000000000000000600052602260045260246000fd5b6000601f19601f8301169050919050565b7f45524332303a207472616e7366657220746f20746865207a65726f206164647260008201527f6573730000000000000000000000000000000000000000000000000000000000602082015250565b7f45524332303a20617070726f766520746f20746865207a65726f20616464726560008201527f7373000000000000000000000000000000000000000000000000000000000000602082015250565b7f45524332303a20696e73756666696369656e7420616c6c6f77616e6365000000600082015250565b7f45524332303a207472616e7366657220616d6f756e742065786365656473206260008201527f616c616e63650000000000000000000000000000000000000000000000000000602082015250565b7f496e76616c696420666565000000000000000000000000000000000000000000600082015250565b7f45786368616e676520697320636c6f7365640000000000000000000000000000600082015250565b7f45524332303a207472616e736665722066726f6d20746865207a65726f20616460008201527f6472657373000000000000000000000000000000000000000000000000000000602082015250565b7f4f6e6c79206f776e65722063616e20706572666f726d2074686973206f70657260008201527f6174696f6e000000000000000000000000000000000000000000000000000000602082015250565b7f45524332303a20617070726f76652066726f6d20746865207a65726f2061646460008201527f7265737300000000000000000000000000000000000000000000000000000000602082015250565b7f45524332303a2064656372656173656420616c6c6f77616e63652062656c6f7760008201527f207a65726f000000000000000000000000000000000000000000000000000000602082015250565b7f45524332303a206d696e7420746f20746865207a65726f206164647265737300600082015250565b611be8816117e9565b8114611bf357600080fd5b50565b611bff81611827565b8114611c0a57600080fd5b5056fea26469706673582212209f967f2a1fd010b04a99dee22b272f089160edd3bf7e84978a9e6fc7d1ce0ef064736f6c63430008010033",
  "immutableReferences": {},
  "source": "// SPDX-License-Identifier: MIT\npragma solidity ^0.8.1;\n\nimport \"@openzeppelin/contracts/token/ERC20/ERC20.sol\";\n\ncontract SharedFunds is ERC20 {\n    uint256 public exchange_rate; // Number of tokens per Ether\n    address payable owner;\n    uint256 public transferFee;\n    bool public isExchangeOpen;\n\n    event TransferWithFee(address indexed from, address indexed to, uint256 value, uint256 fee);\n    event TransferFeeChanged(uint256 newFee);\n    \n    modifier whenExchangeOpen() {\n        require(isExchangeOpen, \"Exchange is closed\");\n        _;\n    }\n\n    modifier onlyOwner() {\n        require(msg.sender == owner, \"Only owner can perform this operation\");\n        _;\n    }\n\n    constructor() ERC20(\"SharedFunds\", \"SF\") {\n        exchange_rate = 10;\n        owner = payable(msg.sender);\n        transferFee = 0; // Initial transfer fee is 0%\n        isExchangeOpen = true;\n         _mint(msg.sender, 100 * 10 ** 18);\n    }\n    \n    function toggleExchange() external onlyOwner {\n        isExchangeOpen = !isExchangeOpen;\n    }\n\n    // Allows owner to change the exchange rate\n    function changeExchangeRate(uint rate) public onlyOwner {\n        exchange_rate = rate;\n    }\n\n    //buy tokens by giving ether\n    // function buyTokensFromOwner() public payable whenExchangeOpen {\n    //     uint256 etherAmount = msg.value; \n    //     require(msg.value == etherAmount, \"Sent Ether amount must match specified amount\");\n    //     uint256 tokenAmount = etherAmount * exchange_rate;\n\n    //     require(balanceOf(owner) >= tokenAmount, \"Owner does not have enough tokens\");\n\n    //     // Transfer Ether to the owner\n    //     payable(owner).transfer(etherAmount);\n\n    //     // Transfer tokens from owner to the sender\n    //     _transfer(owner, msg.sender, tokenAmount);\n    // }\n\n    // Function to allow users to buy tokens\n    function buyTokens(address customer) public payable whenExchangeOpen {\n        //uint256 amount = msg.value * exchange_rate;\n        uint256 amount = (msg.value * exchange_rate);\n        _mint(customer, amount);\n    }\n\n    function changeTransferFee(uint256 _newFee) external onlyOwner {\n        require(_newFee <= 100, \"Invalid fee\"); // Fee should be less than or equal to 100%\n        transferFee = _newFee;\n        emit TransferFeeChanged(_newFee);\n    }\n\n    // Function to withdraw Ether from the contract (for the owner)\n    function withdrawEther() public onlyOwner {\n        owner.transfer(address(this).balance);\n    }\n\n    // Function to view the Ether balance of the contract\n    function getEtherBalance() public view returns (uint256) {\n        return address(this).balance;\n    }\n}",
  "sourcePath": "/Users/saijanhavitamatam/Desktop/Blockchain/splitwise_app/contracts/SharedFunds.sol",
  "compiler": {
    "name": "solc",
    "version": "0.8.1+commit.df193b15.Emscripten.clang"
  },
  "schemaVersion": "3.4.16",
  "updatedAt": "2023-11-15T20:55:25.882Z",
  "networkType": "ethereum",
  "devdoc": {
    "kind": "dev",
    "methods": {
      "allowance(address,address)": {
        "details": "See {IERC20-allowance}."
      },
      "approve(address,uint256)": {
        "details": "See {IERC20-approve}. NOTE: If `amount` is the maximum `uint256`, the allowance is not updated on `transferFrom`. This is semantically equivalent to an infinite approval. Requirements: - `spender` cannot be the zero address."
      },
      "balanceOf(address)": {
        "details": "See {IERC20-balanceOf}."
      },
      "decimals()": {
        "details": "Returns the number of decimals used to get its user representation. For example, if `decimals` equals `2`, a balance of `505` tokens should be displayed to a user as `5.05` (`505 / 10 ** 2`). Tokens usually opt for a value of 18, imitating the relationship between Ether and Wei. This is the default value returned by this function, unless it's overridden. NOTE: This information is only used for _display_ purposes: it in no way affects any of the arithmetic of the contract, including {IERC20-balanceOf} and {IERC20-transfer}."
      },
      "decreaseAllowance(address,uint256)": {
        "details": "Atomically decreases the allowance granted to `spender` by the caller. This is an alternative to {approve} that can be used as a mitigation for problems described in {IERC20-approve}. Emits an {Approval} event indicating the updated allowance. Requirements: - `spender` cannot be the zero address. - `spender` must have allowance for the caller of at least `subtractedValue`."
      },
      "increaseAllowance(address,uint256)": {
        "details": "Atomically increases the allowance granted to `spender` by the caller. This is an alternative to {approve} that can be used as a mitigation for problems described in {IERC20-approve}. Emits an {Approval} event indicating the updated allowance. Requirements: - `spender` cannot be the zero address."
      },
      "name()": {
        "details": "Returns the name of the token."
      },
      "symbol()": {
        "details": "Returns the symbol of the token, usually a shorter version of the name."
      },
      "totalSupply()": {
        "details": "See {IERC20-totalSupply}."
      },
      "transfer(address,uint256)": {
        "details": "See {IERC20-transfer}. Requirements: - `to` cannot be the zero address. - the caller must have a balance of at least `amount`."
      },
      "transferFrom(address,address,uint256)": {
        "details": "See {IERC20-transferFrom}. Emits an {Approval} event indicating the updated allowance. This is not required by the EIP. See the note at the beginning of {ERC20}. NOTE: Does not update the allowance if the current allowance is the maximum `uint256`. Requirements: - `from` and `to` cannot be the zero address. - `from` must have a balance of at least `amount`. - the caller must have allowance for ``from``'s tokens of at least `amount`."
      }
    },
    "version": 1
  },
  "userdoc": {
    "kind": "user",
    "methods": {},
    "version": 1
  }
}